{
  "address": "0x4c3EC8c3f9eC46D81887b3a27d0c9685a4DDc27C",
  "abi": [
    {
      "inputs": [],
      "stateMutability": "nonpayable",
      "type": "constructor"
    },
    {
      "inputs": [],
      "name": "AccessControlBadConfirmation",
      "type": "error"
    },
    {
      "inputs": [
        {
          "internalType": "address",
          "name": "account",
          "type": "address"
        },
        {
          "internalType": "bytes32",
          "name": "neededRole",
          "type": "bytes32"
        }
      ],
      "name": "AccessControlUnauthorizedAccount",
      "type": "error"
    },
    {
      "inputs": [
        {
          "internalType": "address",
          "name": "target",
          "type": "address"
        }
      ],
      "name": "AddressEmptyCode",
      "type": "error"
    },
    {
      "inputs": [
        {
          "internalType": "uint256",
          "name": "amount",
          "type": "uint256"
        },
        {
          "internalType": "uint256",
          "name": "minimum",
          "type": "uint256"
        }
      ],
      "name": "DepositLessThanMinimum",
      "type": "error"
    },
    {
      "inputs": [
        {
          "internalType": "address",
          "name": "implementation",
          "type": "address"
        }
      ],
      "name": "ERC1967InvalidImplementation",
      "type": "error"
    },
    {
      "inputs": [],
      "name": "ERC1967NonPayable",
      "type": "error"
    },
    {
      "inputs": [],
      "name": "Empty",
      "type": "error"
    },
    {
      "inputs": [],
      "name": "EmptyQueue",
      "type": "error"
    },
    {
      "inputs": [],
      "name": "FailedCall",
      "type": "error"
    },
    {
      "inputs": [
        {
          "internalType": "uint256",
          "name": "amount",
          "type": "uint256"
        },
        {
          "internalType": "uint256",
          "name": "minimum",
          "type": "uint256"
        }
      ],
      "name": "FirstDepositLessThanRequired",
      "type": "error"
    },
    {
      "inputs": [
        {
          "internalType": "uint80",
          "name": "answeredInRound",
          "type": "uint80"
        },
        {
          "internalType": "uint80",
          "name": "roundId",
          "type": "uint80"
        }
      ],
      "name": "IncompleteRound",
      "type": "error"
    },
    {
      "inputs": [],
      "name": "InsufficientOffchainShares",
      "type": "error"
    },
    {
      "inputs": [
        {
          "internalType": "uint256",
          "name": "oracleTotal",
          "type": "uint256"
        },
        {
          "internalType": "uint256",
          "name": "suppliedTotal",
          "type": "uint256"
        }
      ],
      "name": "InsufficientSettlementFunds",
      "type": "error"
    },
    {
      "inputs": [],
      "name": "InvalidAddress",
      "type": "error"
    },
    {
      "inputs": [],
      "name": "InvalidAmount",
      "type": "error"
    },
    {
      "inputs": [],
      "name": "InvalidInitialization",
      "type": "error"
    },
    {
      "inputs": [
        {
          "internalType": "uint256",
          "name": "input",
          "type": "uint256"
        }
      ],
      "name": "InvalidInput",
      "type": "error"
    },
    {
      "inputs": [
        {
          "internalType": "int256",
          "name": "price",
          "type": "int256"
        }
      ],
      "name": "InvalidPrice",
      "type": "error"
    },
    {
      "inputs": [],
      "name": "MgtFeeDisabled",
      "type": "error"
    },
    {
      "inputs": [],
      "name": "MgtFeeToCannotDirectRedeem",
      "type": "error"
    },
    {
      "inputs": [],
      "name": "NoPendingRedeemsReady",
      "type": "error"
    },
    {
      "inputs": [
        {
          "internalType": "address",
          "name": "from",
          "type": "address"
        },
        {
          "internalType": "address",
          "name": "to",
          "type": "address"
        }
      ],
      "name": "NotInKycList",
      "type": "error"
    },
    {
      "inputs": [],
      "name": "NotInitializing",
      "type": "error"
    },
    {
      "inputs": [],
      "name": "NotPausedDeposit1",
      "type": "error"
    },
    {
      "inputs": [],
      "name": "NotPausedRedeem1",
      "type": "error"
    },
    {
      "inputs": [
        {
          "internalType": "uint256",
          "name": "actual",
          "type": "uint256"
        },
        {
          "internalType": "uint256",
          "name": "expected",
          "type": "uint256"
        },
        {
          "internalType": "uint256",
          "name": "bps",
          "type": "uint256"
        }
      ],
      "name": "OracleDeviationExceeded",
      "type": "error"
    },
    {
      "inputs": [],
      "name": "OutOfBounds",
      "type": "error"
    },
    {
      "inputs": [],
      "name": "PausedDeposit1",
      "type": "error"
    },
    {
      "inputs": [],
      "name": "PausedRedeem1",
      "type": "error"
    },
    {
      "inputs": [],
      "name": "QueueFull",
      "type": "error"
    },
    {
      "inputs": [],
      "name": "QueuesNotEmpty",
      "type": "error"
    },
    {
      "inputs": [],
      "name": "RedeemAssetNotAllowed",
      "type": "error"
    },
    {
      "inputs": [
        {
          "internalType": "uint256",
          "name": "amount",
          "type": "uint256"
        },
        {
          "internalType": "uint256",
          "name": "minimum",
          "type": "uint256"
        }
      ],
      "name": "RedeemLessThanMinimum",
      "type": "error"
    },
    {
      "inputs": [
        {
          "internalType": "address",
          "name": "token",
          "type": "address"
        }
      ],
      "name": "SafeERC20FailedOperation",
      "type": "error"
    },
    {
      "inputs": [
        {
          "internalType": "uint256",
          "name": "updatedAt",
          "type": "uint256"
        },
        {
          "internalType": "uint256",
          "name": "currentTime",
          "type": "uint256"
        },
        {
          "internalType": "uint256",
          "name": "maxStalePeriod",
          "type": "uint256"
        }
      ],
      "name": "StalePriceData",
      "type": "error"
    },
    {
      "inputs": [],
      "name": "UUPSUnauthorizedCallContext",
      "type": "error"
    },
    {
      "inputs": [
        {
          "internalType": "bytes32",
          "name": "slot",
          "type": "bytes32"
        }
      ],
      "name": "UUPSUnsupportedProxiableUUID",
      "type": "error"
    },
    {
      "inputs": [
        {
          "internalType": "uint256",
          "name": "timestamp",
          "type": "uint256"
        }
      ],
      "name": "UpdateTooEarly",
      "type": "error"
    },
    {
      "anonymous": false,
      "inputs": [
        {
          "indexed": false,
          "internalType": "address",
          "name": "asset",
          "type": "address"
        },
        {
          "indexed": true,
          "internalType": "address",
          "name": "from",
          "type": "address"
        },
        {
          "indexed": true,
          "internalType": "address",
          "name": "to",
          "type": "address"
        },
        {
          "indexed": false,
          "internalType": "uint256",
          "name": "amount",
          "type": "uint256"
        },
        {
          "indexed": false,
          "internalType": "uint256",
          "name": "fee",
          "type": "uint256"
        },
        {
          "indexed": true,
          "internalType": "bytes32",
          "name": "id",
          "type": "bytes32"
        }
      ],
      "name": "AddToDepositQueue",
      "type": "event"
    },
    {
      "anonymous": false,
      "inputs": [
        {
          "indexed": true,
          "internalType": "address",
          "name": "from",
          "type": "address"
        },
        {
          "indexed": true,
          "internalType": "address",
          "name": "to",
          "type": "address"
        },
        {
          "indexed": false,
          "internalType": "uint256",
          "name": "tokenAmount",
          "type": "uint256"
        },
        {
          "indexed": false,
          "internalType": "uint256",
          "name": "shareAmount",
          "type": "uint256"
        },
        {
          "indexed": true,
          "internalType": "bytes32",
          "name": "id",
          "type": "bytes32"
        }
      ],
      "name": "AddToPendingRedeemQueue",
      "type": "event"
    },
    {
      "anonymous": false,
      "inputs": [
        {
          "indexed": true,
          "internalType": "address",
          "name": "from",
          "type": "address"
        },
        {
          "indexed": true,
          "internalType": "address",
          "name": "to",
          "type": "address"
        },
        {
          "indexed": false,
          "internalType": "uint256",
          "name": "shareAmount",
          "type": "uint256"
        },
        {
          "indexed": true,
          "internalType": "bytes32",
          "name": "id",
          "type": "bytes32"
        }
      ],
      "name": "CancelPendingRedeem",
      "type": "event"
    },
    {
      "anonymous": false,
      "inputs": [
        {
          "indexed": false,
          "internalType": "address",
          "name": "asset",
          "type": "address"
        },
        {
          "indexed": true,
          "internalType": "address",
          "name": "from",
          "type": "address"
        },
        {
          "indexed": true,
          "internalType": "address",
          "name": "to",
          "type": "address"
        },
        {
          "indexed": false,
          "internalType": "uint256",
          "name": "netAssets",
          "type": "uint256"
        },
        {
          "indexed": false,
          "internalType": "uint256",
          "name": "feeAmt",
          "type": "uint256"
        },
        {
          "indexed": true,
          "internalType": "bytes32",
          "name": "id",
          "type": "bytes32"
        }
      ],
      "name": "CancelProcessDeposit",
      "type": "event"
    },
    {
      "anonymous": false,
      "inputs": [
        {
          "indexed": true,
          "internalType": "address",
          "name": "from",
          "type": "address"
        },
        {
          "indexed": true,
          "internalType": "address",
          "name": "to",
          "type": "address"
        },
        {
          "indexed": false,
          "internalType": "uint256",
          "name": "netAmount",
          "type": "uint256"
        },
        {
          "indexed": false,
          "internalType": "uint256",
          "name": "feeAmt",
          "type": "uint256"
        },
        {
          "indexed": true,
          "internalType": "bytes32",
          "name": "id",
          "type": "bytes32"
        }
      ],
      "name": "CancelProcessRedeem",
      "type": "event"
    },
    {
      "anonymous": false,
      "inputs": [
        {
          "indexed": true,
          "internalType": "address",
          "name": "account",
          "type": "address"
        },
        {
          "indexed": true,
          "internalType": "address",
          "name": "asset",
          "type": "address"
        },
        {
          "indexed": false,
          "internalType": "uint256",
          "name": "amount",
          "type": "uint256"
        }
      ],
      "name": "DepositEscrowIn",
      "type": "event"
    },
    {
      "anonymous": false,
      "inputs": [
        {
          "indexed": true,
          "internalType": "address",
          "name": "account",
          "type": "address"
        },
        {
          "indexed": true,
          "internalType": "address",
          "name": "asset",
          "type": "address"
        },
        {
          "indexed": false,
          "internalType": "uint256",
          "name": "amount",
          "type": "uint256"
        }
      ],
      "name": "DepositEscrowOut",
      "type": "event"
    },
    {
      "anonymous": false,
      "inputs": [
        {
          "indexed": false,
          "internalType": "uint256",
          "name": "newMinimum",
          "type": "uint256"
        }
      ],
      "name": "DepositMinimumUpdated",
      "type": "event"
    },
    {
      "anonymous": false,
      "inputs": [
        {
          "indexed": false,
          "internalType": "uint256",
          "name": "amount",
          "type": "uint256"
        }
      ],
      "name": "FirstDepositAmount",
      "type": "event"
    },
    {
      "anonymous": false,
      "inputs": [
        {
          "indexed": false,
          "internalType": "uint64",
          "name": "version",
          "type": "uint64"
        }
      ],
      "name": "Initialized",
      "type": "event"
    },
    {
      "anonymous": false,
      "inputs": [
        {
          "indexed": true,
          "internalType": "address",
          "name": "oldManager",
          "type": "address"
        },
        {
          "indexed": true,
          "internalType": "address",
          "name": "newManager",
          "type": "address"
        }
      ],
      "name": "KycManagerUpdated",
      "type": "event"
    },
    {
      "anonymous": false,
      "inputs": [
        {
          "indexed": true,
          "internalType": "address",
          "name": "to",
          "type": "address"
        },
        {
          "indexed": false,
          "internalType": "uint256",
          "name": "amount",
          "type": "uint256"
        }
      ],
      "name": "OffRamp",
      "type": "event"
    },
    {
      "anonymous": false,
      "inputs": [
        {
          "indexed": true,
          "internalType": "address",
          "name": "from",
          "type": "address"
        },
        {
          "indexed": true,
          "internalType": "address",
          "name": "to",
          "type": "address"
        },
        {
          "indexed": true,
          "internalType": "address",
          "name": "asset",
          "type": "address"
        },
        {
          "indexed": false,
          "internalType": "uint256",
          "name": "tokenAmount",
          "type": "uint256"
        },
        {
          "indexed": false,
          "internalType": "uint256",
          "name": "shareAmount",
          "type": "uint256"
        }
      ],
      "name": "OffchainRedeem",
      "type": "event"
    },
    {
      "anonymous": false,
      "inputs": [
        {
          "indexed": false,
          "internalType": "address",
          "name": "account",
          "type": "address"
        }
      ],
      "name": "PausedDeposit",
      "type": "event"
    },
    {
      "anonymous": false,
      "inputs": [
        {
          "indexed": false,
          "internalType": "address",
          "name": "account",
          "type": "address"
        }
      ],
      "name": "PausedRedeem",
      "type": "event"
    },
    {
      "anonymous": false,
      "inputs": [
        {
          "indexed": false,
          "internalType": "address",
          "name": "asset",
          "type": "address"
        },
        {
          "indexed": true,
          "internalType": "address",
          "name": "from",
          "type": "address"
        },
        {
          "indexed": true,
          "internalType": "address",
          "name": "to",
          "type": "address"
        },
        {
          "indexed": false,
          "internalType": "uint256",
          "name": "netAssets",
          "type": "uint256"
        },
        {
          "indexed": false,
          "internalType": "uint256",
          "name": "mintedAmount",
          "type": "uint256"
        },
        {
          "indexed": false,
          "internalType": "uint256",
          "name": "feeAmt",
          "type": "uint256"
        },
        {
          "indexed": true,
          "internalType": "bytes32",
          "name": "id",
          "type": "bytes32"
        }
      ],
      "name": "ProcessDeposit",
      "type": "event"
    },
    {
      "anonymous": false,
      "inputs": [
        {
          "indexed": true,
          "internalType": "address",
          "name": "from",
          "type": "address"
        },
        {
          "indexed": true,
          "internalType": "address",
          "name": "to",
          "type": "address"
        },
        {
          "indexed": false,
          "internalType": "uint256",
          "name": "shareAmount",
          "type": "uint256"
        },
        {
          "indexed": false,
          "internalType": "uint256",
          "name": "priceUsed",
          "type": "uint256"
        },
        {
          "indexed": true,
          "internalType": "bytes32",
          "name": "pendingId",
          "type": "bytes32"
        },
        {
          "indexed": false,
          "internalType": "bytes32",
          "name": "finalId",
          "type": "bytes32"
        }
      ],
      "name": "ProcessPendingRedeem",
      "type": "event"
    },
    {
      "anonymous": false,
      "inputs": [
        {
          "indexed": true,
          "internalType": "address",
          "name": "from",
          "type": "address"
        },
        {
          "indexed": true,
          "internalType": "address",
          "name": "to",
          "type": "address"
        },
        {
          "indexed": false,
          "internalType": "uint256",
          "name": "burnedAmount",
          "type": "uint256"
        },
        {
          "indexed": false,
          "internalType": "uint256",
          "name": "redeemAssetOut",
          "type": "uint256"
        },
        {
          "indexed": true,
          "internalType": "bytes32",
          "name": "id",
          "type": "bytes32"
        }
      ],
      "name": "ProcessRedeem",
      "type": "event"
    },
    {
      "anonymous": false,
      "inputs": [
        {
          "indexed": true,
          "internalType": "address",
          "name": "account",
          "type": "address"
        },
        {
          "indexed": false,
          "internalType": "uint256",
          "name": "amount",
          "type": "uint256"
        }
      ],
      "name": "RedeemEscrowIn",
      "type": "event"
    },
    {
      "anonymous": false,
      "inputs": [
        {
          "indexed": true,
          "internalType": "address",
          "name": "account",
          "type": "address"
        },
        {
          "indexed": false,
          "internalType": "uint256",
          "name": "amount",
          "type": "uint256"
        }
      ],
      "name": "RedeemEscrowOut",
      "type": "event"
    },
    {
      "anonymous": false,
      "inputs": [
        {
          "indexed": false,
          "internalType": "uint256",
          "name": "newMinimum",
          "type": "uint256"
        }
      ],
      "name": "RedeemMinimumUpdated",
      "type": "event"
    },
    {
      "anonymous": false,
      "inputs": [
        {
          "indexed": true,
          "internalType": "address",
          "name": "from",
          "type": "address"
        },
        {
          "indexed": true,
          "internalType": "address",
          "name": "to",
          "type": "address"
        },
        {
          "indexed": false,
          "internalType": "uint256",
          "name": "tokenAmount",
          "type": "uint256"
        },
        {
          "indexed": true,
          "internalType": "bytes32",
          "name": "oldRedeemId",
          "type": "bytes32"
        },
        {
          "indexed": false,
          "internalType": "bytes32",
          "name": "newPendingId",
          "type": "bytes32"
        }
      ],
      "name": "RevertRedeemToPending",
      "type": "event"
    },
    {
      "anonymous": false,
      "inputs": [
        {
          "indexed": true,
          "internalType": "bytes32",
          "name": "role",
          "type": "bytes32"
        },
        {
          "indexed": true,
          "internalType": "bytes32",
          "name": "previousAdminRole",
          "type": "bytes32"
        },
        {
          "indexed": true,
          "internalType": "bytes32",
          "name": "newAdminRole",
          "type": "bytes32"
        }
      ],
      "name": "RoleAdminChanged",
      "type": "event"
    },
    {
      "anonymous": false,
      "inputs": [
        {
          "indexed": true,
          "internalType": "bytes32",
          "name": "role",
          "type": "bytes32"
        },
        {
          "indexed": true,
          "internalType": "address",
          "name": "account",
          "type": "address"
        },
        {
          "indexed": true,
          "internalType": "address",
          "name": "sender",
          "type": "address"
        }
      ],
      "name": "RoleGranted",
      "type": "event"
    },
    {
      "anonymous": false,
      "inputs": [
        {
          "indexed": true,
          "internalType": "bytes32",
          "name": "role",
          "type": "bytes32"
        },
        {
          "indexed": true,
          "internalType": "address",
          "name": "account",
          "type": "address"
        },
        {
          "indexed": true,
          "internalType": "address",
          "name": "sender",
          "type": "address"
        }
      ],
      "name": "RoleRevoked",
      "type": "event"
    },
    {
      "anonymous": false,
      "inputs": [
        {
          "indexed": false,
          "internalType": "address",
          "name": "account",
          "type": "address"
        }
      ],
      "name": "UnpausedDeposit",
      "type": "event"
    },
    {
      "anonymous": false,
      "inputs": [
        {
          "indexed": false,
          "internalType": "address",
          "name": "account",
          "type": "address"
        }
      ],
      "name": "UnpausedRedeem",
      "type": "event"
    },
    {
      "anonymous": false,
      "inputs": [
        {
          "indexed": true,
          "internalType": "address",
          "name": "newRegistry",
          "type": "address"
        }
      ],
      "name": "UpdateAssetRegistry",
      "type": "event"
    },
    {
      "anonymous": false,
      "inputs": [
        {
          "indexed": false,
          "internalType": "uint256",
          "name": "delay",
          "type": "uint256"
        }
      ],
      "name": "UpdateConvertRedeemRequestsDelay",
      "type": "event"
    },
    {
      "anonymous": false,
      "inputs": [
        {
          "indexed": false,
          "internalType": "uint256",
          "name": "fee",
          "type": "uint256"
        }
      ],
      "name": "UpdateDepositFeeRate",
      "type": "event"
    },
    {
      "anonymous": false,
      "inputs": [
        {
          "indexed": false,
          "internalType": "uint256",
          "name": "bps",
          "type": "uint256"
        }
      ],
      "name": "UpdateDepositMaxDeviationBps",
      "type": "event"
    },
    {
      "anonymous": false,
      "inputs": [
        {
          "indexed": false,
          "internalType": "uint256",
          "name": "dailyFeeShares",
          "type": "uint256"
        },
        {
          "indexed": false,
          "internalType": "uint256",
          "name": "dailyFeeTokens",
          "type": "uint256"
        },
        {
          "indexed": false,
          "internalType": "uint256",
          "name": "offchainShares",
          "type": "uint256"
        }
      ],
      "name": "UpdateEpoch",
      "type": "event"
    },
    {
      "anonymous": false,
      "inputs": [
        {
          "indexed": true,
          "internalType": "address",
          "name": "account",
          "type": "address"
        },
        {
          "indexed": false,
          "internalType": "bool",
          "name": "flag",
          "type": "bool"
        }
      ],
      "name": "UpdateFirstDeposit",
      "type": "event"
    },
    {
      "anonymous": false,
      "inputs": [
        {
          "indexed": false,
          "internalType": "uint256",
          "name": "maxStalePeriod",
          "type": "uint256"
        }
      ],
      "name": "UpdateMaxStalePeriod",
      "type": "event"
    },
    {
      "anonymous": false,
      "inputs": [
        {
          "indexed": false,
          "internalType": "uint256",
          "name": "rate",
          "type": "uint256"
        }
      ],
      "name": "UpdateMgtFeeRate",
      "type": "event"
    },
    {
      "anonymous": false,
      "inputs": [
        {
          "indexed": true,
          "internalType": "address",
          "name": "mgtFeeTo",
          "type": "address"
        }
      ],
      "name": "UpdateMgtFeeTo",
      "type": "event"
    },
    {
      "anonymous": false,
      "inputs": [
        {
          "indexed": true,
          "internalType": "address",
          "name": "caller",
          "type": "address"
        },
        {
          "indexed": false,
          "internalType": "uint256",
          "name": "newValue",
          "type": "uint256"
        },
        {
          "indexed": false,
          "internalType": "uint256",
          "name": "previousValue",
          "type": "uint256"
        }
      ],
      "name": "UpdateOffchainShares",
      "type": "event"
    },
    {
      "anonymous": false,
      "inputs": [
        {
          "indexed": true,
          "internalType": "address",
          "name": "priceOracle",
          "type": "address"
        }
      ],
      "name": "UpdatePriceOracle",
      "type": "event"
    },
    {
      "anonymous": false,
      "inputs": [
        {
          "indexed": true,
          "internalType": "address",
          "name": "oldAsset",
          "type": "address"
        },
        {
          "indexed": true,
          "internalType": "address",
          "name": "newAsset",
          "type": "address"
        }
      ],
      "name": "UpdateRedeemAsset",
      "type": "event"
    },
    {
      "anonymous": false,
      "inputs": [
        {
          "indexed": false,
          "internalType": "uint256",
          "name": "fee",
          "type": "uint256"
        }
      ],
      "name": "UpdateRedeemFeeRate",
      "type": "event"
    },
    {
      "anonymous": false,
      "inputs": [
        {
          "indexed": false,
          "internalType": "uint256",
          "name": "bps",
          "type": "uint256"
        }
      ],
      "name": "UpdateRedeemMaxDeviationBps",
      "type": "event"
    },
    {
      "anonymous": false,
      "inputs": [
        {
          "indexed": false,
          "internalType": "uint256",
          "name": "timeBuffer",
          "type": "uint256"
        }
      ],
      "name": "UpdateTimeBuffer",
      "type": "event"
    },
    {
      "anonymous": false,
      "inputs": [
        {
          "indexed": true,
          "internalType": "address",
          "name": "treasury",
          "type": "address"
        }
      ],
      "name": "UpdateTreasury",
      "type": "event"
    },
    {
      "anonymous": false,
      "inputs": [
        {
          "indexed": false,
          "internalType": "uint8",
          "name": "decimals",
          "type": "uint8"
        }
      ],
      "name": "UpdateTrimDecimals",
      "type": "event"
    },
    {
      "anonymous": false,
      "inputs": [
        {
          "indexed": true,
          "internalType": "address",
          "name": "txFeeTo",
          "type": "address"
        }
      ],
      "name": "UpdateTxFeeTo",
      "type": "event"
    },
    {
      "anonymous": false,
      "inputs": [
        {
          "indexed": true,
          "internalType": "address",
          "name": "implementation",
          "type": "address"
        }
      ],
      "name": "Upgraded",
      "type": "event"
    },
    {
      "inputs": [],
      "name": "DEFAULT_ADMIN_ROLE",
      "outputs": [
        {
          "internalType": "bytes32",
          "name": "",
          "type": "bytes32"
        }
      ],
      "stateMutability": "view",
      "type": "function"
    },
    {
      "inputs": [],
      "name": "MAINTAINER_ROLE",
      "outputs": [
        {
          "internalType": "bytes32",
          "name": "",
          "type": "bytes32"
        }
      ],
      "stateMutability": "view",
      "type": "function"
    },
    {
      "inputs": [],
      "name": "OPERATOR_ROLE",
      "outputs": [
        {
          "internalType": "bytes32",
          "name": "",
          "type": "bytes32"
        }
      ],
      "stateMutability": "view",
      "type": "function"
    },
    {
      "inputs": [],
      "name": "PAUSE_ROLE",
      "outputs": [
        {
          "internalType": "bytes32",
          "name": "",
          "type": "bytes32"
        }
      ],
      "stateMutability": "view",
      "type": "function"
    },
    {
      "inputs": [],
      "name": "UPGRADE_INTERFACE_VERSION",
      "outputs": [
        {
          "internalType": "string",
          "name": "",
          "type": "string"
        }
      ],
      "stateMutability": "view",
      "type": "function"
    },
    {
      "inputs": [],
      "name": "UPGRADE_ROLE",
      "outputs": [
        {
          "internalType": "bytes32",
          "name": "",
          "type": "bytes32"
        }
      ],
      "stateMutability": "view",
      "type": "function"
    },
    {
      "inputs": [],
      "name": "assetRegistry",
      "outputs": [
        {
          "internalType": "contract IAssetRegistry",
          "name": "",
          "type": "address"
        }
      ],
      "stateMutability": "view",
      "type": "function"
    },
    {
      "inputs": [
        {
          "internalType": "uint256",
          "name": "_len",
          "type": "uint256"
        }
      ],
      "name": "cancelDeposit",
      "outputs": [],
      "stateMutability": "nonpayable",
      "type": "function"
    },
    {
      "inputs": [
        {
          "internalType": "uint256",
          "name": "_len",
          "type": "uint256"
        }
      ],
      "name": "cancelPendingRedeem",
      "outputs": [],
      "stateMutability": "nonpayable",
      "type": "function"
    },
    {
      "inputs": [
        {
          "internalType": "uint256",
          "name": "_len",
          "type": "uint256"
        }
      ],
      "name": "cancelRedeem",
      "outputs": [],
      "stateMutability": "nonpayable",
      "type": "function"
    },
    {
      "inputs": [],
      "name": "circulatingSupply",
      "outputs": [
        {
          "internalType": "uint256",
          "name": "supply",
          "type": "uint256"
        }
      ],
      "stateMutability": "view",
      "type": "function"
    },
    {
      "inputs": [
        {
          "internalType": "address",
          "name": "_account",
          "type": "address"
        },
        {
          "internalType": "address",
          "name": "_asset",
          "type": "address"
        }
      ],
      "name": "claimDepositEscrow",
      "outputs": [],
      "stateMutability": "nonpayable",
      "type": "function"
    },
    {
      "inputs": [
        {
          "internalType": "address",
          "name": "_account",
          "type": "address"
        }
      ],
      "name": "claimRedeemEscrow",
      "outputs": [],
      "stateMutability": "nonpayable",
      "type": "function"
    },
    {
      "inputs": [
        {
          "internalType": "address",
          "name": "_token",
          "type": "address"
        },
        {
          "internalType": "uint256",
          "name": "_amount",
          "type": "uint256"
        }
      ],
      "name": "convertFromUnderlying",
      "outputs": [
        {
          "internalType": "uint256",
          "name": "amount",
          "type": "uint256"
        }
      ],
      "stateMutability": "view",
      "type": "function"
    },
    {
      "inputs": [],
      "name": "convertRedeemRequestsDelay",
      "outputs": [
        {
          "internalType": "uint256",
          "name": "",
          "type": "uint256"
        }
      ],
      "stateMutability": "view",
      "type": "function"
    },
    {
      "inputs": [
        {
          "internalType": "address",
          "name": "_token",
          "type": "address"
        },
        {
          "internalType": "uint256",
          "name": "_amount",
          "type": "uint256"
        }
      ],
      "name": "convertToUnderlying",
      "outputs": [
        {
          "internalType": "uint256",
          "name": "amount",
          "type": "uint256"
        }
      ],
      "stateMutability": "view",
      "type": "function"
    },
    {
      "inputs": [
        {
          "internalType": "address",
          "name": "",
          "type": "address"
        },
        {
          "internalType": "address",
          "name": "",
          "type": "address"
        }
      ],
      "name": "depositEscrowBalance",
      "outputs": [
        {
          "internalType": "uint256",
          "name": "",
          "type": "uint256"
        }
      ],
      "stateMutability": "view",
      "type": "function"
    },
    {
      "inputs": [],
      "name": "depositFeeRate",
      "outputs": [
        {
          "internalType": "uint256",
          "name": "",
          "type": "uint256"
        }
      ],
      "stateMutability": "view",
      "type": "function"
    },
    {
      "inputs": [
        {
          "internalType": "address",
          "name": "",
          "type": "address"
        },
        {
          "internalType": "address",
          "name": "",
          "type": "address"
        }
      ],
      "name": "depositInfo",
      "outputs": [
        {
          "internalType": "uint256",
          "name": "",
          "type": "uint256"
        }
      ],
      "stateMutability": "view",
      "type": "function"
    },
    {
      "inputs": [],
      "name": "depositMaxDeviationBps",
      "outputs": [
        {
          "internalType": "uint256",
          "name": "",
          "type": "uint256"
        }
      ],
      "stateMutability": "view",
      "type": "function"
    },
    {
      "inputs": [],
      "name": "depositMinimum",
      "outputs": [
        {
          "internalType": "uint256",
          "name": "",
          "type": "uint256"
        }
      ],
      "stateMutability": "view",
      "type": "function"
    },
    {
      "inputs": [
        {
          "internalType": "address",
          "name": "",
          "type": "address"
        }
      ],
      "name": "firstDeposit",
      "outputs": [
        {
          "internalType": "bool",
          "name": "",
          "type": "bool"
        }
      ],
      "stateMutability": "view",
      "type": "function"
    },
    {
      "inputs": [],
      "name": "firstDepositAmount",
      "outputs": [
        {
          "internalType": "uint256",
          "name": "",
          "type": "uint256"
        }
      ],
      "stateMutability": "view",
      "type": "function"
    },
    {
      "inputs": [
        {
          "internalType": "uint256",
          "name": "_index",
          "type": "uint256"
        }
      ],
      "name": "getDepositQueueInfo",
      "outputs": [
        {
          "internalType": "address",
          "name": "asset",
          "type": "address"
        },
        {
          "internalType": "address",
          "name": "sender",
          "type": "address"
        },
        {
          "internalType": "address",
          "name": "receiver",
          "type": "address"
        },
        {
          "internalType": "uint256",
          "name": "netAssets",
          "type": "uint256"
        },
        {
          "internalType": "uint256",
          "name": "feeAmt",
          "type": "uint256"
        },
        {
          "internalType": "bytes32",
          "name": "id",
          "type": "bytes32"
        }
      ],
      "stateMutability": "view",
      "type": "function"
    },
    {
      "inputs": [],
      "name": "getDepositQueueLength",
      "outputs": [
        {
          "internalType": "uint256",
          "name": "",
          "type": "uint256"
        }
      ],
      "stateMutability": "view",
      "type": "function"
    },
    {
      "inputs": [
        {
          "internalType": "uint256",
          "name": "_index",
          "type": "uint256"
        }
      ],
      "name": "getPendingRedeemQueueInfo",
      "outputs": [
        {
          "internalType": "address",
          "name": "sender",
          "type": "address"
        },
        {
          "internalType": "address",
          "name": "receiver",
          "type": "address"
        },
        {
          "internalType": "uint256",
          "name": "tokenAmount",
          "type": "uint256"
        },
        {
          "internalType": "uint256",
          "name": "shareAmount",
          "type": "uint256"
        },
        {
          "internalType": "uint256",
          "name": "requestTimestamp",
          "type": "uint256"
        },
        {
          "internalType": "bytes32",
          "name": "id",
          "type": "bytes32"
        }
      ],
      "stateMutability": "view",
      "type": "function"
    },
    {
      "inputs": [],
      "name": "getPendingRedeemQueueLength",
      "outputs": [
        {
          "internalType": "uint256",
          "name": "",
          "type": "uint256"
        }
      ],
      "stateMutability": "view",
      "type": "function"
    },
    {
      "inputs": [],
      "name": "getPrice",
      "outputs": [
        {
          "internalType": "uint256",
          "name": "price",
          "type": "uint256"
        }
      ],
      "stateMutability": "view",
      "type": "function"
    },
    {
      "inputs": [
        {
          "internalType": "uint256",
          "name": "_index",
          "type": "uint256"
        }
      ],
      "name": "getRedeemQueueInfo",
      "outputs": [
        {
          "internalType": "address",
          "name": "sender",
          "type": "address"
        },
        {
          "internalType": "address",
          "name": "receiver",
          "type": "address"
        },
        {
          "internalType": "uint256",
          "name": "tokenAmount",
          "type": "uint256"
        },
        {
          "internalType": "uint256",
          "name": "shareAmount",
          "type": "uint256"
        },
        {
          "internalType": "uint256",
          "name": "redeemAssetAmt",
          "type": "uint256"
        },
        {
          "internalType": "uint256",
          "name": "feeAssetAmt",
          "type": "uint256"
        },
        {
          "internalType": "uint256",
          "name": "requestTimestamp",
          "type": "uint256"
        },
        {
          "internalType": "bytes32",
          "name": "id",
          "type": "bytes32"
        }
      ],
      "stateMutability": "view",
      "type": "function"
    },
    {
      "inputs": [],
      "name": "getRedeemQueueLength",
      "outputs": [
        {
          "internalType": "uint256",
          "name": "",
          "type": "uint256"
        }
      ],
      "stateMutability": "view",
      "type": "function"
    },
    {
      "inputs": [
        {
          "internalType": "bytes32",
          "name": "role",
          "type": "bytes32"
        }
      ],
      "name": "getRoleAdmin",
      "outputs": [
        {
          "internalType": "bytes32",
          "name": "",
          "type": "bytes32"
        }
      ],
      "stateMutability": "view",
      "type": "function"
    },
    {
      "inputs": [
        {
          "internalType": "bytes32",
          "name": "role",
          "type": "bytes32"
        },
        {
          "internalType": "uint256",
          "name": "index",
          "type": "uint256"
        }
      ],
      "name": "getRoleMember",
      "outputs": [
        {
          "internalType": "address",
          "name": "",
          "type": "address"
        }
      ],
      "stateMutability": "view",
      "type": "function"
    },
    {
      "inputs": [
        {
          "internalType": "bytes32",
          "name": "role",
          "type": "bytes32"
        }
      ],
      "name": "getRoleMemberCount",
      "outputs": [
        {
          "internalType": "uint256",
          "name": "",
          "type": "uint256"
        }
      ],
      "stateMutability": "view",
      "type": "function"
    },
    {
      "inputs": [
        {
          "internalType": "bytes32",
          "name": "role",
          "type": "bytes32"
        }
      ],
      "name": "getRoleMembers",
      "outputs": [
        {
          "internalType": "address[]",
          "name": "",
          "type": "address[]"
        }
      ],
      "stateMutability": "view",
      "type": "function"
    },
    {
      "inputs": [
        {
          "internalType": "address",
          "name": "_token",
          "type": "address"
        }
      ],
      "name": "getTokenBalance",
      "outputs": [
        {
          "internalType": "uint256",
          "name": "",
          "type": "uint256"
        }
      ],
      "stateMutability": "view",
      "type": "function"
    },
    {
      "inputs": [
        {
          "internalType": "bytes32",
          "name": "role",
          "type": "bytes32"
        },
        {
          "internalType": "address",
          "name": "account",
          "type": "address"
        }
      ],
      "name": "grantRole",
      "outputs": [],
      "stateMutability": "nonpayable",
      "type": "function"
    },
    {
      "inputs": [
        {
          "internalType": "bytes32",
          "name": "role",
          "type": "bytes32"
        },
        {
          "internalType": "address",
          "name": "account",
          "type": "address"
        }
      ],
      "name": "hasRole",
      "outputs": [
        {
          "internalType": "bool",
          "name": "",
          "type": "bool"
        }
      ],
      "stateMutability": "view",
      "type": "function"
    },
    {
      "inputs": [
        {
          "internalType": "address",
          "name": "_token",
          "type": "address"
        },
        {
          "internalType": "address",
          "name": "_redeemAsset",
          "type": "address"
        },
        {
          "internalType": "address",
          "name": "_treasury",
          "type": "address"
        },
        {
          "internalType": "address",
          "name": "_txFeeTo",
          "type": "address"
        },
        {
          "internalType": "address",
          "name": "_mgtFeeTo",
          "type": "address"
        },
        {
          "internalType": "address",
          "name": "admin",
          "type": "address"
        },
        {
          "internalType": "address",
          "name": "_assetRegistry",
          "type": "address"
        },
        {
          "internalType": "address",
          "name": "_priceOracle",
          "type": "address"
        },
        {
          "internalType": "uint256",
          "name": "_maxStalePeriod",
          "type": "uint256"
        },
        {
          "components": [
            {
              "internalType": "uint256",
              "name": "depositMinimum",
              "type": "uint256"
            },
            {
              "internalType": "uint256",
              "name": "redeemMinimum",
              "type": "uint256"
            },
            {
              "internalType": "uint256",
              "name": "firstDepositAmount",
              "type": "uint256"
            }
          ],
          "internalType": "struct DepositRedeemLimiterCfg",
          "name": "cfg",
          "type": "tuple"
        },
        {
          "internalType": "address",
          "name": "_kycManager",
          "type": "address"
        },
        {
          "internalType": "uint256",
          "name": "_depositMaxDeviationBps",
          "type": "uint256"
        },
        {
          "internalType": "uint256",
          "name": "_redeemMaxDeviationBps",
          "type": "uint256"
        }
      ],
      "name": "initialize",
      "outputs": [],
      "stateMutability": "nonpayable",
      "type": "function"
    },
    {
      "inputs": [],
      "name": "kycManager",
      "outputs": [
        {
          "internalType": "address",
          "name": "",
          "type": "address"
        }
      ],
      "stateMutability": "view",
      "type": "function"
    },
    {
      "inputs": [],
      "name": "lastUpdateTS",
      "outputs": [
        {
          "internalType": "uint256",
          "name": "",
          "type": "uint256"
        }
      ],
      "stateMutability": "view",
      "type": "function"
    },
    {
      "inputs": [],
      "name": "maxStalePeriod",
      "outputs": [
        {
          "internalType": "uint256",
          "name": "",
          "type": "uint256"
        }
      ],
      "stateMutability": "view",
      "type": "function"
    },
    {
      "inputs": [],
      "name": "mgtFeeRate",
      "outputs": [
        {
          "internalType": "uint256",
          "name": "",
          "type": "uint256"
        }
      ],
      "stateMutability": "view",
      "type": "function"
    },
    {
      "inputs": [],
      "name": "mgtFeeTo",
      "outputs": [
        {
          "internalType": "address",
          "name": "",
          "type": "address"
        }
      ],
      "stateMutability": "view",
      "type": "function"
    },
    {
      "inputs": [
        {
          "internalType": "uint256",
          "name": "_amount",
          "type": "uint256"
        }
      ],
      "name": "offRamp",
      "outputs": [],
      "stateMutability": "nonpayable",
      "type": "function"
    },
    {
      "inputs": [],
      "name": "offchainShares",
      "outputs": [
        {
          "internalType": "uint256",
          "name": "",
          "type": "uint256"
        }
      ],
      "stateMutability": "view",
      "type": "function"
    },
    {
      "inputs": [],
      "name": "pauseDeposit",
      "outputs": [],
      "stateMutability": "nonpayable",
      "type": "function"
    },
    {
      "inputs": [],
      "name": "pauseRedeem",
      "outputs": [],
      "stateMutability": "nonpayable",
      "type": "function"
    },
    {
      "inputs": [],
      "name": "pausedDeposit",
      "outputs": [
        {
          "internalType": "bool",
          "name": "",
          "type": "bool"
        }
      ],
      "stateMutability": "view",
      "type": "function"
    },
    {
      "inputs": [],
      "name": "pausedRedeem",
      "outputs": [
        {
          "internalType": "bool",
          "name": "",
          "type": "bool"
        }
      ],
      "stateMutability": "view",
      "type": "function"
    },
    {
      "inputs": [
        {
          "internalType": "address",
          "name": "",
          "type": "address"
        }
      ],
      "name": "pendingRedeemInfo",
      "outputs": [
        {
          "internalType": "uint256",
          "name": "",
          "type": "uint256"
        }
      ],
      "stateMutability": "view",
      "type": "function"
    },
    {
      "inputs": [
        {
          "internalType": "address",
          "name": "_asset",
          "type": "address"
        },
        {
          "internalType": "uint256",
          "name": "_amount",
          "type": "uint256"
        }
      ],
      "name": "previewDeposit",
      "outputs": [
        {
          "internalType": "uint256",
          "name": "netAmt",
          "type": "uint256"
        },
        {
          "internalType": "uint256",
          "name": "feeAmt",
          "type": "uint256"
        },
        {
          "internalType": "uint256",
          "name": "netMintAmt",
          "type": "uint256"
        }
      ],
      "stateMutability": "view",
      "type": "function"
    },
    {
      "inputs": [
        {
          "internalType": "uint256",
          "name": "_tokenAmount",
          "type": "uint256"
        }
      ],
      "name": "previewRedeem",
      "outputs": [
        {
          "internalType": "uint256",
          "name": "feeAmt",
          "type": "uint256"
        },
        {
          "internalType": "uint256",
          "name": "redeemAssetAmt",
          "type": "uint256"
        },
        {
          "internalType": "uint256",
          "name": "netRedeemAssetAmt",
          "type": "uint256"
        }
      ],
      "stateMutability": "view",
      "type": "function"
    },
    {
      "inputs": [],
      "name": "priceOracle",
      "outputs": [
        {
          "internalType": "contract IPriceFeed",
          "name": "",
          "type": "address"
        }
      ],
      "stateMutability": "view",
      "type": "function"
    },
    {
      "inputs": [
        {
          "internalType": "uint256",
          "name": "_len",
          "type": "uint256"
        },
        {
          "internalType": "uint256",
          "name": "_newShares",
          "type": "uint256"
        }
      ],
      "name": "processDepositQueue",
      "outputs": [],
      "stateMutability": "nonpayable",
      "type": "function"
    },
    {
      "inputs": [
        {
          "internalType": "uint256",
          "name": "_len",
          "type": "uint256"
        },
        {
          "internalType": "uint256",
          "name": "_totalAsset",
          "type": "uint256"
        }
      ],
      "name": "processPendingRedeems",
      "outputs": [],
      "stateMutability": "nonpayable",
      "type": "function"
    },
    {
      "inputs": [
        {
          "internalType": "uint256",
          "name": "_len",
          "type": "uint256"
        }
      ],
      "name": "processRedeemQueue",
      "outputs": [],
      "stateMutability": "nonpayable",
      "type": "function"
    },
    {
      "inputs": [],
      "name": "proxiableUUID",
      "outputs": [
        {
          "internalType": "bytes32",
          "name": "",
          "type": "bytes32"
        }
      ],
      "stateMutability": "view",
      "type": "function"
    },
    {
      "inputs": [],
      "name": "redeemAsset",
      "outputs": [
        {
          "internalType": "address",
          "name": "",
          "type": "address"
        }
      ],
      "stateMutability": "view",
      "type": "function"
    },
    {
      "inputs": [
        {
          "internalType": "address",
          "name": "",
          "type": "address"
        }
      ],
      "name": "redeemEscrowBalance",
      "outputs": [
        {
          "internalType": "uint256",
          "name": "",
          "type": "uint256"
        }
      ],
      "stateMutability": "view",
      "type": "function"
    },
    {
      "inputs": [],
      "name": "redeemFeeRate",
      "outputs": [
        {
          "internalType": "uint256",
          "name": "",
          "type": "uint256"
        }
      ],
      "stateMutability": "view",
      "type": "function"
    },
    {
      "inputs": [
        {
          "internalType": "address",
          "name": "",
          "type": "address"
        }
      ],
      "name": "redeemInfo",
      "outputs": [
        {
          "internalType": "uint256",
          "name": "",
          "type": "uint256"
        }
      ],
      "stateMutability": "view",
      "type": "function"
    },
    {
      "inputs": [],
      "name": "redeemMaxDeviationBps",
      "outputs": [
        {
          "internalType": "uint256",
          "name": "",
          "type": "uint256"
        }
      ],
      "stateMutability": "view",
      "type": "function"
    },
    {
      "inputs": [],
      "name": "redeemMinimum",
      "outputs": [
        {
          "internalType": "uint256",
          "name": "",
          "type": "uint256"
        }
      ],
      "stateMutability": "view",
      "type": "function"
    },
    {
      "inputs": [
        {
          "internalType": "bytes32",
          "name": "role",
          "type": "bytes32"
        },
        {
          "internalType": "address",
          "name": "callerConfirmation",
          "type": "address"
        }
      ],
      "name": "renounceRole",
      "outputs": [],
      "stateMutability": "nonpayable",
      "type": "function"
    },
    {
      "inputs": [
        {
          "internalType": "address",
          "name": "_asset",
          "type": "address"
        },
        {
          "internalType": "uint256",
          "name": "_amount",
          "type": "uint256"
        },
        {
          "internalType": "address",
          "name": "_receiver",
          "type": "address"
        }
      ],
      "name": "requestDeposit",
      "outputs": [],
      "stateMutability": "nonpayable",
      "type": "function"
    },
    {
      "inputs": [
        {
          "internalType": "address",
          "name": "_asset",
          "type": "address"
        },
        {
          "internalType": "uint256",
          "name": "_tokenAmount",
          "type": "uint256"
        },
        {
          "internalType": "address",
          "name": "_to",
          "type": "address"
        }
      ],
      "name": "requestDirectRedeem",
      "outputs": [],
      "stateMutability": "nonpayable",
      "type": "function"
    },
    {
      "inputs": [
        {
          "internalType": "address",
          "name": "_to",
          "type": "address"
        },
        {
          "internalType": "uint256",
          "name": "_tokenAmount",
          "type": "uint256"
        }
      ],
      "name": "requestRedeem",
      "outputs": [],
      "stateMutability": "nonpayable",
      "type": "function"
    },
    {
      "inputs": [
        {
          "internalType": "uint256",
          "name": "_len",
          "type": "uint256"
        }
      ],
      "name": "revertRedeemToPending",
      "outputs": [],
      "stateMutability": "nonpayable",
      "type": "function"
    },
    {
      "inputs": [
        {
          "internalType": "bytes32",
          "name": "role",
          "type": "bytes32"
        },
        {
          "internalType": "address",
          "name": "account",
          "type": "address"
        }
      ],
      "name": "revokeRole",
      "outputs": [],
      "stateMutability": "nonpayable",
      "type": "function"
    },
    {
      "inputs": [
        {
          "internalType": "address",
          "name": "newManager",
          "type": "address"
        }
      ],
      "name": "setKycManager",
      "outputs": [],
      "stateMutability": "nonpayable",
      "type": "function"
    },
    {
      "inputs": [],
      "name": "sharesPerToken",
      "outputs": [
        {
          "internalType": "uint256",
          "name": "ratio",
          "type": "uint256"
        }
      ],
      "stateMutability": "view",
      "type": "function"
    },
    {
      "inputs": [
        {
          "internalType": "bytes4",
          "name": "interfaceId",
          "type": "bytes4"
        }
      ],
      "name": "supportsInterface",
      "outputs": [
        {
          "internalType": "bool",
          "name": "",
          "type": "bool"
        }
      ],
      "stateMutability": "view",
      "type": "function"
    },
    {
      "inputs": [],
      "name": "timeBuffer",
      "outputs": [
        {
          "internalType": "uint256",
          "name": "",
          "type": "uint256"
        }
      ],
      "stateMutability": "view",
      "type": "function"
    },
    {
      "inputs": [],
      "name": "token",
      "outputs": [
        {
          "internalType": "contract IToken",
          "name": "",
          "type": "address"
        }
      ],
      "stateMutability": "view",
      "type": "function"
    },
    {
      "inputs": [],
      "name": "totalMgtFeeUnclaimed",
      "outputs": [
        {
          "internalType": "uint256",
          "name": "",
          "type": "uint256"
        }
      ],
      "stateMutability": "view",
      "type": "function"
    },
    {
      "inputs": [],
      "name": "totalRedeemQueueTokens",
      "outputs": [
        {
          "internalType": "uint256",
          "name": "",
          "type": "uint256"
        }
      ],
      "stateMutability": "view",
      "type": "function"
    },
    {
      "inputs": [],
      "name": "treasury",
      "outputs": [
        {
          "internalType": "address",
          "name": "",
          "type": "address"
        }
      ],
      "stateMutability": "view",
      "type": "function"
    },
    {
      "inputs": [],
      "name": "trimDecimals",
      "outputs": [
        {
          "internalType": "uint8",
          "name": "",
          "type": "uint8"
        }
      ],
      "stateMutability": "view",
      "type": "function"
    },
    {
      "inputs": [],
      "name": "txFeeTo",
      "outputs": [
        {
          "internalType": "address",
          "name": "",
          "type": "address"
        }
      ],
      "stateMutability": "view",
      "type": "function"
    },
    {
      "inputs": [
        {
          "internalType": "uint256",
          "name": "_amount",
          "type": "uint256"
        },
        {
          "internalType": "enum TxType",
          "name": "_txType",
          "type": "uint8"
        }
      ],
      "name": "txsFee",
      "outputs": [
        {
          "internalType": "uint256",
          "name": "feeAmt",
          "type": "uint256"
        }
      ],
      "stateMutability": "view",
      "type": "function"
    },
    {
      "inputs": [],
      "name": "unpauseDeposit",
      "outputs": [],
      "stateMutability": "nonpayable",
      "type": "function"
    },
    {
      "inputs": [],
      "name": "unpauseRedeem",
      "outputs": [],
      "stateMutability": "nonpayable",
      "type": "function"
    },
    {
      "inputs": [
        {
          "internalType": "address",
          "name": "_address",
          "type": "address"
        }
      ],
      "name": "updateAssetRegistry",
      "outputs": [],
      "stateMutability": "nonpayable",
      "type": "function"
    },
    {
      "inputs": [
        {
          "internalType": "uint256",
          "name": "_delay",
          "type": "uint256"
        }
      ],
      "name": "updateConvertRedeemRequestsDelay",
      "outputs": [],
      "stateMutability": "nonpayable",
      "type": "function"
    },
    {
      "inputs": [
        {
          "internalType": "uint256",
          "name": "_rate",
          "type": "uint256"
        }
      ],
      "name": "updateDepositFeeRate",
      "outputs": [],
      "stateMutability": "nonpayable",
      "type": "function"
    },
    {
      "inputs": [
        {
          "internalType": "uint256",
          "name": "_bps",
          "type": "uint256"
        }
      ],
      "name": "updateDepositMaxDeviationBps",
      "outputs": [],
      "stateMutability": "nonpayable",
      "type": "function"
    },
    {
      "inputs": [
        {
          "internalType": "uint256",
          "name": "_depositMinimum",
          "type": "uint256"
        }
      ],
      "name": "updateDepositMinimum",
      "outputs": [],
      "stateMutability": "nonpayable",
      "type": "function"
    },
    {
      "inputs": [],
      "name": "updateEpoch",
      "outputs": [],
      "stateMutability": "nonpayable",
      "type": "function"
    },
    {
      "inputs": [
        {
          "internalType": "address",
          "name": "_account",
          "type": "address"
        },
        {
          "internalType": "bool",
          "name": "_flag",
          "type": "bool"
        }
      ],
      "name": "updateFirstDeposit",
      "outputs": [],
      "stateMutability": "nonpayable",
      "type": "function"
    },
    {
      "inputs": [
        {
          "internalType": "uint256",
          "name": "_amount",
          "type": "uint256"
        }
      ],
      "name": "updateFirstDepositAmount",
      "outputs": [],
      "stateMutability": "nonpayable",
      "type": "function"
    },
    {
      "inputs": [
        {
          "internalType": "uint256",
          "name": "_maxStalePeriod",
          "type": "uint256"
        }
      ],
      "name": "updateMaxStalePeriod",
      "outputs": [],
      "stateMutability": "nonpayable",
      "type": "function"
    },
    {
      "inputs": [
        {
          "internalType": "uint256",
          "name": "_rate",
          "type": "uint256"
        }
      ],
      "name": "updateMgtFeeRate",
      "outputs": [],
      "stateMutability": "nonpayable",
      "type": "function"
    },
    {
      "inputs": [
        {
          "internalType": "address",
          "name": "_address",
          "type": "address"
        }
      ],
      "name": "updateMgtFeeTo",
      "outputs": [],
      "stateMutability": "nonpayable",
      "type": "function"
    },
    {
      "inputs": [
        {
          "internalType": "uint256",
          "name": "_newValue",
          "type": "uint256"
        }
      ],
      "name": "updateOffchainShares",
      "outputs": [],
      "stateMutability": "nonpayable",
      "type": "function"
    },
    {
      "inputs": [
        {
          "internalType": "address",
          "name": "_address",
          "type": "address"
        }
      ],
      "name": "updatePriceOracle",
      "outputs": [],
      "stateMutability": "nonpayable",
      "type": "function"
    },
    {
      "inputs": [
        {
          "internalType": "address",
          "name": "_address",
          "type": "address"
        }
      ],
      "name": "updateRedeemAsset",
      "outputs": [],
      "stateMutability": "nonpayable",
      "type": "function"
    },
    {
      "inputs": [
        {
          "internalType": "uint256",
          "name": "_rate",
          "type": "uint256"
        }
      ],
      "name": "updateRedeemFeeRate",
      "outputs": [],
      "stateMutability": "nonpayable",
      "type": "function"
    },
    {
      "inputs": [
        {
          "internalType": "uint256",
          "name": "_bps",
          "type": "uint256"
        }
      ],
      "name": "updateRedeemMaxDeviationBps",
      "outputs": [],
      "stateMutability": "nonpayable",
      "type": "function"
    },
    {
      "inputs": [
        {
          "internalType": "uint256",
          "name": "_redeemMinimum",
          "type": "uint256"
        }
      ],
      "name": "updateRedeemMinimum",
      "outputs": [],
      "stateMutability": "nonpayable",
      "type": "function"
    },
    {
      "inputs": [
        {
          "internalType": "uint256",
          "name": "_timeBuffer",
          "type": "uint256"
        }
      ],
      "name": "updateTimeBuffer",
      "outputs": [],
      "stateMutability": "nonpayable",
      "type": "function"
    },
    {
      "inputs": [
        {
          "internalType": "address",
          "name": "_address",
          "type": "address"
        }
      ],
      "name": "updateTreasury",
      "outputs": [],
      "stateMutability": "nonpayable",
      "type": "function"
    },
    {
      "inputs": [
        {
          "internalType": "uint8",
          "name": "_decimals",
          "type": "uint8"
        }
      ],
      "name": "updateTrimDecimals",
      "outputs": [],
      "stateMutability": "nonpayable",
      "type": "function"
    },
    {
      "inputs": [
        {
          "internalType": "address",
          "name": "_address",
          "type": "address"
        }
      ],
      "name": "updateTxFeeTo",
      "outputs": [],
      "stateMutability": "nonpayable",
      "type": "function"
    },
    {
      "inputs": [
        {
          "internalType": "address",
          "name": "newImplementation",
          "type": "address"
        },
        {
          "internalType": "bytes",
          "name": "data",
          "type": "bytes"
        }
      ],
      "name": "upgradeToAndCall",
      "outputs": [],
      "stateMutability": "payable",
      "type": "function"
    },
    {
      "inputs": [],
      "name": "version",
      "outputs": [
        {
          "internalType": "string",
          "name": "",
          "type": "string"
        }
      ],
      "stateMutability": "pure",
      "type": "function"
    }
  ],
  "transactionHash": "0xdd2982ee3bc6a436261bf2de55ce079f6b767e03d482a420a80375e08215acb6",
  "args": [],
  "numDeployments": 2,
  "solcInputHash": "f980b190dfd0d31505a3ce5c60440123",
  "bytecode": "0x60a08060405234620000d157306080527ff0c57e16840df040f15088dc2f81fe391c3923bec73e23a9662efc9c229c6a009081549060ff8260401c16620000c257506001600160401b036002600160401b0319828216016200007c575b604051615c8a9081620000d68239608051818181611ce20152611e1a0152f35b6001600160401b031990911681179091556040519081527fc7f505b2f371ae2175ee4913f4499e1f2633a7b5936321eed1cdaeb6115181d290602090a15f80806200005c565b63f92ee8a960e01b8152600490fd5b5f80fdfe60806040526004361015610011575f80fd5b60e05f3560e01c908162e0c3af14613e1557816301ffc9a714613da557816302fc5a7a14613d46578163068aee761461380e57508063106d3e5c146137d6578063114063dc146137a4578063116186fd14613787578063184071ab146137305780631aed7134146136d25780631b45a827146136a55780631c28a9ce146132ff57806321406dc414612f0c578063248a9ca314612ed35780632630c12f14612eab5780632ac4e20514612e835780632b3c854514612e0c5780632d68e3b414612def5780632e63f65014612d7f5780632eac3f5614612d175780632f2ff15d14612c9a57806332ad8e2114612bbf57806332ec84d214612b6257806336568abe14612b1b57806336f4fb02146129a0578063389ed2671461296657806339d1fc82146128f65780633aecd0e3146128d35780633d80b57a146128755780633ea836d7146123f4578063439f33901461215157806347805e7114612104578063493b0170146120b75780634cdad506146120575780634e7fd8c41461202a5780634f1ef28614611da05780635157ced514611d3957806352d1902d14611cd0578063537f90ac14611ca8578063539ffb7714611bd557806354fd4d5014611b985780635872e6fa14611b7b5780635af5610414611b2f5780635c2d2bae14611a0f5780635d3795b0146119e85780635e5dfa26146118eb57806361d027b3146118c357806365b89f9f146115ae57806367f5c96b146114ea57806369026e8814611480578063697367da146114485780636ba3ccff146113705780636bf79fe2146113245780636c226918146113045780636e207b3f146112e057806371e06965146112c357806372fada5c146111815780637361e5ff14611164578063744d49cc146111475780637ae3fb151461112a5780637afea44f146111025780637db13f9d146110e55780637f51bb1f1461107d5780637fb9a8e114610fbb578063834e61a614610f9457806383c17e7b14610f35578063852cb9b814610f1857806386178cbc14610efb5780638c15336b14610ec35780639010d07c14610e7257806391d1485414610e1d57806392f35cc014610dbb5780639358928b14610d1d578063945ba9c014610d03578063979d7e8614610cdb57806398d5fdca14610cb95780639b8e5d6214610c6d5780639db60b6014610c50578063a19e42ad14610c33578063a217fddf14610c19578063a3246ad314610b64578063a7e5363714610b06578063a9fe6af114610aba578063ac4b3c0414610a7d578063ad3cb1cc14610a40578063af05816a146109c0578063af0ab0ec14610998578063af1dbe7c1461097b578063af3345d114610910578063b8f82b2614610896578063b908afa81461085c578063bbd0d4bb146107f4578063ca15c873146107be578063d547741f14610773578063d8eea57b14610756578063da834e1c14610724578063e06bacb714610703578063e3a1f58a146106ca578063ec91f2a4146106ad578063ecb366a514610661578063f5b541a61461063a578063f7f2f8241461060e578063f8742254146105d4578063f95446ff1461053e578063fa7c48be146104cb5763fc0c546a1461049f575f80fd5b346104c7575f3660031901126104c7576010546040516001600160a01b039091168152602090f35b5f80fd5b346104c75760203660031901126104c7576004356104e76149f8565b80156105265760207fab1c43268d0e1737a236a549d74fdaebc7513e3cd90337d101b9350d813e03699161051961546c565b80601855604051908152a1005b6024906040519063b80480b160e01b82526004820152fd5b346104c75760403660031901126104c75761055761406a565b602435908115158092036104c75761056d6149f8565b6001600160a01b03169081156105c25760207fc05a03d2d402b3ae95e70ed93216323f8a7af76ddc7ae766202e13691fd9e60c91835f52601d825260405f2060ff1981541660ff8316179055604051908152a2005b60405163e6c4247b60e01b8152600490fd5b346104c7575f3660031901126104c75760206040517f339759585899103d2ace64958e37e18ccb0504652c81d4a1b8aa80fe2126ab958152f35b346104c7575f3660031901126104c7576020805460018060801b03604051918181169060801c03168152f35b346104c7575f3660031901126104c75760206040515f80516020615bf58339815191528152f35b346104c75760203660031901126104c7577f0ec0335752791733f20f2ef37ca1e2bb7f883acf01e3d63e7b12bb06224134ea60206004356106a06149f8565b80600255604051908152a1005b346104c7575f3660031901126104c7576020601c54604051908152f35b346104c75760203660031901126104c7576106ff6106e96004356148e4565b94604098969894919493929351988998896141e9565b0390f35b346104c7575f3660031901126104c757602060ff5f54166040519015158152f35b346104c75760203660031901126104c7576106ff6107436004356147db565b92604096949692919251968796876141ae565b346104c7575f3660031901126104c7576020602854604051908152f35b346104c75760403660031901126104c7576107bc600435610792614080565b90805f525f80516020615c158339815191526020526107b7600160405f200154614b14565b6156a0565b005b346104c75760203660031901126104c7576004355f525f80516020615bb5833981519152602052602060405f2054604051908152f35b346104c75760203660031901126104c75761080d61406a565b6108156149f8565b6001600160a01b031680156105c257601380546001600160a01b031916821790557f9f8b73306f4b19055649376ef216ea71c7fdbf6359b09fc0a47a862ca2ceb8f45f80a2005b346104c7575f3660031901126104c75760206040517f88aa719609f728b0c5e7fb8dd3608d5c25d497efbb3b9dd64e9251ebba1015088152f35b346104c75760403660031901126104c7576108af61406a565b602435906106ff6108f36108ee6108e06108d96127106108d1600e548961453b565b048097614305565b809561450a565b6108e86145be565b906151ad565b61542b565b604051938493846040919493926060820195825260208201520152565b346104c7575f3660031901126104c757610928614ab9565b5f5460ff8160081c16156109695761ff0019165f557f0d9db45c3962f47b4d2fde7b2171293fb1cd2705b4e71d93c923ff4b7c6ac2106020604051338152a1005b604051630394089560e31b8152600490fd5b346104c7575f3660031901126104c7576020600254604051908152f35b346104c7575f3660031901126104c7576013546040516001600160a01b039091168152602090f35b346104c75760203660031901126104c7576004356109dc614a71565b8015610a2e577fb51a02b6da5e6417ddafd9c70128b98034bb20358f9ba7d9a66615c7f34559ed602060018060a01b03610a20848260115416836012541690615666565b6012541692604051908152a2005b60405163162908e360e11b8152600490fd5b346104c7575f3660031901126104c7576106ff604051610a5f81614110565b60058152640352e302e360dc1b602082015260405191829182614167565b346104c75760203660031901126104c7576001600160a01b03610a9e61406a565b165f52601d602052602060ff60405f2054166040519015158152f35b346104c75760203660031901126104c7577f88d6942dd4aec8fe9ee36fd90b2bfcecc8938a56c7b16b9a63d1156b42129b976020600435610af96149f8565b80600155604051908152a1005b346104c75760203660031901126104c757600435610b226149f8565b61271081116105265760207f87db42e021e402af8df2520433f1a46b907135d05a46f43873ef39381cd7ebb791610b5761546c565b80602e55604051908152a1005b346104c7576020806003193601126104c7576004355f525f80516020615bb5833981519152815260405f20604051908183825491828152019081925f52845f20905f5b86828210610c05578686610bbd8288038361412b565b60405192839281840190828552518091526040840192915f5b828110610be557505050500390f35b83516001600160a01b031685528695509381019392810192600101610bd6565b835485529093019260019283019201610ba7565b346104c7575f3660031901126104c75760206040515f8152f35b346104c7575f3660031901126104c7576020602e54604051908152f35b346104c7575f3660031901126104c7576020600354604051908152f35b346104c75760203660031901126104c7577f78e9d8803827bb414c95a9a88d753c02f0894387b896143ba8a577697703b1b46020600435610cac6149f8565b80601c55604051908152a1005b346104c7575f3660031901126104c7576020610cd36145be565b604051908152f35b346104c7575f3660031901126104c7576016546040516001600160a01b039091168152602090f35b346104c7575f3660031901126104c7576020610cd3614b70565b346104c7575f3660031901126104c7576010546040516318160ddd60e01b815290602090829060049082906001600160a01b03165afa908115610db0575f91610d7c575b6020610cd3610d738460295490614305565b601b5490614305565b90506020813d602011610da8575b81610d976020938361412b565b810103126104c75751610cd3610d61565b3d9150610d8a565b6040513d5f823e3d90fd5b346104c75760403660031901126104c75760243560028110156104c7575f9080610dfe5750506020612710610df5600e545b60043561453b565b04604051908152f35b600114610e14575b612710610df5602092610ded565b50600f54610e06565b346104c75760403660031901126104c757610e36614080565b6004355f525f80516020615c1583398151915260205260405f209060018060a01b03165f52602052602060ff60405f2054166040519015158152f35b346104c75760403660031901126104c7576004355f525f80516020615bb58339815191526020526020610eaa60243560405f20615a14565b905460405160039290921b1c6001600160a01b03168152f35b346104c75760203660031901126104c7576001600160a01b03610ee461406a565b165f52602c602052602060405f2054604051908152f35b346104c7575f3660031901126104c7576020601b54604051908152f35b346104c7575f3660031901126104c7576020600e54604051908152f35b346104c75760203660031901126104c757600435610f516149f8565b6127108110156105265760207f15fd39a9842453b6e6bf4962a0740551fa131ff449bb49771a3cf2cbe0c5258191610f8761546c565b80600e55604051908152a1005b346104c75760403660031901126104c7576020610cd3610fb261406a565b6024359061450a565b346104c75760203660031901126104c757610fd461406a565b335f9081527fb7db2dd08fcb62d0c9e08c51941cae53c267786a0b75803fb7960902fc8ef97d602052604090205460ff161561105f576001600160a01b039081169081156105c25761102461546c565b601e80546001600160a01b031981168417909155167fc7d4e5ad6888b83c1d5a268d8df5f455d496d22f82ffacc917158ed9f4579c405f80a3005b60405163e2517d3f60e01b81523360048201525f6024820152604490fd5b346104c75760203660031901126104c75761109661406a565b61109e6149f8565b6001600160a01b031680156105c257601280546001600160a01b031916821790557f1f54d231bb9d500b1923e4a1cb25e600f366a8368873d9af7c1c623814df19fc5f80a2005b346104c7575f3660031901126104c7576020602954604051908152f35b346104c7575f3660031901126104c757601e546040516001600160a01b039091168152602090f35b346104c7575f3660031901126104c7576020601554604051908152f35b346104c7575f3660031901126104c7576020600154604051908152f35b346104c7575f3660031901126104c7576020601854604051908152f35b346104c7576020806003193601126104c7576111b96004356111a16149f8565b825460018060801b03908181169060801c0316614b42565b805b6111c157005b6112bb7fe4ed2e08d33b82838e7d326fc82b629b29954c54ddc37ec2cef0b9f9f4b4989f7f225a8ce4bdb47853616aaf10240e5014a43f493cf960abe15ebeda938b2c01c79284611218611213614c4d565b615044565b97949298919396611227614d6a565b5060018060a01b03809a1697885f52601f885260405f20918b861692835f52895260405f20611257888254614305565b90555f19019b8c9b61126985896142e4565b9216988992835f52602d825260405f20855f52825260405f2061128d8282546142e4565b9055604051908152a360405193849384604091949392606082019560018060a01b0316825260208201520152565b0390a46111bb565b346104c7575f3660031901126104c7576020602f54604051908152f35b346104c7575f3660031901126104c757602060ff5f5460081c166040519015158152f35b346104c7575f3660031901126104c757602060ff602a5416604051908152f35b346104c75760203660031901126104c7577f9c63c7a89d6e596cfad39d0f94c3cae8e367bc89fceec71ed1fe1c7c3e1a412a60206004356113636149f8565b80602855604051908152a1005b346104c75760203660031901126104c75761138961406a565b6113916149f8565b6001600160a01b039081169081156105c25760205460018060801b0381818093169060801c03161590811591611431575b811561141b575b5061140957601180546001600160a01b031981168417909155167f4cd8a797db467b7d74c23605d41b25b7bedb8b15a07739f5757d86dbb4c25e615f80a3005b6040516313f3c6ef60e11b8152600490fd5b90506026548181169060801c03161515836113c9565b8091506023548181169060801c03161515906113c2565b346104c75760203660031901126104c7576001600160a01b0361146961406a565b165f526025602052602060405f2054604051908152f35b346104c7575f3660031901126104c757611498614ab9565b5f5460ff81166114d85760019060ff1916175f557faa27853e4d07821ee42110a94d5f4456886102d7f4e931ce3dbc19dc10a964b76020604051338152a1005b6040516304da00c760e11b8152600490fd5b346104c7576020806003193601126104c75761150461406a565b5f80516020615bf58339815191525f525f80516020615c15833981519152825260405f20335f52825260ff60405f2054165f146115a657905b6001600160a01b038281165f818152602c8452604090205490939192918115610a2e578161159d917faec371b55768f749c6fdeb0b1e4d33afb616a819d56bab146265032200f30cdd95875f52602c86525f604081205560105416615666565b604051908152a2005b50339061153d565b346104c75760403660031901126104c7576115c761406a565b6024359060ff5f5460081c166118b157816115e282336150b9565b6014546001600160a01b0393903390851603611882575050601b548015610a2e575f601b555b611619611613614b70565b826152c9565b6019549381851061187057611631826116d696614305565b601955611640836029546142e4565b602955611655838260105416309033906155ae565b831692835f526020906022825260405f206116718582546142e4565b9055602b54906116808261432d565b602b55604051918261169a8582019242888a873388614096565b03926116ae601f199485810183528261412b565b5190209687916116ca604051938492888a4292338b8801614096565b0383810183528261412b565b602354908160801c92600191600185019460018060801b038095168587161461185e575f526024865260405f20928151916001600160401b03831161184a5761171f8554614c15565b601f8111611811575b508791601f84116001146117af575061175993505f9190836117a4575b50508160011b915f199060031b1c19161790565b90555b6023549160018060801b03199060801b169116176023556040519283528201527f3fc8ec7e173535dace1c5610691842c60503d85340aa048e5d4ebb1bc7f69fc460403392a4005b015190508b80611745565b5f86815289812094958616915b8a8383106117fa575050509084600195949392106117e2575b505050811b01905561175c565b01515f1960f88460031b161c191690558a80806117d5565b8186978293949787015181550196019401906117bc565b61183a90865f52895f20601f860160051c8101918b8710611840575b601f0160051c0190614d0b565b8c611728565b909150819061182d565b634e487b7160e01b5f52604160045260245ffd5b604051638acb5f2760e01b8152600490fd5b604051633f9f927b60e01b8152600490fd5b600254808210611893575050611608565b6044925060405191632215018360e11b835260048301526024820152fd5b60405163fb85e2e160e01b8152600490fd5b346104c7575f3660031901126104c7576012546040516001600160a01b039091168152602090f35b346104c7576020806003193601126104c75761192460043561190b6149f8565b60235460018060801b03908181169060801c0316614b42565b805b61192c57005b817f3cd8bc7355138ebb02eb21e56ff9d04f7ef454845db77f833a51fba6c16d679a916119c861196261195d614e62565b6154c6565b968399949598939296915060018060a01b0380961696875f526022855260405f2061198e858254614305565b905561199d60199182546142e4565b905560296119ac848254614305565b9055601454898716961686146119d4575b5f19019889986156e2565b604051908152a4611926565b601b6119e18482546142e4565b90556119bd565b346104c75760403660031901126104c7576020610cd3611a0661406a565b602435906144c4565b346104c757611a1d366140c9565b9160ff5f5460081c166118b1578115610a2e576001600160a01b039081169283156105c25781601154168414611b1d5781601454163314611b0b57611a6281336150b9565b611a73611a6d614b70565b846152c9565b6019548181106118705781611a8791614305565b6019558260105416803b156104c7575f6040518092632770a7eb60e21b8252818381611ab78b3360048401614312565b03925af18015610db057611afc575b50604051938452602084015216907f302cf2863a0ac8a96cb9397243768756f5761f1846171a4b96a78aaad317bb9b60403392a4005b611b05906140fd565b85611ac6565b6040516326466ead60e21b8152600490fd5b6040516302c0c4b760e41b8152600490fd5b346104c75760203660031901126104c7577f79f00316e659c37e41be84c51287006473061bf5f0b4ccf1655a846feb17ffe36020600435611b6e6149f8565b80600355604051908152a1005b346104c7575f3660031901126104c7576020600f54604051908152f35b346104c7575f3660031901126104c7576106ff604051611bb781614110565b60058152640312e302e360dc1b602082015260405191829182614167565b346104c7576020806003193601126104c757611c0e600435611bf56149f8565b60265460018060801b03908181169060801c0316614b42565b805b611c1657005b60407f8e75e4602a61724452ac22b58a51d6160d095f6e8bd76358bb542a70536ba057611c9892611c4d611c48614f49565b615606565b98959699949a9250505088919560018060a01b0380961696875f5260258c52845f20611c7a858254614305565b90556029611c89858254614305565b90556119ac60199182546142e4565b81519081525f89820152a4611c10565b346104c7575f3660031901126104c7576011546040516001600160a01b039091168152602090f35b346104c7575f3660031901126104c7577f00000000000000000000000000000000000000000000000000000000000000006001600160a01b03163003611d275760206040515f80516020615bd58339815191528152f35b60405163703e46dd60e11b8152600490fd5b346104c7575f3660031901126104c757611d51614ab9565b5f5460ff811615611d8e5760ff19165f557f431857afdb66920f33099b7531738ef4c462ba486c7c39b3b76a1c48ad045e886020604051338152a1005b6040516386e9e3a960e01b8152600490fd5b60403660031901126104c757611db461406a565b60249081356001600160401b0381116104c757366023820112156104c7578060040135611de08161414c565b92611dee604051948561412b565b81845260209182850193368783830101116104c757815f92888693018737860101526001600160a01b037f0000000000000000000000000000000000000000000000000000000000000000811630811490811561200f575b50611d27577f88aa719609f728b0c5e7fb8dd3608d5c25d497efbb3b9dd64e9251ebba101508805f525f80516020615c15833981519152845260405f20335f52845260ff60405f20541615611ff2575081169384156105c2576040516352d1902d60e01b81528381600481895afa5f9181611fc3575b50611ed957604051634c9c8ce360e01b8152600481018790528790fd5b8590875f80516020615bd583398151915291828103611fae5750843b15611f98575080546001600160a01b03191682179055604051907fbc7cd75a20ee27fd9adebab32041f755214dbc6bffa90cc0225b39da2e5c2d3b5f80a2815115611f7d57505f6107bc9481925190845af4903d15611f74573d611f588161414c565b90611f66604051928361412b565b81525f81943d92013e615b51565b60609250615b51565b935050505034611f8957005b63b398979f60e01b8152600490fd5b604051634c9c8ce360e01b815260048101849052fd5b60405190632a87526960e21b82526004820152fd5b9091508481813d8311611feb575b611fdb818361412b565b810103126104c757519088611ebc565b503d611fd1565b866044916040519163e2517d3f60e01b8352336004840152820152fd5b9050815f80516020615bd58339815191525416141587611e46565b346104c7575f3660031901126104c757602060235460018060801b03604051918181169060801c03168152f35b346104c75760203660031901126104c75761209a6120736145be565b6011546001600160a01b03169061209590612090600435846144c4565b6152c9565b61551a565b6127106120a9600f548361453b565b046106ff6108f38284614305565b346104c75760403660031901126104c7576120d061406a565b6120d8614080565b9060018060a01b038091165f52601f60205260405f2091165f52602052602060405f2054604051908152f35b346104c75760403660031901126104c75761211d61406a565b612125614080565b9060018060a01b038091165f52602d60205260405f2091165f52602052602060405f2054604051908152f35b346104c75760203660031901126104c75761216a614a71565b60265461219090600435906001600160801b0380821660809290921c9190910316614b42565b5f905b80821061219c57005b6026546001600160801b0381169060801c81146123e2575f52602760205260405f20604051905f908054906121d082614c15565b80855291600181169081156123bb5750600114612382575b505090611c48816121fa93038261412b565b969580939992945061220d9150866150b9565b601154612222906001600160a01b031661445b565b88116107bc57600190612233614f49565b50818060a01b0383165f52602560205260405f20612252868254614305565b90556029612261868254614305565b9055601054910197906001600160a01b0316803b156104c7575f6040518092632770a7eb60e21b825281838161229b8b3060048401614312565b03925af18015610db057612373575b5082612316575b906122df7f2e0e5d94dc6418049d1cfa54b68fd4d383f99d91bd0a05b6216dd074a2b8db3493604093614305565b6011546122f890829084906001600160a01b0316615666565b825194855260208501526001600160a01b03908116941692a4612193565b6013549091906001600160a01b031680156105c257836040936123687f2e0e5d94dc6418049d1cfa54b68fd4d383f99d91bd0a05b6216dd074a2b8db34966122df9460018060a01b0360115416615666565b9293509350506122b1565b61237c906140fd565b886122aa565b5f908152602081209092505b8183106123a55750508101602001611c48826121e8565b600181602092548386880101520192019161238e565b60ff191660208087019190915292151560051b85019092019250611c4891508390506121e8565b604051631ed9509560e11b8152600490fd5b346104c7576101e03660031901126104c75761240e61406a565b612416614080565b90604435906001600160a01b03821682036104c757606435906001600160a01b03821682036104c757608435916001600160a01b03831683036104c75760a4356001600160a01b03811690036104c75760c4356001600160a01b03811681036104c75760e435906001600160a01b03821682036104c7576060366101231901126104c75760405194606086018681106001600160401b0382111761184a576040908152610124358752610144356020880152610164359087015261018435936001600160a01b03851685036104c7575f80516020615c3583398151915254976001600160401b0389161580612867575b60016001600160401b038b1614908161285d575b159081612854575b506128425760016001600160401b03198a16175f80516020615c358339815191525560ff8960401c1615612816575b60a4356001600160a01b0316158015612805575b80156127f4575b80156127e3575b80156127d2575b80156127c1575b80156127b0575b801561279f575b801561278e575b6105c257612710806101a43511612773576101c435116127585760ff5f80516020615c358339815191525460401c16156127465760ff9960018060a01b03199760018060a01b031688601054161760105560018060a01b031687601154161760115560018060a01b031686601254161760125560018060a01b031685601354161760135560018060a01b031684601454161760145560018060a01b031683601654161760165560018060a01b03168260175416176017556101043560185560018060a01b031690601e541617601e556101a435602e556101c435602f55805190604060208201519101519160015560025560035561269560a43561586e565b6126f7575b60401c16156126a557005b60ff60401b195f80516020615c3583398151915254165f80516020615c35833981519152557fc7f505b2f371ae2175ee4913f4499e1f2633a7b5936321eed1cdaeb6115181d2602060405160018152a1005b5f80525f80516020615bb583398151915260205261274060a4356001600160a01b03167f615f0f9e84155bea8cc509fe18befeb1baf65611e38a6ba60964480fb29dfd44615a29565b5061269a565b604051631afcd79f60e31b8152600490fd5b60405163b80480b160e01b81526101c4356004820152602490fd5b60405163b80480b160e01b81526101a4356004820152602490fd5b506001600160a01b03861615612596565b506001600160a01b0385161561258f565b506001600160a01b03841615612588565b506001600160a01b03831615612581565b506001600160a01b0382161561257a565b506001600160a01b03811615612573565b506001600160a01b038a161561256c565b506001600160a01b03871615612565565b68ffffffffffffffffff19891668010000000000000001175f80516020615c3583398151915255612551565b60405163f92ee8a960e01b8152600490fd5b9050158b612522565b303b15915061251a565b5060ff8960401c1615612506565b346104c75760203660031901126104c7576004356128916149f8565b61289961546c565b6019548160195560405191825260208201527f072dec8a1ca7f54ab6def34edb0906b2851ec9fc1876f868afea56f49dbe99cf60403392a2005b346104c75760203660031901126104c7576020610cd36128f161406a565b61445b565b346104c75760203660031901126104c75761290f61406a565b6129176149f8565b6001600160a01b031680156105c25761292e61546c565b601780546001600160a01b031916821790557f87d3dc004826fc71bc569232df26f4f063b08fae6485f0b5842a1b74839833c55f80a2005b346104c7575f3660031901126104c75760206040517f139c2898040ef16910dc9f44dc697df79363da767d8bc92f2e310312b816e46d8152f35b346104c7575f3660031901126104c7576129b8614a71565b6015548015612b09576019548015610a2e576014546001600160a01b039081169290919083156105c257601a548015159081612af3575b50612adb576129fd9161524e565b612a116108ee612a0b614b70565b836151ad565b9182612a5c575b42601a556019546040805184815260208101869052908101919091527f81fd6bca37e58d91273f72fc2387697efca0b1e4e4ad10eabfc19b502a004ea690606090a1005b612a6883601b546142e4565b601b5560105416803b156104c757825f91612a9a95836040518098819582946340c10f1960e01b845260048401614312565b03925af1928315610db0577f81fd6bca37e58d91273f72fc2387697efca0b1e4e4ad10eabfc19b502a004ea69315612a1857612ad5906140fd565b83612a18565b604051638a8de4c160e01b8152426004820152602490fd5b612b019150601c54906142e4565b4210856129ef565b6040516342c897ab60e11b8152600490fd5b346104c75760403660031901126104c757612b34614080565b336001600160a01b03821603612b50576107bc906004356156a0565b60405163334bd91960e11b8152600490fd5b346104c7575f3660031901126104c757612b7a614ab9565b5f5460ff8160081c166118b1576101009061ff001916175f557fa6d97758fdd366a7e54931f3bc73f430fdd99e9d3cc3aa0e23678865924ed1716020604051338152a1005b346104c75760403660031901126104c757612bd861406a565b612be0614080565b335f9081527f448256db8f8fb95ee3eaaf89c1051414494e85cebb6057fcf996cc3d0ccfb45660209081526040909120549192909160ff1615612c93575b60018060a01b039182821692835f52602d825260405f20941693845f52815260405f20548015610a2e57612c8a817f784051df217d2557b77e4d8c870e178688f30dc6a38faf1843ae9901c5e7907294865f52602d855260405f20885f5285525f604081205587615666565b604051908152a3005b5033612c1e565b346104c75760403660031901126104c757600435612cb6614080565b815f525f80516020615c15833981519152602052612cda600160405f200154614b14565b612ce4818361590b565b612cea57005b5f9182525f80516020615bb583398151915260205260409091206107bc916001600160a01b031690615a29565b346104c75760203660031901126104c757612d3061406a565b612d386149f8565b6001600160a01b031680156105c257601680546001600160a01b031916821790557f65ca825465928446650ab07bc502ff95cf538bff54223153a0c65dab200d181d5f80a2005b346104c75760203660031901126104c75760043560ff81168091036104c757612da66149f8565b601281116105265760207f1d258b530b974ffedbfd6bf55be447cbf3f1231b27cf1537c3a381013ac3b4e591612dda61546c565b8060ff19602a541617602a55604051908152a1005b346104c7575f3660031901126104c7576020601a54604051908152f35b346104c75760203660031901126104c757612e2561406a565b612e2d6149f8565b6001600160a01b031680156105c257601b54610a2e57612e4b61546c565b601480546001600160a01b031916821790557f376c3c920d50305f3c033260f2e82b8a5a7867040f01c6c2e9db258bced057ff5f80a2005b346104c7575f3660031901126104c7576014546040516001600160a01b039091168152602090f35b346104c7575f3660031901126104c7576017546040516001600160a01b039091168152602090f35b346104c75760203660031901126104c7576004355f525f80516020615c158339815191526020526020600160405f200154604051908152f35b346104c75760203660031901126104c757612f25614a71565b60268054612f4c90600435906001600160801b0380821660809290921c9190910316614b42565b905f915b808310612f5957005b8154608081901c906001600160801b031681146123e2575f1981016001600160801b03165f90815260276020526040902090604051915f90805490612f9d82614c15565b80865291600181169081156132d8575060011461329f575b50508261309392612fcf61306f989561301794038361412b565b5f1981016001600160801b03165f908152602760205260409020612ff290614d21565b86546001600160801b03165f1990910160801b6001600160801b031916178655615606565b97925093949a8b9150859360018060a01b0383165f52602560205260405f20613041868254614305565b90558761306f61307d602b8054906130588261432d565b90556040519283918b878c8b60208701998a614096565b03601f19810183528261412b565b5190209586916040519687958b60208801614096565b602354906001600160801b038083165f190116608083901c1461185e576001600160801b038281165f1901165f9081526024602081905260409091208251909290916001600160401b03831161328c57506130ee8354614c15565b90601f91828111613254575b5060209183116001146131c45792613154837f5c0a1bb4c5c5597fe6d4e951f4be32638cb90aaf54d28f160906137579e3eb47979460019d9e9f9694604098955f926131b95750508160011b915f199060031b1c19161790565b90555b898060801b03905f19908b8060801b03160116898060801b03196023541617602355888060a01b0382165f526022602052825f206131968682546142e4565b90558251948552602085015260a088901b889003908116941692a4019190612f50565b015190505f80611745565b90835f5260205f20915f5b601f198516811061323c5750836040969360019d9e9f96938e937f5c0a1bb4c5c5597fe6d4e951f4be32638cb90aaf54d28f160906137579e3eb479a97601f19811610613224575b505050811b019055613157565b01515f1960f88460031b161c191690558f8080613217565b919260206001819286850151815501940192016131cf565b61327d90855f5260205f20600585808801821c83019360208910613283575b01901c0190614d0b565b8d6130fa565b93508293613273565b634e487b7160e01b5f9081526041600452fd5b5f908152602081209092505b8183106132c2575050820160200182613093612fb5565b60018160209254838689010152019201916132ab565b60ff191660208088019190915292151560051b860190920192508491506130939050612fb5565b346104c75761330d366140c9565b909160ff5f54166114d8578215610a2e5761332882336150b9565b613332838261450a565b335f52601d60205260ff60405f205416155f1461367657600354808210613658575050335f52601d60205260405f20600160ff198254161790555b61338761271061337f600e548661453b565b048094614305565b9183613635575b60018060a01b0390818316946133aa85846012541633896155ae565b8282165f52601f60205260405f20865f5260205260405f206133cd8682546142e4565b9055602b546133db8161432d565b602b55604051906020820197885233604083015284841660608301528660808301528260a08301524260c083015260e082015260e081526101009681888101106001600160401b03898401111761184a5787820160405281519020966134658261344e8a868b89338d61012088016141ae565b0361011f1981018385015260ff190182840161412b565b602054908160801c92600191600185019460018060801b038095168587161461185e575f52602160205260405f209281830151926001600160401b03841161184a576134b18554614c15565b601f8111613605575b50602091601f851160011461356d5750928061355b979593613518937fd4886c8ecbbbb153c535e6680171548d301bae2e1ce46572f589f2636dcddae69c9b9a98965f93613560575b5050508160011b915f199060031b1c19161790565b90555b6020549160018060801b03199060801b169116176020556040519384931696339684604091949392606082019560018060a01b0316825260208201520152565b0390a4005b01015190508e8080613503565b929190601f198516865f5260205f20945f905b8282106135ea57505092859261355b999795927fd4886c8ecbbbb153c535e6680171548d301bae2e1ce46572f589f2636dcddae69d9c9b9997600196106135d0575b50505050811b01905561351b565b0101515f1960f88460031b161c191690558d8080806135c2565b9093956020828192888a880101518155019701940190613580565b61362f90865f5260205f20601f870160051c8101916020881061184057601f0160051c0190614d0b565b8d6134ba565b6013546136539085906001600160a01b0390811690339086166155ae565b61338e565b6044925060405191630303043d60e11b835260048301526024820152fd5b60015480821061368757505061336d565b6044925060405191630accab7560e31b835260048301526024820152fd5b346104c7575f3660031901126104c757602060265460018060801b03604051918181169060801c03168152f35b346104c75760203660031901126104c7576004356136ee6149f8565b61271081116105265760207f3756544c9bfc1b5dbdab9b5a9efded1f262031f354497c8ee1dee4f072a6270e9161372361546c565b80602f55604051908152a1005b346104c75760203660031901126104c75760043561374c6149f8565b612710811015610526576020817f9493bfd12384a15ebc22c09e4d9b63175676183407638e776f02958251115d9892601555604051908152a1005b346104c7575f3660031901126104c7576020601954604051908152f35b346104c75760203660031901126104c7576106ff6137c360043561433b565b9260409694969291925196879687614096565b346104c75760203660031901126104c7576001600160a01b036137f761406a565b165f526022602052602060405f2054604051908152f35b346104c75761381c36614054565b91613825614a71565b6017546001600160a01b0390811615801590613d3f576138436145be565b945b61384e85614273565b9061385886614241565b925f945f955b88871080613d24575b15613d16576023546001600160801b0381169060801c81146123e2575f5260206024815260405f20916040515f93818154956138a287614c15565b928383526001978789821691825f14613cf6575050600114613cb6575b506138cc9250038261412b565b6138e86138d8826154c6565b50602898949295919854906142e4565b4210613951579188826139046022946139499a999897966150b9565b61390c614e62565b50165f525261392060405f20918254614305565b905561392c8b8a6142bc565b526139378a896142bc565b50816139438b8b6142bc565b526142e4565b96019561385e565b505050505097995050509790959192955b8715613ca457613c6b575b5f5b87811061397857005b6139b1866139aa8b87858a6139bc61399a8f84613994916142bc565b516154c6565b9c949b9398929a919790966142bc565b519061533c565b85601154169061551a565b6127106139cb600f548361453b565b0490602b8054906139db8261432d565b905560405196808a166020890152861660408801528760608801528460808801528160a08801528260c0880152838d8801524261010088015261012090818801528652856101408101106001600160401b036101408801111761184a5761014086016040528551602087012093613a7d938793613a619387938b8a8e6101608a016141e9565b0361015f19810161014086015261013f1901610140850161412b565b602654608081901c6001016001600160801b039081169082161461185e578f938160801c5f52602760205260405f2090610140810151906001600160401b03821161184a57613acc8354614c15565b90601f91828111613c3d575b506020918311600114613ba15793879493613b37847f90fc574b123f45abe08227e135fa657ee5eaa872d933f801b02c4b477fef2ffe999560019f9e9d9c9b979560609a965f92613b925750508160011b915f199060031b1c19161790565b90555b602654908c808060801b03199160801c0160801b16908c8060801b0316176026558282165f52602560205260405f20613b748882546142e4565b90556040519687528b6020880152604087015216941692a40161396f565b61014092500101515f80611745565b835f5260205f20915f5b601f1985168110613c2157509360018460609894829f9e9d9c9b989489987f90fc574b123f45abe08227e135fa657ee5eaa872d933f801b02c4b477fef2ffe9c98601f19811610613c04575b505050811b019055613b3a565b0161014001515f19600384901b60f8161c191690555f8080613bf7565b9092602060018192610140878701015181550194019101613bab565b613c6590855f5260205f20600585808801821c830193602089106132835701901c0190614d0b565b5f613ad8565b613c9f613c95613c82613c7c614b70565b846151ad565b6120958b60115416916120908a846144c4565b602f5490856153b0565b61396d565b60405163101cced560e21b8152600490fd5b9150505f528184805f2092875f945b828610613cdc575050506138cc928201015f6138bf565b809192945054838688010152019201918391878792613cc5565b60ff1916858201526138cc95151560051b85010192505f91506138bf9050565b959750979095919295613962565b50602354608081901c6001600160801b039091161415613867565b5f94613845565b346104c75760203660031901126104c757600435613d626149f8565b6127108110156105265760207f733e693c60df0885a62c1b61a23e7db41f7fc77eabb45436fbb3546960ed399091613d9861546c565b80600f55604051908152a1005b346104c75760203660031901126104c75760043563ffffffff60e01b81168091036104c757602090635a05180f60e01b8114908115613dea575b506040519015158152f35b637965db0b60e01b811491508115613e04575b5082613ddf565b6301ffc9a760e01b14905082613dfd565b346104c757613e2336614054565b90613e2c6149f8565b8115610a2e57613e4f9060205460018060801b03908181169060801c0316614b42565b90613e58614b70565b5f91613e6384614241565b92613e6d85614273565b925f5b868110613ff65750601754613e9f91613e96916001600160a01b0316613fca57846151ad565b926019546142e4565b6019555f5b858110613ead57005b80613f17836108ee88613f10613ecc613ec6878c6142bc565b51615044565b99949793989295919b909660018060a01b0387165f52601f60205260405f2060018060a01b038a165f526020528c613f0960405f20918254614305565b90556142bc565b518c61533c565b6010546001600160a01b031692909190833b156104c7575f60405180956340c10f1960e01b8252818381613f4f898960048401614312565b03925af1928315610db0576001997f7cb49d9b9ce6d549a701248854a728158fbabf61a41f30f84559eb7ee32bd48b95608095613fbb575b50604051968b8060a01b03168752602087015260408601526060850152878060a01b031693878060a01b031692a401613ea4565b613fc4906140fd565b5f613f87565b613ff1613fe7613fd8614b70565b613fe06145be565b908761533c565b602e5490876153b0565b613c7c565b9161404d60019161404161403c61403361400e614c4d565b614016614d6a565b50806140228a8d6142bc565b5261402d898c6142bc565b50615044565b505093916150b9565b61450a565b9081613943878b6142bc565b9201613e70565b60409060031901126104c7576004359060243590565b600435906001600160a01b03821682036104c757565b602435906001600160a01b03821682036104c757565b9260a09491979695929760c0850198600180881b0380921686521660208501526040840152606083015260808201520152565b60609060031901126104c7576001600160a01b0360043581811681036104c757916024359160443590811681036104c75790565b6001600160401b03811161184a57604052565b604081019081106001600160401b0382111761184a57604052565b90601f801991011681019081106001600160401b0382111761184a57604052565b6001600160401b03811161184a57601f01601f191660200190565b602080825282518183018190529093925f5b82811061419a57505060409293505f838284010152601f8019910116010190565b818101860151848201604001528501614179565b6001600160a01b039182168152918116602083015290911660408201526060810191909152608081019190915260a081019190915260c00190565b949198979693909260e0969361010087019a60018060a01b03809216885216602087015260408601526060850152608084015260a083015260c08201520152565b6001600160401b03811161184a5760051b60200190565b9061424b8261422a565b614258604051918261412b565b8281528092614269601f199161422a565b0190602036910137565b9061427d8261422a565b61428a604051918261412b565b828152809261429b601f199161422a565b01905f5b8281106142ab57505050565b80606060208093850101520161429f565b80518210156142d05760209160051b010190565b634e487b7160e01b5f52603260045260245ffd5b919082018092116142f157565b634e487b7160e01b5f52601160045260245ffd5b919082039182116142f157565b6001600160a01b039091168152602081019190915260400190565b5f1981146142f15760010190565b6023546001600160801b03918282169160801c8281148015614443575b61443157828491031681101561441f57821601165f526020906024825260405f2091604051905f93805461438b81614c15565b808552916001918083169081156143fd57506001146143c1575b5050505061195d816143b99394038261412b565b909192939495565b5f908152838120939650925b8284106143ea5750505081019092019161195d816143b95f6143a5565b80548585018801529286019281016143cd565b60ff191686860152505050151560051b820101925061195d816143b95f6143a5565b604051632d0483c560e21b8152600490fd5b505050505f905f905f905f905f905f90565b5083838203165f1981019081116142f1578211614358565b6040516370a0823160e01b815230600482015290602090829060249082906001600160a01b03165afa908115610db0575f91614495575090565b90506020813d6020116144bc575b816144b06020938361412b565b810103126104c7575190565b3d91506144a3565b6016546040516305d3795b60e41b81529260209284926001600160a01b031691839182916144f59160048401614312565b03915afa908115610db0575f91614495575090565b6016546040516341a730d360e11b81529260209284926001600160a01b031691839182916144f59160048401614312565b818102929181159184041417156142f157565b8115614558570490565b634e487b7160e01b5f52601260045260245ffd5b519069ffffffffffffffffffff821682036104c757565b908160209103126104c7575160ff811681036104c75790565b60ff166012039060ff82116142f157565b60ff16604d81116142f157600a0a90565b6017546001600160a01b03169081156147ce5760408051633fabe5a360e21b815260049360a0828681845afa80156147c4575f80935f905f9361476e575b505f8513156147575761460f8142614305565b60185480911161472d57505069ffffffffffffffffffff80911691168181106147115750506020859184519283809263313ce56760e01b82525afa92831561470857505f926146d7575b50809360ff8316601281105f1461468c575050509161468361467e614689939461459c565b6145ad565b9061453b565b90565b909192506012811161469e575b505050565b9293509091601119019060ff82116146c45750906146be614689926145ad565b9061454e565b601190634e487b7160e01b5f525260245ffd5b6146fa91925060203d602011614701575b6146f2818361412b565b810190614583565b905f614659565b503d6146e8565b513d5f823e3d90fd5b604491879186519263014382d760e01b84528301526024820152fd5b8651631d0de0e960e11b8152808a0192835242602084015260408301919091529081906060010390fd5b85516338ee04a760e01b8152808901869052602490fd5b945050505060a0823d60a0116147bc575b8161478c60a0938361412b565b810103126104c75761479d8261456c565b60208301516147b360806060860151950161456c565b9190935f6145fc565b3d915061477f565b83513d5f823e3d90fd5b670de0b6b3a76400009150565b602080549092916001600160801b0391828116919060801c82811480156148cc575b6148b957828491031681101561441f57821601165f526021825260405f2091604051905f93805461482d81614c15565b80855291600191808316908115614897575060011461485b575b50505050611213816143b99394038261412b565b5f908152838120939650925b82841061488457505050810190920191611213816143b95f614847565b8054858501880152928601928101614867565b60ff191686860152505050151560051b8201019250611213816143b95f614847565b505f945084938493508392508291508190565b5083838203165f1981019081116142f15782116147fd565b6026546001600160801b03918282169160801c82811480156149e0575b6149ca57828491031681101561441f57821601165f526020906027825260405f2091604051905f93805461493481614c15565b808552916001918083169081156149a8575060011461496c575b50505050611c48816149629394038261412b565b9091929394959697565b5f908152838120939650925b82841061499557505050810190920191611c48816149625f61494e565b8054858501880152928601928101614978565b60ff191686860152505050151560051b8201019250611c48816149625f61494e565b505050505f905f905f905f905f905f905f905f90565b5083838203165f1981019081116142f1578211614901565b335f9081527faddc3d4c084f57c5cf32364b1ec8bfe37ef7025c438343cdee471594955c845c60205260409020547f339759585899103d2ace64958e37e18ccb0504652c81d4a1b8aa80fe2126ab959060ff1615614a535750565b6044906040519063e2517d3f60e01b82523360048301526024820152fd5b335f9081527f448256db8f8fb95ee3eaaf89c1051414494e85cebb6057fcf996cc3d0ccfb45660205260409020545f80516020615bf58339815191529060ff1615614a535750565b335f9081527f85aa68ae9688c2bba3dc27a57a38bf2786c03751927fe89ecfd8b396d55ff13360205260409020547f139c2898040ef16910dc9f44dc697df79363da767d8bc92f2e310312b816e46d9060ff1615614a535750565b805f525f80516020615c1583398151915260205260405f20335f5260205260ff60405f20541615614a535750565b908115614b5e578181116105265780614b59575090565b905090565b6040516331dcf2b560e01b8152600490fd5b6010546040516318160ddd60e01b815290602090829060049082906001600160a01b03165afa8015610db0575f90614be1575b614bb1915060295490614305565b6019549081158015614bd9575b614bcb57614689916151ad565b5050670de0b6b3a764000090565b508015614bbe565b506020813d602011614c0d575b81614bfb6020938361412b565b810103126104c757614bb19051614ba3565b3d9150614bee565b90600182811c92168015614c43575b6020831014614c2f57565b634e487b7160e01b5f52602260045260245ffd5b91607f1691614c24565b602080546001600160801b0381169060801c81146123e2575f526021815260405f209060405180925f908054614c8281614c15565b80855291600191808316908115614ce95750600114614cab575b5050506146899250038261412b565b5f90815285812095935091905b818310614cd157505061468993508201015f8080614c9c565b85548784018501529485019486945091830191614cb8565b9250505061468994925060ff191682840152151560051b8201015f8080614c9c565b818110614d16575050565b5f8155600101614d0b565b614d2b8154614c15565b9081614d35575050565b81601f5f9311600114614d475750555b565b908083918252614d66601f60208420940160051c840160018501614d0b565b5555565b602080546001600160801b0380821693929160801c84146123e257835f526021825260405f20604051905f908054614da181614c15565b91828552600191876001821691825f14614e3c575050600114614dfc575b50505090614dd181600193038261412b565b94805f5260218452614de560405f20614d21565b83546001600160801b031916910191909116179055565b86929493505f52815f20935f915b818310614e2557509293508301019050614dd1826001614dbf565b855485840185015294850194879390920191614e0a565b60ff19168782015293151560051b86019093019350614dd1925084915060019050614dbf565b6023546001600160801b03808216929160801c83146123e257825f526020926024845260405f2060405190855f918054614e9b81614c15565b80865291600191808316908115614f285750600114614ef0575b5050505081614ecb60019493602493038261412b565b95825f5252614edc60405f20614d21565b011660018060801b03196023541617602355565b5f908152838120939450925b828410614f155750505082010185614ecb836024614eb5565b8054868501860152928401928101614efc565b60ff191685880152505050151560051b830101905085614ecb836024614eb5565b6026546001600160801b03808216929160801c83146123e257825f526020926027845260405f2060405190855f918054614f8281614c15565b8086529160019180831690811561500f5750600114614fd7575b5050505081614fb260019493602793038261412b565b95825f5252614fc360405f20614d21565b011660018060801b03196026541617602655565b5f908152838120939450925b828410614ffc5750505082010185614fb2836027614f9c565b8054868501860152928401928101614fe3565b60ff191685880152505050151560051b830101905085614fb2836027614f9c565b51906001600160a01b03821682036104c757565b60c0818051810103126104c75761505d60208201615030565b9061506a60408201615030565b9061507760608201615030565b608082015160a083015160c0909301516001600160a01b0395861696948616959092169390929190565b908160209103126104c7575180151581036104c75790565b601e546040516351b7995160e01b8082526001600160a01b03938416600483018190529492602092908516908381602481855afa908115610db0575f91615190575b5015918215615131575b5050905061511257505050565b604493506040519263506d0cad60e01b84526004840152166024820152fd5b83919250602460405180948193825288881660048301525afa918215610db0575f92615163575b505015805f80615105565b6151829250803d10615189575b61517a818361412b565b8101906150a1565b5f80615158565b503d615170565b6151a79150843d86116151895761517a818361412b565b5f6150fb565b670de0b6b3a7640000915f19838309928083029283808610950394808603951461524157848311156152295790829109815f038216809204600280826003021880830282030280830282030280830282030280830282030280830282030280920290030293600183805f03040190848311900302920304170290565b82634e487b715f52156003026011186020526024601cfd5b505090614689925061454e565b905f19818309818302918280831092039180830392146152bd576237b1d090828211156152ab577f867a0af7e2ab9f0c0ffc082c8e3568db4221300d16d8c17e27da803703ab1f35940990828211900360fc1b910360041c170290565b634e487b715f5260116020526024601cfd5b50506237b1d091500490565b905f198183098183029182808310920391808303921461532b57670de0b6b3a764000090828211156152ab577faccb18165bd6fe31ae1cf318dc5b51eee0e1ba569b88cd74c1773b91fac10669940990828211900360ee1b910360121c170290565b5050670de0b6b3a764000091500490565b90915f19838309928083029283808610950394808603951461524157848311156152295790829109815f038216809204600280826003021880830282030280830282030280830282030280830282030280830282030280920290030293600183805f03040190848311900302920304170290565b90918215614699578282111561541c576153ca8383614305565b612710908181029181830414901517156142f1576153e8828561453b565b106153f257505050565b6040516373de20e360e11b8152600481019290925260248201929092526044810191909152606490fd5b6154268284614305565b6153ca565b60ff602a541680158015615461575b61545d579061545861545161467e6146899461459c565b809261454e565b61453b565b5090565b50601281101561543a565b60205460018060801b0381818093169060801c031615908115916154af575b8115615499575b5061140957565b90506026548181169060801c031615155f615492565b8091506023548181169060801c031615159061548b565b60c0818051810103126104c7576154df60208201615030565b906154ec60408201615030565b6060820151608083015160a084015160c0909401516001600160a01b03958616969590931694919390929091565b60405163313ce56760e01b81529091602090829060049082906001600160a01b03165afa908115610db0575f9161558f575b5060ff602a54169081158015615582575b61557d5760ff16039060ff82116142f157615458615451614689936145ad565b505090565b5060ff811682101561555d565b6155a8915060203d602011614701576146f2818361412b565b5f61554c565b6040516323b872dd60e01b60208201526001600160a01b03928316602482015292909116604483015260648083019390935291815260a08101918183106001600160401b0384111761184a57614d4592604052615814565b808051610100918291810103126104c75761562360208301615030565b9161563060408201615030565b9160608201519160808101519160a08201519160c08101519160e082015191015190919293949560018060a01b03809116971697565b61569b614d45939261568d60405194859263a9059cbb60e01b602085015260248401614312565b03601f19810184528361412b565b615814565b6156aa8282615995565b91826156b557505090565b5f9182525f80516020615bb5833981519152602052604090912061545d916001600160a01b031690615a8c565b60018060a01b0380601054169260408051936397f735d560e01b85528381169485600482015260209485826024818b5afa91821561580a579086915f936157eb575b508215806157de575b61578a575b50501561577c5750837fd604c4aa8443183c454fbe4d921c075e9d202293b578769470beb611cd13b4ea9495505f52602c8352805f206157738382546142e4565b905551908152a2565b9250509150614d4592615666565b60249250601e54168451928380926351b7995160e01b82528a60048301525afa9081156147c4575f916157c1575b5015845f615732565b6157d89150853d87116151895761517a818361412b565b5f6157b8565b5080601e5416151561572d565b615803919350823d84116151895761517a818361412b565b915f615724565b84513d5f823e3d90fd5b905f602091828151910182855af115610db0575f513d61586557506001600160a01b0381163b155b6158435750565b604051635274afe760e01b81526001600160a01b039091166004820152602490fd5b6001141561583c565b6001600160a01b03165f8181527fb7db2dd08fcb62d0c9e08c51941cae53c267786a0b75803fb7960902fc8ef97d60205260409020545f80516020615c158339815191529060ff16615905575f805260205260405f20815f5260205260405f20600160ff1982541617905533905f7f2f8788117e7eff1d82e926ec794901d17c78024a50270940304540a733656f0d8180a4600190565b50505f90565b90815f525f80516020615c158339815191528060205260405f209160018060a01b031691825f5260205260ff60405f205416155f1461598e57825f5260205260405f20815f5260205260405f20600160ff1982541617905533917f2f8788117e7eff1d82e926ec794901d17c78024a50270940304540a733656f0d5f80a4600190565b5050505f90565b90815f525f80516020615c158339815191528060205260405f209160018060a01b031691825f5260205260ff60405f2054165f1461598e57825f5260205260405f20815f5260205260405f2060ff19815416905533917ff6391f5c32d9c69d2a47ea670b442974b53935d1edc7fd64eb21e047a839171b5f80a4600190565b80548210156142d0575f5260205f2001905f90565b6001810190825f528160205260405f2054155f1461598e578054600160401b81101561184a57615a79615a63826001879401855584615a14565b819391549060031b91821b915f19901b19161790565b905554915f5260205260405f2055600190565b906001820191815f528260205260405f2054908115155f14615b49575f19918083018181116142f1578254908482019182116142f157818103615b14575b50505080548015615b0057820191615ae28383615a14565b909182549160031b1b19169055555f526020525f6040812055600190565b634e487b7160e01b5f52603160045260245ffd5b615b34615b24615a639386615a14565b90549060031b1c92839286615a14565b90555f528460205260405f20555f8080615aca565b505050505f90565b90615b785750805115615b6657602081519101fd5b60405163d6bda27560e01b8152600490fd5b81511580615bab575b615b89575090565b604051639996b31560e01b81526001600160a01b039091166004820152602490fd5b50803b15615b8156fec1f6fe24621ce81ec5827caf0253cadb74709b061630e6b55e82371705932000360894a13ba1a3210667c828492db98dca3e2076cc3735a920a3ca505d382bbc97667070c54ef182b0f5858b034beac1b6f3089aa2d3188bb1e8929f4fa9b92902dd7bc7dec4dceedda775e58dd541e08a116c6c53815c0bd028192f7b626800f0c57e16840df040f15088dc2f81fe391c3923bec73e23a9662efc9c229c6a00a26469706673582212203171ed272a5946a050aed092030d98a8e2d0580140e1799544931c2114c7ea7e64736f6c63430008180033",
  "devdoc": {
    "errors": {
      "AccessControlBadConfirmation()": [
        {
          "details": "The caller of a function is not the expected one. NOTE: Don't confuse with {AccessControlUnauthorizedAccount}."
        }
      ],
      "AccessControlUnauthorizedAccount(address,bytes32)": [
        {
          "details": "The `account` is missing a role."
        }
      ],
      "AddressEmptyCode(address)": [
        {
          "details": "There's no code at `target` (it is not a contract)."
        }
      ],
      "ERC1967InvalidImplementation(address)": [
        {
          "details": "The `implementation` of the proxy is invalid."
        }
      ],
      "ERC1967NonPayable()": [
        {
          "details": "An upgrade function sees `msg.value > 0` that may be lost."
        }
      ],
      "FailedCall()": [
        {
          "details": "A call to an address target failed. The target may have reverted."
        }
      ],
      "InvalidInitialization()": [
        {
          "details": "The contract is already initialized."
        }
      ],
      "NotInitializing()": [
        {
          "details": "The contract is not initializing."
        }
      ],
      "SafeERC20FailedOperation(address)": [
        {
          "details": "An operation with an ERC-20 token failed."
        }
      ],
      "UUPSUnauthorizedCallContext()": [
        {
          "details": "The call is from an unauthorized context."
        }
      ],
      "UUPSUnsupportedProxiableUUID(bytes32)": [
        {
          "details": "The storage `slot` is unsupported as a UUID."
        }
      ]
    },
    "events": {
      "Initialized(uint64)": {
        "details": "Triggered when the contract has been initialized or reinitialized."
      },
      "RoleAdminChanged(bytes32,bytes32,bytes32)": {
        "details": "Emitted when `newAdminRole` is set as ``role``'s admin role, replacing `previousAdminRole` `DEFAULT_ADMIN_ROLE` is the starting admin for all roles, despite {RoleAdminChanged} not being emitted to signal this."
      },
      "RoleGranted(bytes32,address,address)": {
        "details": "Emitted when `account` is granted `role`. `sender` is the account that originated the contract call. This account bears the admin role (for the granted role). Expected in cases where the role was granted using the internal {AccessControl-_grantRole}."
      },
      "RoleRevoked(bytes32,address,address)": {
        "details": "Emitted when `account` is revoked `role`. `sender` is the account that originated the contract call:   - if using `revokeRole`, it is the admin role bearer   - if using `renounceRole`, it is the role bearer (i.e. `account`)"
      },
      "Upgraded(address)": {
        "details": "Emitted when the implementation is upgraded."
      }
    },
    "kind": "dev",
    "methods": {
      "cancelDeposit(uint256)": {
        "details": "Refund amounts (net + fee) are added to depositEscrowBalance for the sender to claim later      via claimDepositEscrow().",
        "params": {
          "_len": "Number of requests to cancel (0 = cancel all)"
        }
      },
      "cancelPendingRedeem(uint256)": {
        "details": "User specified they CANNOT cancel pending redeems - only MAINTAINER can do emergency cancellations      No token fees taken (fees are in redeemAsset).      Restores offchainShares and totalRedeemQueueTokens (reverse of requestRedeem).",
        "params": {
          "_len": "Number of pending requests to cancel"
        }
      },
      "cancelRedeem(uint256)": {
        "details": "Refunds full amount - no token fees taken (fees are in redeemAsset).      Restores offchainShares and totalRedeemQueueTokens (reverse of requestRedeem).",
        "params": {
          "_len": "Number of requests to cancel"
        }
      },
      "circulatingSupply()": {
        "details": "Circulating = Total Supply - Tokens committed to redeem queues (pending + final) - Live mgt fee tokens.      totalRedeemQueueTokens is incremented at requestRedeem time, covering both pending and final queues.",
        "returns": {
          "supply": "Circulating token supply"
        }
      },
      "claimDepositEscrow(address,address)": {
        "details": "Deposit assets are escrowed when cancelDeposit() cannot transfer back to the sender (e.g. sender was banned)Can be called by the escrowed user directly or by an operator on their behalf",
        "params": {
          "_account": "Address to claim escrow for (ignored when caller is not OPERATOR_ROLE, uses msg.sender)",
          "_asset": "Address of the deposit asset to claim"
        }
      },
      "claimRedeemEscrow(address)": {
        "details": "Tokens are escrowed when cancel() cannot transfer back to the sender (e.g. sender was banned)Can be called by the escrowed user directly or by an operator on their behalf",
        "params": {
          "_account": "Address to claim escrow for (ignored when caller is not OPERATOR_ROLE, uses msg.sender)"
        }
      },
      "constructor": {
        "custom:oz-upgrades-unsafe-allow": "constructor"
      },
      "convertFromUnderlying(address,uint256)": {
        "params": {
          "_amount": "Amount of asset token",
          "_token": "Asset token address (e.g., USDC, USDO)"
        },
        "returns": {
          "amount": "Equivalent token amount"
        }
      },
      "convertToUnderlying(address,uint256)": {
        "params": {
          "_amount": "Amount of token",
          "_token": "Asset token address (e.g., USDC, USDO)"
        },
        "returns": {
          "amount": "Equivalent asset token amount"
        }
      },
      "getDepositQueueInfo(uint256)": {
        "params": {
          "_index": "Queue index"
        },
        "returns": {
          "asset": "Asset address",
          "feeAmt": "Fee collected at request",
          "id": "Queue id",
          "netAssets": "Net asset amount queued",
          "receiver": "Receiver address",
          "sender": "Sender address"
        }
      },
      "getDepositQueueLength()": {
        "returns": {
          "_0": "Length of deposit queue"
        }
      },
      "getPendingRedeemQueueInfo(uint256)": {
        "params": {
          "_index": "Queue index to query"
        },
        "returns": {
          "id": "Pending redeem ID",
          "receiver": "Receiver address",
          "requestTimestamp": "Request timestamp",
          "sender": "Sender address",
          "shareAmount": "Offchain share amount (ratio baked in at request time)",
          "tokenAmount": "Full token amount"
        }
      },
      "getPendingRedeemQueueLength()": {
        "returns": {
          "_0": "Length of pending redeem queue"
        }
      },
      "getPrice()": {
        "returns": {
          "price": "The fresh price (normalized to 18 decimals)"
        }
      },
      "getRedeemQueueInfo(uint256)": {
        "params": {
          "_index": "Queue index to query"
        },
        "returns": {
          "feeAssetAmt": "Fee amount in redeemAsset",
          "id": "Redeem ID",
          "receiver": "Receiver address",
          "redeemAssetAmt": "Pre-calculated redeemAsset amount (from T+2)",
          "requestTimestamp": "Original timestamp from pending queue",
          "sender": "Sender address",
          "shareAmount": "Offchain share amount (ratio baked in at request time)",
          "tokenAmount": "Full token amount"
        }
      },
      "getRedeemQueueLength()": {
        "returns": {
          "_0": "Length of the redeem queue"
        }
      },
      "getRoleAdmin(bytes32)": {
        "details": "Returns the admin role that controls `role`. See {grantRole} and {revokeRole}. To change a role's admin, use {_setRoleAdmin}."
      },
      "getRoleMember(bytes32,uint256)": {
        "details": "Returns one of the accounts that have `role`. `index` must be a value between 0 and {getRoleMemberCount}, non-inclusive. Role bearers are not sorted in any particular way, and their ordering may change at any point. WARNING: When using {getRoleMember} and {getRoleMemberCount}, make sure you perform all queries on the same block. See the following https://forum.openzeppelin.com/t/iterating-over-elements-on-enumerableset-in-openzeppelin-contracts/2296[forum post] for more information."
      },
      "getRoleMemberCount(bytes32)": {
        "details": "Returns the number of accounts that have `role`. Can be used together with {getRoleMember} to enumerate all bearers of a role."
      },
      "getRoleMembers(bytes32)": {
        "details": "Return all accounts that have `role` WARNING: This operation will copy the entire storage to memory, which can be quite expensive. This is designed to mostly be used by view accessors that are queried without any gas fees. Developers should keep in mind that this function has an unbounded cost, and using it as part of a state-changing function may render the function uncallable if the set grows to a point where copying to memory consumes too much gas to fit in a block."
      },
      "getTokenBalance(address)": {
        "params": {
          "_token": "Token address"
        },
        "returns": {
          "_0": "Balance amount"
        }
      },
      "grantRole(bytes32,address)": {
        "details": "Grants `role` to `account`. If `account` had not been already granted `role`, emits a {RoleGranted} event. Requirements: - the caller must have ``role``'s admin role. May emit a {RoleGranted} event."
      },
      "hasRole(bytes32,address)": {
        "details": "Returns `true` if `account` has been granted `role`."
      },
      "initialize(address,address,address,address,address,address,address,address,uint256,(uint256,uint256,uint256),address,uint256,uint256)": {
        "params": {
          "_assetRegistry": "Address of the asset registry",
          "_depositMaxDeviationBps": "Symmetric oracle deviation tolerance for processDepositQueue (BPS)",
          "_kycManager": "Address of the KYC manager (required, non-zero; shared with Token)",
          "_maxStalePeriod": "Maximum staleness in seconds (e.g., 86400 for 24 hours)",
          "_mgtFeeTo": "Address to receive management fees",
          "_priceOracle": "Address of the price oracle (can be zero address if not using oracle)",
          "_redeemAsset": "Address of the redeem asset (e.g., USDC, USDO)",
          "_redeemMaxDeviationBps": "Symmetric oracle deviation tolerance for processPendingRedeems (BPS)",
          "_token": "Address of the token contract",
          "_treasury": "Address to receive deposited assets",
          "_txFeeTo": "Address to receive transaction fees",
          "admin": "Address with admin privileges",
          "cfg": "Deposit and redeem limiter configuration"
        }
      },
      "offRamp(uint256)": {
        "params": {
          "_amount": "Amount of redeem asset to transfer"
        }
      },
      "previewDeposit(address,uint256)": {
        "params": {
          "_amount": "The amount of asset token",
          "_asset": "The asset token address (e.g., USDC, USDO)"
        },
        "returns": {
          "feeAmt": "Fee amount",
          "netAmt": "Net amount after fees",
          "netMintAmt": "Net token amount to be minted after fees"
        }
      },
      "previewRedeem(uint256)": {
        "params": {
          "_tokenAmount": "The amount of tokens to redeem"
        },
        "returns": {
          "feeAmt": "Platform fee amount in redeemAsset",
          "netRedeemAssetAmt": "Net redeemAsset amount after fee deduction",
          "redeemAssetAmt": "Gross redeemAsset amount queued before fee deduction"
        }
      },
      "processDepositQueue(uint256,uint256)": {
        "details": "Two-pass algorithm: first pass peeks entries to sum normalized net assets and validate KYC,      then sanity-checks operator-supplied _newShares against the oracle and computes total mint.      Second pass pops and mints pro-rata. This preserves the sharesPerToken ratio exactly      (see design spec for invariance proof).",
        "params": {
          "_len": "Number of requests to process (0 = process all)",
          "_newShares": "Actual offchain fund shares acquired for this batch (must be >0 when _len >0)"
        }
      },
      "processPendingRedeems(uint256,uint256)": {
        "details": "Two-pass: Pass 1 pops ready entries, validates KYC, sums shareAmounts, and (if oracle      configured) accumulates oracle-derived expected total. Then deviation-checks      _totalAsset against expectedTotal. Pass 2 distributes _totalAsset pro-rata by      shareAmount and computes per-entry fee on the operator-derived slice.      Stops at the first not-ready entry. If no entries are ready, reverts      NoPendingRedeemsReady. _totalAsset is interpreted relative to the entries actually      processed (not the requested _len).",
        "params": {
          "_len": "Number of pending requests to attempt (must be > 0)",
          "_totalAsset": "Operator-supplied actual redeem asset pool to distribute pro-rata"
        }
      },
      "processRedeemQueue(uint256)": {
        "details": "Burns full token amount, splits redeemAsset between user and txFeeTo.      Decrements totalRedeemQueueTokens (token supply decreases by same amount via burn,      keeping the sharesPerToken ratio invariant).",
        "params": {
          "_len": "Number of requests to process (0 = process all)"
        }
      },
      "proxiableUUID()": {
        "details": "Implementation of the ERC-1822 {proxiableUUID} function. This returns the storage slot used by the implementation. It is used to validate the implementation's compatibility when performing an upgrade. IMPORTANT: A proxy pointing at a proxiable contract should not be considered proxiable itself, because this risks bricking a proxy that upgrades to it, by delegating to itself until out of gas. Thus it is critical that this function revert if invoked through a proxy. This is guaranteed by the `notDelegated` modifier."
      },
      "renounceRole(bytes32,address)": {
        "details": "Revokes `role` from the calling account. Roles are often managed via {grantRole} and {revokeRole}: this function's purpose is to provide a mechanism for accounts to lose their privileges if they are compromised (such as when a trusted device is misplaced). If the calling account had been revoked `role`, emits a {RoleRevoked} event. Requirements: - the caller must be `callerConfirmation`. May emit a {RoleRevoked} event."
      },
      "requestDeposit(address,uint256,address)": {
        "details": "Fee is charged at request time and net assets are forwarded to treasury",
        "params": {
          "_amount": "Amount of asset deposited",
          "_asset": "The asset token address (e.g., USDC, USDO)",
          "_receiver": "Address that receives minted token on processing"
        }
      },
      "requestDirectRedeem(address,uint256,address)": {
        "details": "Burns tokens immediately. The redeem-asset payout is handled fully off-chain;      the contract only emits the burn record for the DB to match against.      No queue, no T+2 delay; fees are applied off-chain at settlement time.      Accounting: decrements offchainShares by the share-equivalent at current ratio.      Does NOT touch totalRedeemQueueTokens (no in-flight tokens — burn is immediate).      _sharesPerToken stays invariant: numerator drops by shareAmount, denominator      drops by _tokenAmount (totalSupply burn), and shareAmount = _tokenAmount * ratio.      The mgtFeeTo wallet is rejected upfront — fee shares must redeem through      requestRedeem only, to keep totalMgtFeeUnclaimed reconciliation clean.",
        "params": {
          "_asset": "Informational asset address the user wants to receive off-chain               (e.g. RLUSD). Must be non-zero and not equal to redeemAsset.",
          "_to": "KYC'd recipient address recorded for off-chain settlement.",
          "_tokenAmount": "HYBOND token amount to burn."
        }
      },
      "requestRedeem(address,uint256)": {
        "details": "Request goes to pending queue. offchainShares is decremented immediately to maintain      sharesPerToken invariance. The shareAmount is encoded in the queue entry for      later use in processPendingRedeems (no snapshot needed).      For the mgtFeeTo wallet, the caller-supplied _tokenAmount is IGNORED and      the full live fee balance (totalMgtFeeUnclaimed) is redeemed instead.      totalMgtFeeUnclaimed is zeroed at request time.",
        "params": {
          "_to": "The address to receive redeemed asset",
          "_tokenAmount": "The amount of tokens to redeem (IGNORED if caller is mgtFeeTo)"
        }
      },
      "revertRedeemToPending(uint256)": {
        "details": "Used when wrong T+2 price was applied - moves items back to pending for repricing.      Simplified: no snapshot migration needed (ratio baked into queue entry at request time).      totalRedeemQueueTokens and offchainShares are NOT modified — they were adjusted at      requestRedeem time and cover both pending and final queue entries.",
        "params": {
          "_len": "Number of redeems to revert (0 = revert all)"
        }
      },
      "revokeRole(bytes32,address)": {
        "details": "Revokes `role` from `account`. If `account` had been granted `role`, emits a {RoleRevoked} event. Requirements: - the caller must have ``role``'s admin role. May emit a {RoleRevoked} event."
      },
      "setKycManager(address)": {
        "details": "Queue-empty guard: queue processors re-check KYC, so rotating mid-flight could      strand entries whose user is KYC'd in the old manager but not the new."
      },
      "sharesPerToken()": {
        "details": "Shares per Token = Circulating Supply / Total Supply (scaled by 1e18)",
        "returns": {
          "ratio": "Shares per token in 1e18 precision"
        }
      },
      "supportsInterface(bytes4)": {
        "details": "Returns true if this contract implements the interface defined by `interfaceId`. See the corresponding https://eips.ethereum.org/EIPS/eip-165#how-interfaces-are-identified[ERC section] to learn more about how these ids are created. This function call must use less than 30 000 gas."
      },
      "txsFee(uint256,uint8)": {
        "params": {
          "_amount": "The amount to calculate fee for",
          "_txType": "The transaction type (DEPOSIT or REDEEM)"
        },
        "returns": {
          "feeAmt": "The calculated fee amount"
        }
      },
      "updateAssetRegistry(address)": {
        "params": {
          "_address": "The new asset registry address"
        }
      },
      "updateConvertRedeemRequestsDelay(uint256)": {
        "details": "Can be adjusted for holidays (e.g., 2 days → 3 days → back to 2 days).      OPERATIONAL INVARIANT (not enforced on-chain to save gas / bytecode):      do NOT call this while pendingRedeemQueue or redeemQueue is non-empty — changing      the delay retroactively shifts the settlement timing of already-queued entries      relative to what the user saw when they submitted. Maintainers should drain both      redeem queues before adjusting this value.",
        "params": {
          "_delay": "Delay in seconds before pending requests can be processed"
        }
      },
      "updateDepositFeeRate(uint256)": {
        "params": {
          "_rate": "The new fee rate in basis points"
        }
      },
      "updateDepositMaxDeviationBps(uint256)": {
        "params": {
          "_bps": "Deviation tolerance in basis points (0 = strict, max = BPS_BASE)"
        }
      },
      "updateDepositMinimum(uint256)": {
        "params": {
          "_depositMinimum": "Minimum deposit amount"
        }
      },
      "updateEpoch()": {
        "details": "Fee is charged on the offchain BNY value (the real AUM), not on circulating HYBOND.      This matches how a real-world fund charges mgmt fees on AUM rather than on issued shares.      Can only be called after timeBuffer has elapsed since last update."
      },
      "updateFirstDeposit(address,bool)": {
        "params": {
          "_account": "Account address",
          "_flag": "First deposit status"
        }
      },
      "updateFirstDepositAmount(uint256)": {
        "params": {
          "_amount": "Required first deposit amount"
        }
      },
      "updateMaxStalePeriod(uint256)": {
        "params": {
          "_maxStalePeriod": "Maximum staleness in seconds (e.g., 86400 for 24 hours)"
        }
      },
      "updateMgtFeeRate(uint256)": {
        "params": {
          "_rate": "The new management fee rate in basis points (e.g., 300 for 3% annually)"
        }
      },
      "updateMgtFeeTo(address)": {
        "details": "Requires all live fee tokens to be redeemed and burned first (totalMgtFeeUnclaimed == 0).      Also requires both redeem queues (pendingRedeemQueue, redeemQueue) to be empty.      In-flight entries from the old mgtFeeTo would carry its address as `from`; on      cancel/revert those branches would fail to match the new mgtFeeTo and skip the      totalMgtFeeUnclaimed decrement, corrupting the live fee tracker.",
        "params": {
          "_address": "The new management fee recipient address"
        }
      },
      "updateOffchainShares(uint256)": {
        "details": "Should almost never be called. Use only for error correction or corporate actions.      offchainShares is normally maintained automatically by processDepositQueue (increment)      and requestRedeem (decrement).",
        "params": {
          "_newValue": "The new offchainShares value"
        }
      },
      "updatePriceOracle(address)": {
        "params": {
          "_address": "The new price oracle address"
        }
      },
      "updateRedeemAsset(address)": {
        "details": "Requires all queues (deposit, pendingRedeem, redeem) to be empty to prevent      in-flight requests from being settled in the wrong asset.      Claim escrow mappings (redeemEscrowBalance, depositEscrowBalance) are unaffected      because redeemEscrowBalance holds HYBOND tokens (not redeemAsset) and      depositEscrowBalance is keyed by the original deposit asset.",
        "params": {
          "_address": "The new redeem asset address"
        }
      },
      "updateRedeemFeeRate(uint256)": {
        "params": {
          "_rate": "The new fee rate in basis points"
        }
      },
      "updateRedeemMaxDeviationBps(uint256)": {
        "params": {
          "_bps": "Deviation tolerance in basis points (0 = strict, max = BPS_BASE)"
        }
      },
      "updateRedeemMinimum(uint256)": {
        "params": {
          "_redeemMinimum": "Minimum redeem amount"
        }
      },
      "updateTimeBuffer(uint256)": {
        "params": {
          "_timeBuffer": "Time buffer in seconds (e.g., 72000 for 20 hours)"
        }
      },
      "updateTreasury(address)": {
        "params": {
          "_address": "The new treasury address"
        }
      },
      "updateTrimDecimals(uint8)": {
        "params": {
          "_decimals": "Number of decimals to keep (0-18)"
        }
      },
      "updateTxFeeTo(address)": {
        "params": {
          "_address": "The new transaction fee recipient address"
        }
      },
      "upgradeToAndCall(address,bytes)": {
        "custom:oz-upgrades-unsafe-allow-reachable": "delegatecall",
        "details": "Upgrade the implementation of the proxy to `newImplementation`, and subsequently execute the function call encoded in `data`. Calls {_authorizeUpgrade}. Emits an {Upgraded} event."
      },
      "version()": {
        "returns": {
          "_0": "Version string"
        }
      }
    },
    "stateVariables": {
      "__gap": {
        "details": "Storage gap for future upgrades See https://docs.openzeppelin.com/contracts/4.x/upgradeable#storage_gaps"
      }
    },
    "version": 1
  },
  "userdoc": {
    "kind": "user",
    "methods": {
      "cancelDeposit(uint256)": {
        "notice": "Cancel queued deposit requests and credit refunds to deposit escrow"
      },
      "cancelPendingRedeem(uint256)": {
        "notice": "Cancel pending redeem requests and refund full token amount"
      },
      "cancelRedeem(uint256)": {
        "notice": "Cancel redeem requests and refund full token amount"
      },
      "circulatingSupply()": {
        "notice": "Get circulating token supply"
      },
      "claimDepositEscrow(address,address)": {
        "notice": "Claim escrowed deposit assets from cancelled deposits that could not be refunded directly"
      },
      "claimRedeemEscrow(address)": {
        "notice": "Claim escrowed tokens from cancelled redemptions that could not be refunded directly"
      },
      "convertFromUnderlying(address,uint256)": {
        "notice": "Convert asset token amount to token amount"
      },
      "convertToUnderlying(address,uint256)": {
        "notice": "Convert token amount to asset token amount"
      },
      "getDepositQueueInfo(uint256)": {
        "notice": "Get deposit queue info at index"
      },
      "getDepositQueueLength()": {
        "notice": "Get deposit queue length"
      },
      "getPendingRedeemQueueInfo(uint256)": {
        "notice": "Get pending redeem queue info at index"
      },
      "getPendingRedeemQueueLength()": {
        "notice": "Get pending redeem queue length"
      },
      "getPrice()": {
        "notice": "Get fresh price from price feed with staleness check"
      },
      "getRedeemQueueInfo(uint256)": {
        "notice": "Get redeem queue information at index"
      },
      "getRedeemQueueLength()": {
        "notice": "Get redeem queue length"
      },
      "getTokenBalance(address)": {
        "notice": "Get token balance held by this contract"
      },
      "initialize(address,address,address,address,address,address,address,address,uint256,(uint256,uint256,uint256),address,uint256,uint256)": {
        "notice": "Initialize the Express contract"
      },
      "kycManager()": {
        "notice": "KYC manager (single source of truth, shared with Token). Required (non-zero)."
      },
      "offRamp(uint256)": {
        "notice": "Transfer redeem asset from contract to treasury"
      },
      "pauseDeposit()": {
        "notice": "Pause deposit operations"
      },
      "pauseRedeem()": {
        "notice": "Pause redeem operations"
      },
      "previewDeposit(address,uint256)": {
        "notice": "Preview deposit request accounting"
      },
      "previewRedeem(uint256)": {
        "notice": "Preview redeem request accounting"
      },
      "processDepositQueue(uint256,uint256)": {
        "notice": "Process queued deposit requests with pro-rata minting"
      },
      "processPendingRedeems(uint256,uint256)": {
        "notice": "Process pending redeems with operator-supplied total asset distributed pro-rata"
      },
      "processRedeemQueue(uint256)": {
        "notice": "Process redeem queue with pre-calculated amounts"
      },
      "requestDeposit(address,uint256,address)": {
        "notice": "Queue a deposit request by depositing asset"
      },
      "requestDirectRedeem(address,uint256,address)": {
        "notice": "Redeem HYBOND tokens with off-chain settlement in an arbitrary asset."
      },
      "requestRedeem(address,uint256)": {
        "notice": "Queue a redeem request for T+2 pricing"
      },
      "revertRedeemToPending(uint256)": {
        "notice": "Revert redeems from final queue back to pending queue"
      },
      "setKycManager(address)": {
        "notice": "Rotate the KycManager. Requires DEFAULT_ADMIN_ROLE and all queues empty."
      },
      "sharesPerToken()": {
        "notice": "Get shares per token ratio"
      },
      "txsFee(uint256,uint8)": {
        "notice": "Calculate transaction fee based on amount and type"
      },
      "unpauseDeposit()": {
        "notice": "Unpause deposit operations"
      },
      "unpauseRedeem()": {
        "notice": "Unpause redeem operations"
      },
      "updateAssetRegistry(address)": {
        "notice": "Update the asset registry address"
      },
      "updateConvertRedeemRequestsDelay(uint256)": {
        "notice": "Update the redeem delay for T+2 processing"
      },
      "updateDepositFeeRate(uint256)": {
        "notice": "Update the deposit fee rate"
      },
      "updateDepositMaxDeviationBps(uint256)": {
        "notice": "Update the symmetric oracle deviation tolerance for processDepositQueue"
      },
      "updateDepositMinimum(uint256)": {
        "notice": "Update deposit minimum amount (in token, 18 decimals)"
      },
      "updateEpoch()": {
        "notice": "Update epoch and accrue management fees based on offchainShares"
      },
      "updateFirstDeposit(address,bool)": {
        "notice": "Update first deposit status for an account"
      },
      "updateFirstDepositAmount(uint256)": {
        "notice": "Update first deposit requirement amount (in token, 18 decimals)"
      },
      "updateMaxStalePeriod(uint256)": {
        "notice": "Update the maximum stale period for price data"
      },
      "updateMgtFeeRate(uint256)": {
        "notice": "Update the management fee rate"
      },
      "updateMgtFeeTo(address)": {
        "notice": "Update the management fee recipient address"
      },
      "updateOffchainShares(uint256)": {
        "notice": "Admin override for rare events (share splits, reconciliation)."
      },
      "updatePriceOracle(address)": {
        "notice": "Update the price oracle address"
      },
      "updateRedeemAsset(address)": {
        "notice": "Update the redeem asset address"
      },
      "updateRedeemFeeRate(uint256)": {
        "notice": "Update the redeem fee rate"
      },
      "updateRedeemMaxDeviationBps(uint256)": {
        "notice": "Update the symmetric oracle deviation tolerance for processPendingRedeems"
      },
      "updateRedeemMinimum(uint256)": {
        "notice": "Update redeem minimum amount (in token, 18 decimals)"
      },
      "updateTimeBuffer(uint256)": {
        "notice": "Update the minimum time buffer between epoch updates"
      },
      "updateTreasury(address)": {
        "notice": "Update the treasury address"
      },
      "updateTrimDecimals(uint8)": {
        "notice": "Update the number of decimals to keep when trimming amounts"
      },
      "updateTxFeeTo(address)": {
        "notice": "Update the transaction fee recipient address"
      },
      "version()": {
        "notice": "Get contract version"
      }
    },
    "version": 1
  },
  "storageLayout": {
    "storage": [
      {
        "astId": 16940,
        "contract": "contracts/extension/Express.sol:Express",
        "label": "pausedDepositState",
        "offset": 0,
        "slot": "0",
        "type": "t_bool"
      },
      {
        "astId": 16942,
        "contract": "contracts/extension/Express.sol:Express",
        "label": "pausedRedeemState",
        "offset": 1,
        "slot": "0",
        "type": "t_bool"
      },
      {
        "astId": 12425,
        "contract": "contracts/extension/Express.sol:Express",
        "label": "depositMinimum",
        "offset": 0,
        "slot": "1",
        "type": "t_uint256"
      },
      {
        "astId": 12427,
        "contract": "contracts/extension/Express.sol:Express",
        "label": "redeemMinimum",
        "offset": 0,
        "slot": "2",
        "type": "t_uint256"
      },
      {
        "astId": 12429,
        "contract": "contracts/extension/Express.sol:Express",
        "label": "firstDepositAmount",
        "offset": 0,
        "slot": "3",
        "type": "t_uint256"
      },
      {
        "astId": 12525,
        "contract": "contracts/extension/Express.sol:Express",
        "label": "__gap",
        "offset": 0,
        "slot": "4",
        "type": "t_array(t_uint256)10_storage"
      },
      {
        "astId": 12902,
        "contract": "contracts/extension/Express.sol:Express",
        "label": "depositFeeRate",
        "offset": 0,
        "slot": "14",
        "type": "t_uint256"
      },
      {
        "astId": 12904,
        "contract": "contracts/extension/Express.sol:Express",
        "label": "redeemFeeRate",
        "offset": 0,
        "slot": "15",
        "type": "t_uint256"
      },
      {
        "astId": 12907,
        "contract": "contracts/extension/Express.sol:Express",
        "label": "token",
        "offset": 0,
        "slot": "16",
        "type": "t_contract(IToken)21867"
      },
      {
        "astId": 12909,
        "contract": "contracts/extension/Express.sol:Express",
        "label": "redeemAsset",
        "offset": 0,
        "slot": "17",
        "type": "t_address"
      },
      {
        "astId": 12911,
        "contract": "contracts/extension/Express.sol:Express",
        "label": "treasury",
        "offset": 0,
        "slot": "18",
        "type": "t_address"
      },
      {
        "astId": 12913,
        "contract": "contracts/extension/Express.sol:Express",
        "label": "txFeeTo",
        "offset": 0,
        "slot": "19",
        "type": "t_address"
      },
      {
        "astId": 12915,
        "contract": "contracts/extension/Express.sol:Express",
        "label": "mgtFeeTo",
        "offset": 0,
        "slot": "20",
        "type": "t_address"
      },
      {
        "astId": 12917,
        "contract": "contracts/extension/Express.sol:Express",
        "label": "mgtFeeRate",
        "offset": 0,
        "slot": "21",
        "type": "t_uint256"
      },
      {
        "astId": 12920,
        "contract": "contracts/extension/Express.sol:Express",
        "label": "assetRegistry",
        "offset": 0,
        "slot": "22",
        "type": "t_contract(IAssetRegistry)21792"
      },
      {
        "astId": 12923,
        "contract": "contracts/extension/Express.sol:Express",
        "label": "priceOracle",
        "offset": 0,
        "slot": "23",
        "type": "t_contract(IPriceFeed)21828"
      },
      {
        "astId": 12925,
        "contract": "contracts/extension/Express.sol:Express",
        "label": "maxStalePeriod",
        "offset": 0,
        "slot": "24",
        "type": "t_uint256"
      },
      {
        "astId": 12927,
        "contract": "contracts/extension/Express.sol:Express",
        "label": "offchainShares",
        "offset": 0,
        "slot": "25",
        "type": "t_uint256"
      },
      {
        "astId": 12929,
        "contract": "contracts/extension/Express.sol:Express",
        "label": "lastUpdateTS",
        "offset": 0,
        "slot": "26",
        "type": "t_uint256"
      },
      {
        "astId": 12931,
        "contract": "contracts/extension/Express.sol:Express",
        "label": "totalMgtFeeUnclaimed",
        "offset": 0,
        "slot": "27",
        "type": "t_uint256"
      },
      {
        "astId": 12933,
        "contract": "contracts/extension/Express.sol:Express",
        "label": "timeBuffer",
        "offset": 0,
        "slot": "28",
        "type": "t_uint256"
      },
      {
        "astId": 12937,
        "contract": "contracts/extension/Express.sol:Express",
        "label": "firstDeposit",
        "offset": 0,
        "slot": "29",
        "type": "t_mapping(t_address,t_bool)"
      },
      {
        "astId": 12940,
        "contract": "contracts/extension/Express.sol:Express",
        "label": "kycManager",
        "offset": 0,
        "slot": "30",
        "type": "t_address"
      },
      {
        "astId": 12946,
        "contract": "contracts/extension/Express.sol:Express",
        "label": "depositInfo",
        "offset": 0,
        "slot": "31",
        "type": "t_mapping(t_address,t_mapping(t_address,t_uint256))"
      },
      {
        "astId": 12949,
        "contract": "contracts/extension/Express.sol:Express",
        "label": "depositQueue",
        "offset": 0,
        "slot": "32",
        "type": "t_struct(BytesDeque)12544_storage"
      },
      {
        "astId": 12953,
        "contract": "contracts/extension/Express.sol:Express",
        "label": "pendingRedeemInfo",
        "offset": 0,
        "slot": "34",
        "type": "t_mapping(t_address,t_uint256)"
      },
      {
        "astId": 12956,
        "contract": "contracts/extension/Express.sol:Express",
        "label": "pendingRedeemQueue",
        "offset": 0,
        "slot": "35",
        "type": "t_struct(BytesDeque)12544_storage"
      },
      {
        "astId": 12960,
        "contract": "contracts/extension/Express.sol:Express",
        "label": "redeemInfo",
        "offset": 0,
        "slot": "37",
        "type": "t_mapping(t_address,t_uint256)"
      },
      {
        "astId": 12963,
        "contract": "contracts/extension/Express.sol:Express",
        "label": "redeemQueue",
        "offset": 0,
        "slot": "38",
        "type": "t_struct(BytesDeque)12544_storage"
      },
      {
        "astId": 12965,
        "contract": "contracts/extension/Express.sol:Express",
        "label": "convertRedeemRequestsDelay",
        "offset": 0,
        "slot": "40",
        "type": "t_uint256"
      },
      {
        "astId": 12967,
        "contract": "contracts/extension/Express.sol:Express",
        "label": "totalRedeemQueueTokens",
        "offset": 0,
        "slot": "41",
        "type": "t_uint256"
      },
      {
        "astId": 12969,
        "contract": "contracts/extension/Express.sol:Express",
        "label": "trimDecimals",
        "offset": 0,
        "slot": "42",
        "type": "t_uint8"
      },
      {
        "astId": 12971,
        "contract": "contracts/extension/Express.sol:Express",
        "label": "_nonce",
        "offset": 0,
        "slot": "43",
        "type": "t_uint256"
      },
      {
        "astId": 12975,
        "contract": "contracts/extension/Express.sol:Express",
        "label": "redeemEscrowBalance",
        "offset": 0,
        "slot": "44",
        "type": "t_mapping(t_address,t_uint256)"
      },
      {
        "astId": 12981,
        "contract": "contracts/extension/Express.sol:Express",
        "label": "depositEscrowBalance",
        "offset": 0,
        "slot": "45",
        "type": "t_mapping(t_address,t_mapping(t_address,t_uint256))"
      },
      {
        "astId": 12983,
        "contract": "contracts/extension/Express.sol:Express",
        "label": "depositMaxDeviationBps",
        "offset": 0,
        "slot": "46",
        "type": "t_uint256"
      },
      {
        "astId": 12985,
        "contract": "contracts/extension/Express.sol:Express",
        "label": "redeemMaxDeviationBps",
        "offset": 0,
        "slot": "47",
        "type": "t_uint256"
      },
      {
        "astId": 16918,
        "contract": "contracts/extension/Express.sol:Express",
        "label": "__gap",
        "offset": 0,
        "slot": "48",
        "type": "t_array(t_uint256)33_storage"
      }
    ],
    "types": {
      "t_address": {
        "encoding": "inplace",
        "label": "address",
        "numberOfBytes": "20"
      },
      "t_array(t_uint256)10_storage": {
        "base": "t_uint256",
        "encoding": "inplace",
        "label": "uint256[10]",
        "numberOfBytes": "320"
      },
      "t_array(t_uint256)33_storage": {
        "base": "t_uint256",
        "encoding": "inplace",
        "label": "uint256[33]",
        "numberOfBytes": "1056"
      },
      "t_bool": {
        "encoding": "inplace",
        "label": "bool",
        "numberOfBytes": "1"
      },
      "t_bytes_storage": {
        "encoding": "bytes",
        "label": "bytes",
        "numberOfBytes": "32"
      },
      "t_contract(IAssetRegistry)21792": {
        "encoding": "inplace",
        "label": "contract IAssetRegistry",
        "numberOfBytes": "20"
      },
      "t_contract(IPriceFeed)21828": {
        "encoding": "inplace",
        "label": "contract IPriceFeed",
        "numberOfBytes": "20"
      },
      "t_contract(IToken)21867": {
        "encoding": "inplace",
        "label": "contract IToken",
        "numberOfBytes": "20"
      },
      "t_mapping(t_address,t_bool)": {
        "encoding": "mapping",
        "key": "t_address",
        "label": "mapping(address => bool)",
        "numberOfBytes": "32",
        "value": "t_bool"
      },
      "t_mapping(t_address,t_mapping(t_address,t_uint256))": {
        "encoding": "mapping",
        "key": "t_address",
        "label": "mapping(address => mapping(address => uint256))",
        "numberOfBytes": "32",
        "value": "t_mapping(t_address,t_uint256)"
      },
      "t_mapping(t_address,t_uint256)": {
        "encoding": "mapping",
        "key": "t_address",
        "label": "mapping(address => uint256)",
        "numberOfBytes": "32",
        "value": "t_uint256"
      },
      "t_mapping(t_uint128,t_bytes_storage)": {
        "encoding": "mapping",
        "key": "t_uint128",
        "label": "mapping(uint128 => bytes)",
        "numberOfBytes": "32",
        "value": "t_bytes_storage"
      },
      "t_struct(BytesDeque)12544_storage": {
        "encoding": "inplace",
        "label": "struct DoubleQueueModified.BytesDeque",
        "members": [
          {
            "astId": 12537,
            "contract": "contracts/extension/Express.sol:Express",
            "label": "_begin",
            "offset": 0,
            "slot": "0",
            "type": "t_uint128"
          },
          {
            "astId": 12539,
            "contract": "contracts/extension/Express.sol:Express",
            "label": "_end",
            "offset": 16,
            "slot": "0",
            "type": "t_uint128"
          },
          {
            "astId": 12543,
            "contract": "contracts/extension/Express.sol:Express",
            "label": "_data",
            "offset": 0,
            "slot": "1",
            "type": "t_mapping(t_uint128,t_bytes_storage)"
          }
        ],
        "numberOfBytes": "64"
      },
      "t_uint128": {
        "encoding": "inplace",
        "label": "uint128",
        "numberOfBytes": "16"
      },
      "t_uint256": {
        "encoding": "inplace",
        "label": "uint256",
        "numberOfBytes": "32"
      },
      "t_uint8": {
        "encoding": "inplace",
        "label": "uint8",
        "numberOfBytes": "1"
      }
    }
  }
}