{
  "address": "0x1bF4Aba3fCF4b853FeDB3D027D3cb94d77267f92",
  "abi": [
    {
      "inputs": [],
      "stateMutability": "nonpayable",
      "type": "constructor"
    },
    {
      "inputs": [],
      "name": "AccessControlBadConfirmation",
      "type": "error"
    },
    {
      "inputs": [
        {
          "internalType": "address",
          "name": "account",
          "type": "address"
        },
        {
          "internalType": "bytes32",
          "name": "neededRole",
          "type": "bytes32"
        }
      ],
      "name": "AccessControlUnauthorizedAccount",
      "type": "error"
    },
    {
      "inputs": [
        {
          "internalType": "address",
          "name": "target",
          "type": "address"
        }
      ],
      "name": "AddressEmptyCode",
      "type": "error"
    },
    {
      "inputs": [
        {
          "internalType": "address",
          "name": "recipient",
          "type": "address"
        }
      ],
      "name": "BannedRecipient",
      "type": "error"
    },
    {
      "inputs": [
        {
          "internalType": "address",
          "name": "sender",
          "type": "address"
        }
      ],
      "name": "BannedSender",
      "type": "error"
    },
    {
      "inputs": [],
      "name": "BatchSizeTooLarge",
      "type": "error"
    },
    {
      "inputs": [],
      "name": "CapBelowSupply",
      "type": "error"
    },
    {
      "inputs": [
        {
          "internalType": "address",
          "name": "implementation",
          "type": "address"
        }
      ],
      "name": "ERC1967InvalidImplementation",
      "type": "error"
    },
    {
      "inputs": [],
      "name": "ERC1967NonPayable",
      "type": "error"
    },
    {
      "inputs": [
        {
          "internalType": "address",
          "name": "spender",
          "type": "address"
        },
        {
          "internalType": "uint256",
          "name": "allowance",
          "type": "uint256"
        },
        {
          "internalType": "uint256",
          "name": "needed",
          "type": "uint256"
        }
      ],
      "name": "ERC20InsufficientAllowance",
      "type": "error"
    },
    {
      "inputs": [
        {
          "internalType": "address",
          "name": "sender",
          "type": "address"
        },
        {
          "internalType": "uint256",
          "name": "balance",
          "type": "uint256"
        },
        {
          "internalType": "uint256",
          "name": "needed",
          "type": "uint256"
        }
      ],
      "name": "ERC20InsufficientBalance",
      "type": "error"
    },
    {
      "inputs": [
        {
          "internalType": "address",
          "name": "approver",
          "type": "address"
        }
      ],
      "name": "ERC20InvalidApprover",
      "type": "error"
    },
    {
      "inputs": [
        {
          "internalType": "address",
          "name": "receiver",
          "type": "address"
        }
      ],
      "name": "ERC20InvalidReceiver",
      "type": "error"
    },
    {
      "inputs": [
        {
          "internalType": "address",
          "name": "sender",
          "type": "address"
        }
      ],
      "name": "ERC20InvalidSender",
      "type": "error"
    },
    {
      "inputs": [
        {
          "internalType": "address",
          "name": "spender",
          "type": "address"
        }
      ],
      "name": "ERC20InvalidSpender",
      "type": "error"
    },
    {
      "inputs": [],
      "name": "EnforcedPause",
      "type": "error"
    },
    {
      "inputs": [],
      "name": "ExceedsIssueCap",
      "type": "error"
    },
    {
      "inputs": [],
      "name": "ExpectedPause",
      "type": "error"
    },
    {
      "inputs": [],
      "name": "FailedCall",
      "type": "error"
    },
    {
      "inputs": [],
      "name": "InvalidAddress",
      "type": "error"
    },
    {
      "inputs": [],
      "name": "InvalidAmount",
      "type": "error"
    },
    {
      "inputs": [
        {
          "internalType": "address",
          "name": "account",
          "type": "address"
        }
      ],
      "name": "InvalidBannedAccount",
      "type": "error"
    },
    {
      "inputs": [],
      "name": "InvalidInitialization",
      "type": "error"
    },
    {
      "inputs": [],
      "name": "NotInitializing",
      "type": "error"
    },
    {
      "inputs": [
        {
          "internalType": "address",
          "name": "account",
          "type": "address"
        }
      ],
      "name": "NotKyced",
      "type": "error"
    },
    {
      "inputs": [],
      "name": "UUPSUnauthorizedCallContext",
      "type": "error"
    },
    {
      "inputs": [
        {
          "internalType": "bytes32",
          "name": "slot",
          "type": "bytes32"
        }
      ],
      "name": "UUPSUnsupportedProxiableUUID",
      "type": "error"
    },
    {
      "anonymous": false,
      "inputs": [
        {
          "indexed": true,
          "internalType": "address",
          "name": "addr",
          "type": "address"
        }
      ],
      "name": "AccountBanned",
      "type": "event"
    },
    {
      "anonymous": false,
      "inputs": [
        {
          "indexed": true,
          "internalType": "address",
          "name": "addr",
          "type": "address"
        }
      ],
      "name": "AccountUnbanned",
      "type": "event"
    },
    {
      "anonymous": false,
      "inputs": [
        {
          "indexed": true,
          "internalType": "address",
          "name": "owner",
          "type": "address"
        },
        {
          "indexed": true,
          "internalType": "address",
          "name": "spender",
          "type": "address"
        },
        {
          "indexed": false,
          "internalType": "uint256",
          "name": "value",
          "type": "uint256"
        }
      ],
      "name": "Approval",
      "type": "event"
    },
    {
      "anonymous": false,
      "inputs": [
        {
          "indexed": true,
          "internalType": "address",
          "name": "from",
          "type": "address"
        },
        {
          "indexed": false,
          "internalType": "uint256",
          "name": "amount",
          "type": "uint256"
        }
      ],
      "name": "Burn",
      "type": "event"
    },
    {
      "anonymous": false,
      "inputs": [
        {
          "indexed": false,
          "internalType": "uint64",
          "name": "version",
          "type": "uint64"
        }
      ],
      "name": "Initialized",
      "type": "event"
    },
    {
      "anonymous": false,
      "inputs": [
        {
          "indexed": false,
          "internalType": "uint256",
          "name": "oldCap",
          "type": "uint256"
        },
        {
          "indexed": false,
          "internalType": "uint256",
          "name": "newCap",
          "type": "uint256"
        }
      ],
      "name": "IssueCapUpdated",
      "type": "event"
    },
    {
      "anonymous": false,
      "inputs": [
        {
          "indexed": true,
          "internalType": "address",
          "name": "oldManager",
          "type": "address"
        },
        {
          "indexed": true,
          "internalType": "address",
          "name": "newManager",
          "type": "address"
        }
      ],
      "name": "KycManagerUpdated",
      "type": "event"
    },
    {
      "anonymous": false,
      "inputs": [
        {
          "indexed": true,
          "internalType": "address",
          "name": "to",
          "type": "address"
        },
        {
          "indexed": false,
          "internalType": "uint256",
          "name": "amount",
          "type": "uint256"
        }
      ],
      "name": "Mint",
      "type": "event"
    },
    {
      "anonymous": false,
      "inputs": [
        {
          "indexed": false,
          "internalType": "address",
          "name": "account",
          "type": "address"
        }
      ],
      "name": "Paused",
      "type": "event"
    },
    {
      "anonymous": false,
      "inputs": [
        {
          "indexed": true,
          "internalType": "bytes32",
          "name": "role",
          "type": "bytes32"
        },
        {
          "indexed": true,
          "internalType": "bytes32",
          "name": "previousAdminRole",
          "type": "bytes32"
        },
        {
          "indexed": true,
          "internalType": "bytes32",
          "name": "newAdminRole",
          "type": "bytes32"
        }
      ],
      "name": "RoleAdminChanged",
      "type": "event"
    },
    {
      "anonymous": false,
      "inputs": [
        {
          "indexed": true,
          "internalType": "bytes32",
          "name": "role",
          "type": "bytes32"
        },
        {
          "indexed": true,
          "internalType": "address",
          "name": "account",
          "type": "address"
        },
        {
          "indexed": true,
          "internalType": "address",
          "name": "sender",
          "type": "address"
        }
      ],
      "name": "RoleGranted",
      "type": "event"
    },
    {
      "anonymous": false,
      "inputs": [
        {
          "indexed": true,
          "internalType": "bytes32",
          "name": "role",
          "type": "bytes32"
        },
        {
          "indexed": true,
          "internalType": "address",
          "name": "account",
          "type": "address"
        },
        {
          "indexed": true,
          "internalType": "address",
          "name": "sender",
          "type": "address"
        }
      ],
      "name": "RoleRevoked",
      "type": "event"
    },
    {
      "anonymous": false,
      "inputs": [
        {
          "indexed": true,
          "internalType": "address",
          "name": "from",
          "type": "address"
        },
        {
          "indexed": true,
          "internalType": "address",
          "name": "to",
          "type": "address"
        },
        {
          "indexed": false,
          "internalType": "uint256",
          "name": "value",
          "type": "uint256"
        }
      ],
      "name": "Transfer",
      "type": "event"
    },
    {
      "anonymous": false,
      "inputs": [
        {
          "indexed": false,
          "internalType": "address",
          "name": "account",
          "type": "address"
        }
      ],
      "name": "Unpaused",
      "type": "event"
    },
    {
      "anonymous": false,
      "inputs": [
        {
          "indexed": true,
          "internalType": "address",
          "name": "implementation",
          "type": "address"
        }
      ],
      "name": "Upgraded",
      "type": "event"
    },
    {
      "inputs": [],
      "name": "BANLIST_ROLE",
      "outputs": [
        {
          "internalType": "bytes32",
          "name": "",
          "type": "bytes32"
        }
      ],
      "stateMutability": "view",
      "type": "function"
    },
    {
      "inputs": [],
      "name": "BURNER_ROLE",
      "outputs": [
        {
          "internalType": "bytes32",
          "name": "",
          "type": "bytes32"
        }
      ],
      "stateMutability": "view",
      "type": "function"
    },
    {
      "inputs": [],
      "name": "DEFAULT_ADMIN_ROLE",
      "outputs": [
        {
          "internalType": "bytes32",
          "name": "",
          "type": "bytes32"
        }
      ],
      "stateMutability": "view",
      "type": "function"
    },
    {
      "inputs": [],
      "name": "MINTER_ROLE",
      "outputs": [
        {
          "internalType": "bytes32",
          "name": "",
          "type": "bytes32"
        }
      ],
      "stateMutability": "view",
      "type": "function"
    },
    {
      "inputs": [],
      "name": "PAUSE_ROLE",
      "outputs": [
        {
          "internalType": "bytes32",
          "name": "",
          "type": "bytes32"
        }
      ],
      "stateMutability": "view",
      "type": "function"
    },
    {
      "inputs": [],
      "name": "UPGRADE_INTERFACE_VERSION",
      "outputs": [
        {
          "internalType": "string",
          "name": "",
          "type": "string"
        }
      ],
      "stateMutability": "view",
      "type": "function"
    },
    {
      "inputs": [],
      "name": "UPGRADE_ROLE",
      "outputs": [
        {
          "internalType": "bytes32",
          "name": "",
          "type": "bytes32"
        }
      ],
      "stateMutability": "view",
      "type": "function"
    },
    {
      "inputs": [
        {
          "internalType": "address",
          "name": "owner",
          "type": "address"
        },
        {
          "internalType": "address",
          "name": "spender",
          "type": "address"
        }
      ],
      "name": "allowance",
      "outputs": [
        {
          "internalType": "uint256",
          "name": "",
          "type": "uint256"
        }
      ],
      "stateMutability": "view",
      "type": "function"
    },
    {
      "inputs": [
        {
          "internalType": "address",
          "name": "spender",
          "type": "address"
        },
        {
          "internalType": "uint256",
          "name": "value",
          "type": "uint256"
        }
      ],
      "name": "approve",
      "outputs": [
        {
          "internalType": "bool",
          "name": "",
          "type": "bool"
        }
      ],
      "stateMutability": "nonpayable",
      "type": "function"
    },
    {
      "inputs": [
        {
          "internalType": "address",
          "name": "account",
          "type": "address"
        }
      ],
      "name": "balanceOf",
      "outputs": [
        {
          "internalType": "uint256",
          "name": "",
          "type": "uint256"
        }
      ],
      "stateMutability": "view",
      "type": "function"
    },
    {
      "inputs": [
        {
          "internalType": "address[]",
          "name": "addresses",
          "type": "address[]"
        }
      ],
      "name": "banAddresses",
      "outputs": [],
      "stateMutability": "nonpayable",
      "type": "function"
    },
    {
      "inputs": [
        {
          "internalType": "address",
          "name": "from",
          "type": "address"
        },
        {
          "internalType": "uint256",
          "name": "amount",
          "type": "uint256"
        }
      ],
      "name": "burn",
      "outputs": [],
      "stateMutability": "nonpayable",
      "type": "function"
    },
    {
      "inputs": [],
      "name": "decimals",
      "outputs": [
        {
          "internalType": "uint8",
          "name": "",
          "type": "uint8"
        }
      ],
      "stateMutability": "view",
      "type": "function"
    },
    {
      "inputs": [
        {
          "internalType": "address",
          "name": "spender",
          "type": "address"
        },
        {
          "internalType": "uint256",
          "name": "subtractedValue",
          "type": "uint256"
        }
      ],
      "name": "decreaseAllowance",
      "outputs": [
        {
          "internalType": "bool",
          "name": "",
          "type": "bool"
        }
      ],
      "stateMutability": "nonpayable",
      "type": "function"
    },
    {
      "inputs": [
        {
          "internalType": "bytes32",
          "name": "role",
          "type": "bytes32"
        }
      ],
      "name": "getRoleAdmin",
      "outputs": [
        {
          "internalType": "bytes32",
          "name": "",
          "type": "bytes32"
        }
      ],
      "stateMutability": "view",
      "type": "function"
    },
    {
      "inputs": [
        {
          "internalType": "bytes32",
          "name": "role",
          "type": "bytes32"
        },
        {
          "internalType": "uint256",
          "name": "index",
          "type": "uint256"
        }
      ],
      "name": "getRoleMember",
      "outputs": [
        {
          "internalType": "address",
          "name": "",
          "type": "address"
        }
      ],
      "stateMutability": "view",
      "type": "function"
    },
    {
      "inputs": [
        {
          "internalType": "bytes32",
          "name": "role",
          "type": "bytes32"
        }
      ],
      "name": "getRoleMemberCount",
      "outputs": [
        {
          "internalType": "uint256",
          "name": "",
          "type": "uint256"
        }
      ],
      "stateMutability": "view",
      "type": "function"
    },
    {
      "inputs": [
        {
          "internalType": "bytes32",
          "name": "role",
          "type": "bytes32"
        }
      ],
      "name": "getRoleMembers",
      "outputs": [
        {
          "internalType": "address[]",
          "name": "",
          "type": "address[]"
        }
      ],
      "stateMutability": "view",
      "type": "function"
    },
    {
      "inputs": [
        {
          "internalType": "bytes32",
          "name": "role",
          "type": "bytes32"
        },
        {
          "internalType": "address",
          "name": "account",
          "type": "address"
        }
      ],
      "name": "grantRole",
      "outputs": [],
      "stateMutability": "nonpayable",
      "type": "function"
    },
    {
      "inputs": [
        {
          "internalType": "bytes32",
          "name": "role",
          "type": "bytes32"
        },
        {
          "internalType": "address",
          "name": "account",
          "type": "address"
        }
      ],
      "name": "hasRole",
      "outputs": [
        {
          "internalType": "bool",
          "name": "",
          "type": "bool"
        }
      ],
      "stateMutability": "view",
      "type": "function"
    },
    {
      "inputs": [
        {
          "internalType": "address",
          "name": "spender",
          "type": "address"
        },
        {
          "internalType": "uint256",
          "name": "addedValue",
          "type": "uint256"
        }
      ],
      "name": "increaseAllowance",
      "outputs": [
        {
          "internalType": "bool",
          "name": "",
          "type": "bool"
        }
      ],
      "stateMutability": "nonpayable",
      "type": "function"
    },
    {
      "inputs": [
        {
          "internalType": "string",
          "name": "_name",
          "type": "string"
        },
        {
          "internalType": "string",
          "name": "_symbol",
          "type": "string"
        },
        {
          "internalType": "address",
          "name": "_admin",
          "type": "address"
        },
        {
          "internalType": "uint256",
          "name": "_issueCap",
          "type": "uint256"
        },
        {
          "internalType": "address",
          "name": "_kycManager",
          "type": "address"
        }
      ],
      "name": "initialize",
      "outputs": [],
      "stateMutability": "nonpayable",
      "type": "function"
    },
    {
      "inputs": [
        {
          "internalType": "address",
          "name": "account",
          "type": "address"
        }
      ],
      "name": "isBanned",
      "outputs": [
        {
          "internalType": "bool",
          "name": "",
          "type": "bool"
        }
      ],
      "stateMutability": "view",
      "type": "function"
    },
    {
      "inputs": [],
      "name": "issueCap",
      "outputs": [
        {
          "internalType": "uint256",
          "name": "",
          "type": "uint256"
        }
      ],
      "stateMutability": "view",
      "type": "function"
    },
    {
      "inputs": [],
      "name": "kycManager",
      "outputs": [
        {
          "internalType": "address",
          "name": "",
          "type": "address"
        }
      ],
      "stateMutability": "view",
      "type": "function"
    },
    {
      "inputs": [
        {
          "internalType": "address",
          "name": "to",
          "type": "address"
        },
        {
          "internalType": "uint256",
          "name": "amount",
          "type": "uint256"
        }
      ],
      "name": "mint",
      "outputs": [],
      "stateMutability": "nonpayable",
      "type": "function"
    },
    {
      "inputs": [],
      "name": "name",
      "outputs": [
        {
          "internalType": "string",
          "name": "",
          "type": "string"
        }
      ],
      "stateMutability": "view",
      "type": "function"
    },
    {
      "inputs": [],
      "name": "pause",
      "outputs": [],
      "stateMutability": "nonpayable",
      "type": "function"
    },
    {
      "inputs": [],
      "name": "paused",
      "outputs": [
        {
          "internalType": "bool",
          "name": "",
          "type": "bool"
        }
      ],
      "stateMutability": "view",
      "type": "function"
    },
    {
      "inputs": [],
      "name": "proxiableUUID",
      "outputs": [
        {
          "internalType": "bytes32",
          "name": "",
          "type": "bytes32"
        }
      ],
      "stateMutability": "view",
      "type": "function"
    },
    {
      "inputs": [
        {
          "internalType": "bytes32",
          "name": "role",
          "type": "bytes32"
        },
        {
          "internalType": "address",
          "name": "callerConfirmation",
          "type": "address"
        }
      ],
      "name": "renounceRole",
      "outputs": [],
      "stateMutability": "nonpayable",
      "type": "function"
    },
    {
      "inputs": [
        {
          "internalType": "bytes32",
          "name": "role",
          "type": "bytes32"
        },
        {
          "internalType": "address",
          "name": "account",
          "type": "address"
        }
      ],
      "name": "revokeRole",
      "outputs": [],
      "stateMutability": "nonpayable",
      "type": "function"
    },
    {
      "inputs": [
        {
          "internalType": "uint256",
          "name": "newCap",
          "type": "uint256"
        }
      ],
      "name": "setIssueCap",
      "outputs": [],
      "stateMutability": "nonpayable",
      "type": "function"
    },
    {
      "inputs": [
        {
          "internalType": "address",
          "name": "newManager",
          "type": "address"
        }
      ],
      "name": "setKycManager",
      "outputs": [],
      "stateMutability": "nonpayable",
      "type": "function"
    },
    {
      "inputs": [
        {
          "internalType": "bytes4",
          "name": "interfaceId",
          "type": "bytes4"
        }
      ],
      "name": "supportsInterface",
      "outputs": [
        {
          "internalType": "bool",
          "name": "",
          "type": "bool"
        }
      ],
      "stateMutability": "view",
      "type": "function"
    },
    {
      "inputs": [],
      "name": "symbol",
      "outputs": [
        {
          "internalType": "string",
          "name": "",
          "type": "string"
        }
      ],
      "stateMutability": "view",
      "type": "function"
    },
    {
      "inputs": [],
      "name": "totalSupply",
      "outputs": [
        {
          "internalType": "uint256",
          "name": "",
          "type": "uint256"
        }
      ],
      "stateMutability": "view",
      "type": "function"
    },
    {
      "inputs": [
        {
          "internalType": "address",
          "name": "to",
          "type": "address"
        },
        {
          "internalType": "uint256",
          "name": "value",
          "type": "uint256"
        }
      ],
      "name": "transfer",
      "outputs": [
        {
          "internalType": "bool",
          "name": "",
          "type": "bool"
        }
      ],
      "stateMutability": "nonpayable",
      "type": "function"
    },
    {
      "inputs": [
        {
          "internalType": "address",
          "name": "from",
          "type": "address"
        },
        {
          "internalType": "address",
          "name": "to",
          "type": "address"
        },
        {
          "internalType": "uint256",
          "name": "value",
          "type": "uint256"
        }
      ],
      "name": "transferFrom",
      "outputs": [
        {
          "internalType": "bool",
          "name": "",
          "type": "bool"
        }
      ],
      "stateMutability": "nonpayable",
      "type": "function"
    },
    {
      "inputs": [
        {
          "internalType": "address[]",
          "name": "addresses",
          "type": "address[]"
        }
      ],
      "name": "unbanAddresses",
      "outputs": [],
      "stateMutability": "nonpayable",
      "type": "function"
    },
    {
      "inputs": [],
      "name": "unpause",
      "outputs": [],
      "stateMutability": "nonpayable",
      "type": "function"
    },
    {
      "inputs": [
        {
          "internalType": "address",
          "name": "newImplementation",
          "type": "address"
        },
        {
          "internalType": "bytes",
          "name": "data",
          "type": "bytes"
        }
      ],
      "name": "upgradeToAndCall",
      "outputs": [],
      "stateMutability": "payable",
      "type": "function"
    },
    {
      "inputs": [],
      "name": "version",
      "outputs": [
        {
          "internalType": "string",
          "name": "",
          "type": "string"
        }
      ],
      "stateMutability": "pure",
      "type": "function"
    }
  ],
  "transactionHash": "0xd6dc67cd39cd7c5dad42afad8416b635430872e185233ec84dc487d6b401e7ec",
  "args": [],
  "numDeployments": 1,
  "solcInputHash": "dc8a670e934dfe50a8865a17ca48c1f8",
  "bytecode": "0x60a080604052346100cc57306080527ff0c57e16840df040f15088dc2f81fe391c3923bec73e23a9662efc9c229c6a009081549060ff8260401c166100bd57506001600160401b036002600160401b031982821601610078575b6040516125c690816100d182396080518181816110ca015261116b0152f35b6001600160401b031990911681179091556040519081527fc7f505b2f371ae2175ee4913f4499e1f2633a7b5936321eed1cdaeb6115181d290602090a15f8080610059565b63f92ee8a960e01b8152600490fd5b5f80fdfe6080604090808252600480361015610015575f80fd5b5f3560e01c91826301ffc9a7146119eb5750816306fdde031461193f578163095ea7b31461191657816314000936146118f957816318160ddd146118cf57816323b872dd146117ee578163248a9ca3146117b8578163282c51f31461177e5781632f2ff15d14611703578163313ce567146116e857816336568abe146116a4578163389ed2671461166a578163395093511461161f5781633f4ba83a146115aa57816340c10f19146113985781634f1ef2861461111b57816352d1902d146110b757816354fd4d501461107b5781635c975abb1461104c57816370a08231146110095781637afea44f14610fe15781637fb9a8e114610f785781638456cb5914610f135781638a0a6efa14610e855781639010d07c14610e3a57816391d1485414610dea57816395d89b4114610d1157816397f735d514610cd55781639dc29fac14610ab7578163a1dd6a2e1461065e578163a217fddf14610644578163a3246ad314610592578163a457c2d714610509578163a9059cbb146104d9578163ad3cb1cc14610499578163b908afa81461045f578163c35d4fb8146103b4578163c5b00f2b1461037a578163ca15c87314610347578163d53913931461030d578163d547741f146102c5578163db46d0f214610241575063dd62ed3e146101f9575f80fd5b3461023d578060031936011261023d57602090610214611a9e565b61022561021f611ab4565b91611c32565b9060018060a01b03165f528252805f20549051908152f35b5f80fd5b823461023d57602036600319011261023d57813561025d611f36565b801515806102ae575b6102a0577fd7ea5be1533b51ca30636af78c6c586ef5a2266d004bf8850c17697566d993d792505f5490805f5582519182526020820152a1005b5051631f13bda760e21b8152fd5b505f805160206124f1833981519152548110610266565b823461023d578060031936011261023d5761030b913561030660016102e8611ab4565b93835f525f805160206125518339815191526020525f200154611fe7565b612015565b005b823461023d575f36600319011261023d57602090517f9f2df0fed2c77648de5860a4cc508cd0818c85b8b8a1ab4ceeef8d981c8956a68152f35b823461023d57602036600319011261023d57602091355f525f805160206124b18339815191528252805f20549051908152f35b823461023d575f36600319011261023d57602090517f34b67ed3a95da31fd975bb4d4a47679b91dd4a73f172d6b570c46f0c2a1769488152f35b823461023d576103c336611b6e565b91906103cd611f8c565b5f5b8381106103d857005b6001600160a01b036103f36103ee838786611c6a565b611c8e565b1690815f52600191602083815260ff865f205416610448578390825f5252845f208360ff198254161790557ff5ccd95e2294edead25b59a71c189b3543cffbde2ec0d763800bdcc8807c7c3e5f80a2016103cf565b8551634ae18d8f60e11b8152808901839052602490fd5b823461023d575f36600319011261023d57602090517f88aa719609f728b0c5e7fb8dd3608d5c25d497efbb3b9dd64e9251ebba1015088152f35b823461023d575f36600319011261023d5780516104d5916104b982611aca565b60058252640352e302e360dc1b60208301525191829182611a57565b0390f35b823461023d578060031936011261023d576020906105026104f8611a9e565b6024359033611cc0565b5160018152f35b823461023d578060031936011261023d57610522611a9e565b6024359261052f33611c32565b60018060a01b0383165f52602052825f2054938085106105735784039384116105605750602092610502913361205b565b601190634e487b7160e01b5f525260245ffd5b61058e90858551948594637dc7a0d960e11b86528501611ca2565b0390fd5b90503461023d576020908160031936011261023d578290355f525f805160206124b18339815191528252805f208151928381835491828152019081935f52825f20905f5b81811061063057505050846105ec910385611afa565b825181815293518185018190528493840192915f5b82811061061057505050500390f35b83516001600160a01b031685528695509381019392810192600101610601565b8254845292840192600192830192016105d6565b823461023d575f36600319011261023d57602090515f8152f35b90503461023d5760a036600319011261023d5767ffffffffffffffff813581811161023d576106909036908401611bbb565b60243582811161023d576106a79036908501611bbb565b926001600160a01b03906044358281169182820361023d5760843593841680940361023d577ff0c57e16840df040f15088dc2f81fe391c3923bec73e23a9662efc9c229c6a009687549660ff888b1c16159681891698891580610ab0575b6001809b149081610aa6575b159081610a9d575b50610a8d5767ffffffffffffffff1981168a178b5588610a6e575b5061073d6122e4565b6107456122e4565b8051828111610a5b577f52c63247e1f47db19d5ce0460030c497f067ca4cebf71ba98eeadabe20bace03908061077b8354611bd9565b93601f94858111610a0b575b506020908583116001146109a2575f92610997575b50505f19600383901b1c1916908b1b1790555b82519182116109845781907f52c63247e1f47db19d5ce0460030c497f067ca4cebf71ba98eeadabe20bace04936107e68554611bd9565b828111610932575b5060209183116001146108d3575f926108c8575b50505f19600383901b1c191690881b1790555b61081d6122e4565b6108256122e4565b82156108ba5750610835906120ff565b610893575b506064355f55600280546001600160a01b03191691909117905561085a57005b815460ff60401b191690915590519081527fc7f505b2f371ae2175ee4913f4499e1f2633a7b5936321eed1cdaeb6115181d290602090a1005b6108b3905f80525f805160206124b1833981519152602052865f20612325565b505f61083a565b875163e6c4247b60e01b8152fd5b015190505f80610802565b908a9350601f19831691855f52815f20925f5b81811061091a57508411610902575b505050811b019055610815565b01515f1960f88460031b161c191690555f80806108f5565b8284015185558d9690940193602093840193016108e6565b90919250845f5260205f208380860160051c8201926020871061097b575b9186958e929594930160051c01915b82811061096d5750506107ee565b5f81558695508d910161095f565b92508192610950565b604184634e487b7160e01b5f525260245ffd5b015190505f8061079c565b908d9350601f19831691855f52815f20925f5b8181106109e9575084116109d1575b505050811b0190556107af565b01515f1960f88460031b161c191690555f80806109c4565b93839596602092939491839286015181550195019301908f95949392916109b5565b909150835f5260205f208580850160051c82019260208610610a52575b918f91869594930160051c01915b828110610a44575050610787565b5f81558594508f9101610a36565b92508192610a28565b604185634e487b7160e01b5f525260245ffd5b68ffffffffffffffffff191668010000000000000001178a555f610734565b8b5163f92ee8a960e01b81528590fd5b9050155f610719565b303b159150610711565b5088610705565b823461023d578060031936011261023d57610ad0611a9e565b916024918235907f3c11d16cbaffd01df69ce1c404f6340ee057498f5f00246190ea54220576a84892835f526020935f805160206125518339815191528552825f20335f52855260ff835f20541615610cbb57508215610cad576001600160a01b0386811695908615610c9857865f526001865260ff845f205416610c8357600254168581610c04575b505050610b656122a5565b845f525f805160206124d183398151915295868552825f205491848310610be9575050829085967fcc16f5dbb4873280815c1ee09dbd06736cffcc184412cf7a71a0fdb75d397ca5965f52855203815f20555f805160206124f18339815191528281540390555f855f80516020612531833981519152858451868152a351908152a2005b61058e8584865194859463391434e360e21b86528501611ca2565b82918551928380926351b7995160e01b82528b888301525afa908115610c79575f91610c4c575b5015610c38578085610b5a565b9151633fa85e0f60e21b8152908101859052fd5b610c6c9150863d8811610c72575b610c648183611afa565b8101906120e7565b88610c2b565b503d610c5a565b84513d5f823e3d90fd5b5091516388bd91d360e01b8152908101859052fd5b50915f905191634b637e8f60e11b8352820152fd5b905163162908e360e11b8152fd5b85604493519263e2517d3f60e01b84523390840152820152fd5b823461023d57602036600319011261023d576020906001600160a01b03610cfa611a9e565b165f526001825260ff815f20541690519015158152f35b823461023d575f36600319011261023d5780515f917f52c63247e1f47db19d5ce0460030c497f067ca4cebf71ba98eeadabe20bace048054610d5281611bd9565b908185526020926001916001811690815f14610dc85750600114610d8c575b6104d58686610d82828b0383611afa565b5191829182611a57565b5f908152838120939650925b828410610db557505050826104d594610d82928201019486610d71565b8054868501880152928601928101610d98565b60ff191687860152505050151560051b8301019250610d82826104d586610d71565b823461023d578060031936011261023d57602091610e06611ab4565b90355f525f805160206125518339815191528352815f209060018060a01b03165f52825260ff815f20541690519015158152f35b823461023d578060031936011261023d57602091355f525f805160206124b18339815191528252610e6f602435825f206122cf565b905491519160018060a01b039160031b1c168152f35b823461023d57610e9436611b6e565b9190610e9e611f8c565b5f5b838110610ea957005b6001600160a01b03610ebf6103ee838786611c6a565b1690815f52600191602083815260ff865f20541615610448578390825f5252845f2060ff1981541690557fc98af8f4ec4ddc4c9cd83aa9d9adbf34053062dc51ad93a562c787c2cc5dbc475f80a201610ea0565b823461023d575f36600319011261023d5760207f62e78cea01bee320cd4e420270b5ea74000d11b0c9f74754ebdbfc544b05a25891610f50611ebd565b610f586122a5565b5f80516020612571833981519152805460ff1916600117905551338152a1005b3461023d57602036600319011261023d57610f91611a9e565b610f99611f36565b600280546001600160a01b039283166001600160a01b0319821681179092559091167fc7d4e5ad6888b83c1d5a268d8df5f455d496d22f82ffacc917158ed9f4579c405f80a3005b823461023d575f36600319011261023d5760025490516001600160a01b039091168152602090f35b823461023d57602036600319011261023d576020906001600160a01b0361102e611a9e565b165f525f805160206124d18339815191528252805f20549051908152f35b823461023d575f36600319011261023d5760209060ff5f80516020612571833981519152541690519015158152f35b823461023d575f36600319011261023d5780516104d59161109b82611aca565b60058252640312e302e360dc1b60208301525191829182611a57565b823461023d575f36600319011261023d577f00000000000000000000000000000000000000000000000000000000000000006001600160a01b0316300361110e57602090515f805160206125118339815191528152f35b5163703e46dd60e11b8152fd5b90508160031936011261023d57611130611a9e565b602492833567ffffffffffffffff811161023d573660238201121561023d5761116190369086818701359101611b38565b6001600160a01b037f0000000000000000000000000000000000000000000000000000000000000000811630811490811561137d575b5061136d577f88aa719609f728b0c5e7fb8dd3608d5c25d497efbb3b9dd64e9251ebba10150890815f526020915f805160206125518339815191528352845f20335f52835260ff855f20541615611350575084169384156113405783516352d1902d60e01b815282818881895afa5f9181611311575b5061122757505050505191634c9c8ce360e01b8352820152fd5b90868686938a5f80516020612511833981519152918281036112fc5750843b156112e8575080546001600160a01b031916821790558351907fbc7cd75a20ee27fd9adebab32041f755214dbc6bffa90cc0225b39da2e5c2d3b5f80a28551156112cf5750505f80858561030b97519101845af4913d156112c5573d6112b76112ae82611b1c565b92519283611afa565b81525f81943d92013e61244d565b506060925061244d565b935093505050346112dc57005b63b398979f60e01b8152fd5b8551634c9c8ce360e01b8152808501849052fd5b8651632a87526960e21b815280860191909152fd5b9091508381813d8311611339575b6113298183611afa565b8101031261023d5751905f61120d565b503d61131f565b835163e6c4247b60e01b81528690fd5b845163e2517d3f60e01b8152338189015280890191909152604490fd5b825163703e46dd60e11b81528590fd5b9050815f80516020612511833981519152541614155f611197565b90503461023d578160031936011261023d576113b2611a9e565b906024928335907f9f2df0fed2c77648de5860a4cc508cd0818c85b8b8a1ab4ceeef8d981c8956a692835f526020935f805160206125518339815191528552825f20335f52855260ff835f2054161561159057508215610cad575f548061155f575b506001600160a01b0394851694851561154a57855f526001855260ff835f2054166115355760025416806114c6575b50507f0f6798a560793a54c3bcfe86a93cde1e73087d944c0ea20544137d41213968859394506114716122a5565b5f805160206124f183398151915261148a838254611c11565b9055845f525f805160206124d18339815191528352805f20828154019055845f5f80516020612531833981519152858451868152a351908152a2005b8487918451928380926351b7995160e01b82528a878301525afa90811561152b575f9161150e575b50156114fa5780611443565b8486925191633fa85e0f60e21b8352820152fd5b6115259150853d8711610c7257610c648183611afa565b5f6114ee565b83513d5f823e3d90fd5b5084869251916377b0bb1960e11b8352820152fd5b505f8692519163ec442f0560e01b8352820152fd5b611577845f805160206124f183398151915254611c11565b11611582575f611414565b9051635284855b60e01b8152fd5b86604493519263e2517d3f60e01b84523390840152820152fd5b823461023d575f36600319011261023d576115c3611ebd565b5f805160206125718339815191529182549060ff821615611611577f5db9ee0a495bf2e6ff9c91a7834c1ba4fdd244a5e8aa4e537bd38aeae4b073aa602084868560ff1916905551338152a1005b8251638dfc202b60e01b8152fd5b823461023d578060031936011261023d5760209061050261163e611a9e565b61164733611c32565b60018060a01b0382165f528452611663602435845f2054611c11565b903361205b565b823461023d575f36600319011261023d57602090517f139c2898040ef16910dc9f44dc697df79363da767d8bc92f2e310312b816e46d8152f35b823461023d578060031936011261023d576116bd611ab4565b90336001600160a01b038316036116d9575061030b9135612015565b5163334bd91960e11b81529050fd5b823461023d575f36600319011261023d576020905160128152f35b90503461023d578160031936011261023d57359061171f611ab4565b90825f525f805160206125518339815191526020526117436001825f200154611fe7565b61174d828461219c565b61175357005b5f9283525f805160206124b183398151915260205290912061030b916001600160a01b031690612325565b823461023d575f36600319011261023d57602090517f3c11d16cbaffd01df69ce1c404f6340ee057498f5f00246190ea54220576a8488152f35b823461023d57602036600319011261023d57602091355f525f8051602061255183398151915282526001815f2001549051908152f35b90503461023d57606036600319011261023d57611809611a9e565b611811611ab4565b906044359261181f82611c32565b335f52602052845f2054905f198210611841575b602086610502878787611cc0565b8482106118b3576001600160a01b0383161561189d5733156118875750918184610502946118726020989795611c32565b335f52885203855f2055919394819350611833565b6024905f875191634a1406b160e11b8352820152fd5b6024905f87519163e602df0560e01b8352820152fd5b61058e858751938493637dc7a0d960e11b855233908501611ca2565b823461023d575f36600319011261023d576020905f805160206124f1833981519152549051908152f35b823461023d575f36600319011261023d576020905f549051908152f35b823461023d578060031936011261023d57602090610502611935611a9e565b602435903361205b565b823461023d575f36600319011261023d5780515f917f52c63247e1f47db19d5ce0460030c497f067ca4cebf71ba98eeadabe20bace03805461198081611bd9565b908185526020926001916001811690815f14610dc857506001146119af576104d58686610d82828b0383611afa565b5f908152838120939650925b8284106119d857505050826104d594610d82928201019486610d71565b80548685018801529286019281016119bb565b903461023d57602036600319011261023d57359063ffffffff60e01b821680920361023d57602091635a05180f60e01b8114908115611a2c575b5015158152f35b637965db0b60e01b811491508115611a46575b5083611a25565b6301ffc9a760e01b14905083611a3f565b602080825282518183018190529093925f5b828110611a8a57505060409293505f838284010152601f8019910116010190565b818101860151848201604001528501611a69565b600435906001600160a01b038216820361023d57565b602435906001600160a01b038216820361023d57565b6040810190811067ffffffffffffffff821117611ae657604052565b634e487b7160e01b5f52604160045260245ffd5b90601f8019910116810190811067ffffffffffffffff821117611ae657604052565b67ffffffffffffffff8111611ae657601f01601f191660200190565b929192611b4482611b1c565b91611b526040519384611afa565b82948184528183011161023d578281602093845f960137010152565b90602060031983011261023d5760043567ffffffffffffffff9283821161023d578060238301121561023d57816004013593841161023d5760248460051b8301011161023d576024019190565b9080601f8301121561023d57816020611bd693359101611b38565b90565b90600182811c92168015611c07575b6020831014611bf357565b634e487b7160e01b5f52602260045260245ffd5b91607f1691611be8565b91908201809211611c1e57565b634e487b7160e01b5f52601160045260245ffd5b6001600160a01b03165f9081527f52c63247e1f47db19d5ce0460030c497f067ca4cebf71ba98eeadabe20bace016020526040902090565b9190811015611c7a5760051b0190565b634e487b7160e01b5f52603260045260245ffd5b356001600160a01b038116810361023d5790565b604091949392606082019560018060a01b0316825260208201520152565b9291906001600160a01b03808516918215611ea5578116928315611e8d57825f526020916001835260409060ff825f205416611e7557855f526001845260ff825f205416611e5d576002541680611d8b575b50611d1b6122a5565b835f525f805160206124d1833981519152808452815f205497838910611d6d57508495969783915f80516020612531833981519152965f52855203815f2055855f52805f2082815401905551908152a3565b889061058e85855193849363391434e360e21b855260048501611ca2565b81516351b7995160e01b80825260048201879052908581602481865afa908115610c79575f91611e40575b5015611e28578490602484518094819382528a60048301525afa908115611e1e575f91611e01575b5015611dea575f611d12565b51633fa85e0f60e21b815260048101859052602490fd5b611e189150843d8611610c7257610c648183611afa565b5f611dde565b82513d5f823e3d90fd5b8251633fa85e0f60e21b815260048101879052602490fd5b611e579150863d8811610c7257610c648183611afa565b5f611db6565b81516377b0bb1960e11b815260048101879052602490fd5b81516388bd91d360e01b815260048101869052602490fd5b60405163ec442f0560e01b81525f6004820152602490fd5b604051634b637e8f60e11b81525f6004820152602490fd5b335f9081527f85aa68ae9688c2bba3dc27a57a38bf2786c03751927fe89ecfd8b396d55ff13360205260409020547f139c2898040ef16910dc9f44dc697df79363da767d8bc92f2e310312b816e46d9060ff1615611f185750565b6044906040519063e2517d3f60e01b82523360048301526024820152fd5b335f9081527fb7db2dd08fcb62d0c9e08c51941cae53c267786a0b75803fb7960902fc8ef97d602052604090205460ff1615611f6e57565b60405163e2517d3f60e01b81523360048201525f6024820152604490fd5b335f9081527fff741916e5d54f4691eeccedb3d2ee65348d8f0b8170d606b6c135fdbbe8e3d360205260409020547f34b67ed3a95da31fd975bb4d4a47679b91dd4a73f172d6b570c46f0c2a1769489060ff1615611f185750565b805f525f8051602061255183398151915260205260405f20335f5260205260ff60405f20541615611f185750565b61201f8282612226565b918261202a57505090565b5f9182525f805160206124b18339815191526020526040909120612057916001600160a01b031690612388565b5090565b916001600160a01b038084169283156120cf57169283156120b7577f8c5be1e5ebec7d5bd14f71427d1e84f3dd0314c0f7b2291e5b200ac8c7c3b925916120a3602092611c32565b855f5282528060405f2055604051908152a3565b604051634a1406b160e11b81525f6004820152602490fd5b60405163e602df0560e01b81525f6004820152602490fd5b9081602091031261023d5751801515810361023d5790565b6001600160a01b03165f8181527fb7db2dd08fcb62d0c9e08c51941cae53c267786a0b75803fb7960902fc8ef97d60205260409020545f805160206125518339815191529060ff16612196575f805260205260405f20815f5260205260405f20600160ff1982541617905533905f7f2f8788117e7eff1d82e926ec794901d17c78024a50270940304540a733656f0d8180a4600190565b50505f90565b90815f525f805160206125518339815191528060205260405f209160018060a01b031691825f5260205260ff60405f205416155f1461221f57825f5260205260405f20815f5260205260405f20600160ff1982541617905533917f2f8788117e7eff1d82e926ec794901d17c78024a50270940304540a733656f0d5f80a4600190565b5050505f90565b90815f525f805160206125518339815191528060205260405f209160018060a01b031691825f5260205260ff60405f2054165f1461221f57825f5260205260405f20815f5260205260405f2060ff19815416905533917ff6391f5c32d9c69d2a47ea670b442974b53935d1edc7fd64eb21e047a839171b5f80a4600190565b60ff5f8051602061257183398151915254166122bd57565b60405163d93c066560e01b8152600490fd5b8054821015611c7a575f5260205f2001905f90565b60ff7ff0c57e16840df040f15088dc2f81fe391c3923bec73e23a9662efc9c229c6a005460401c161561231357565b604051631afcd79f60e31b8152600490fd5b6001810190825f528160205260405f2054155f1461221f578054600160401b811015611ae65761237561235f8260018794018555846122cf565b819391549060031b91821b915f19901b19161790565b905554915f5260205260405f2055600190565b906001820191815f528260205260405f2054908115155f14612445575f1991808301818111611c1e57825490848201918211611c1e57818103612410575b505050805480156123fc578201916123de83836122cf565b909182549160031b1b19169055555f526020525f6040812055600190565b634e487b7160e01b5f52603160045260245ffd5b61243061242061235f93866122cf565b90549060031b1c928392866122cf565b90555f528460205260405f20555f80806123c6565b505050505f90565b90612474575080511561246257602081519101fd5b60405163d6bda27560e01b8152600490fd5b815115806124a7575b612485575090565b604051639996b31560e01b81526001600160a01b039091166004820152602490fd5b50803b1561247d56fec1f6fe24621ce81ec5827caf0253cadb74709b061630e6b55e8237170593200052c63247e1f47db19d5ce0460030c497f067ca4cebf71ba98eeadabe20bace0052c63247e1f47db19d5ce0460030c497f067ca4cebf71ba98eeadabe20bace02360894a13ba1a3210667c828492db98dca3e2076cc3735a920a3ca505d382bbcddf252ad1be2c89b69c2b068fc378daa952ba7f163c4a11628f55a4df523b3ef02dd7bc7dec4dceedda775e58dd541e08a116c6c53815c0bd028192f7b626800cd5ed15c6e187e77e9aee88184c21f4f2182ab5827cb3b7e07fbedcd63f03300a26469706673582212209487e668568bab3890707e9b2df9f5ead6d5b5df28b7510ad845a6f354270a2364736f6c63430008180033",
  "devdoc": {
    "details": "Standard ERC-20 upgradeable for single-chain deployment Key Features: - Built-in AccessControlEnumerable for role management - Issue cap (maximum supply limit) - Ban list enforcement on all transfers - Burnable tokens - Pausable for emergency situations - Upgradeable via UUPS pattern",
    "errors": {
      "AccessControlBadConfirmation()": [
        {
          "details": "The caller of a function is not the expected one. NOTE: Don't confuse with {AccessControlUnauthorizedAccount}."
        }
      ],
      "AccessControlUnauthorizedAccount(address,bytes32)": [
        {
          "details": "The `account` is missing a role."
        }
      ],
      "AddressEmptyCode(address)": [
        {
          "details": "There's no code at `target` (it is not a contract)."
        }
      ],
      "ERC1967InvalidImplementation(address)": [
        {
          "details": "The `implementation` of the proxy is invalid."
        }
      ],
      "ERC1967NonPayable()": [
        {
          "details": "An upgrade function sees `msg.value > 0` that may be lost."
        }
      ],
      "ERC20InsufficientAllowance(address,uint256,uint256)": [
        {
          "details": "Indicates a failure with the `spender`’s `allowance`. Used in transfers.",
          "params": {
            "allowance": "Amount of tokens a `spender` is allowed to operate with.",
            "needed": "Minimum amount required to perform a transfer.",
            "spender": "Address that may be allowed to operate on tokens without being their owner."
          }
        }
      ],
      "ERC20InsufficientBalance(address,uint256,uint256)": [
        {
          "details": "Indicates an error related to the current `balance` of a `sender`. Used in transfers.",
          "params": {
            "balance": "Current balance for the interacting account.",
            "needed": "Minimum amount required to perform a transfer.",
            "sender": "Address whose tokens are being transferred."
          }
        }
      ],
      "ERC20InvalidApprover(address)": [
        {
          "details": "Indicates a failure with the `approver` of a token to be approved. Used in approvals.",
          "params": {
            "approver": "Address initiating an approval operation."
          }
        }
      ],
      "ERC20InvalidReceiver(address)": [
        {
          "details": "Indicates a failure with the token `receiver`. Used in transfers.",
          "params": {
            "receiver": "Address to which tokens are being transferred."
          }
        }
      ],
      "ERC20InvalidSender(address)": [
        {
          "details": "Indicates a failure with the token `sender`. Used in transfers.",
          "params": {
            "sender": "Address whose tokens are being transferred."
          }
        }
      ],
      "ERC20InvalidSpender(address)": [
        {
          "details": "Indicates a failure with the `spender` to be approved. Used in approvals.",
          "params": {
            "spender": "Address that may be allowed to operate on tokens without being their owner."
          }
        }
      ],
      "EnforcedPause()": [
        {
          "details": "The operation failed because the contract is paused."
        }
      ],
      "ExpectedPause()": [
        {
          "details": "The operation failed because the contract is not paused."
        }
      ],
      "FailedCall()": [
        {
          "details": "A call to an address target failed. The target may have reverted."
        }
      ],
      "InvalidInitialization()": [
        {
          "details": "The contract is already initialized."
        }
      ],
      "NotInitializing()": [
        {
          "details": "The contract is not initializing."
        }
      ],
      "UUPSUnauthorizedCallContext()": [
        {
          "details": "The call is from an unauthorized context."
        }
      ],
      "UUPSUnsupportedProxiableUUID(bytes32)": [
        {
          "details": "The storage `slot` is unsupported as a UUID."
        }
      ]
    },
    "events": {
      "Approval(address,address,uint256)": {
        "details": "Emitted when the allowance of a `spender` for an `owner` is set by a call to {approve}. `value` is the new allowance."
      },
      "Initialized(uint64)": {
        "details": "Triggered when the contract has been initialized or reinitialized."
      },
      "Paused(address)": {
        "details": "Emitted when the pause is triggered by `account`."
      },
      "RoleAdminChanged(bytes32,bytes32,bytes32)": {
        "details": "Emitted when `newAdminRole` is set as ``role``'s admin role, replacing `previousAdminRole` `DEFAULT_ADMIN_ROLE` is the starting admin for all roles, despite {RoleAdminChanged} not being emitted to signal this."
      },
      "RoleGranted(bytes32,address,address)": {
        "details": "Emitted when `account` is granted `role`. `sender` is the account that originated the contract call. This account bears the admin role (for the granted role). Expected in cases where the role was granted using the internal {AccessControl-_grantRole}."
      },
      "RoleRevoked(bytes32,address,address)": {
        "details": "Emitted when `account` is revoked `role`. `sender` is the account that originated the contract call:   - if using `revokeRole`, it is the admin role bearer   - if using `renounceRole`, it is the role bearer (i.e. `account`)"
      },
      "Transfer(address,address,uint256)": {
        "details": "Emitted when `value` tokens are moved from one account (`from`) to another (`to`). Note that `value` may be zero."
      },
      "Unpaused(address)": {
        "details": "Emitted when the pause is lifted by `account`."
      },
      "Upgraded(address)": {
        "details": "Emitted when the implementation is upgraded."
      }
    },
    "kind": "dev",
    "methods": {
      "allowance(address,address)": {
        "details": "Returns the remaining number of tokens that `spender` will be allowed to spend on behalf of `owner` through {transferFrom}. This is zero by default. This value changes when {approve} or {transferFrom} are called."
      },
      "approve(address,uint256)": {
        "details": "See {IERC20-approve}. NOTE: If `value` is the maximum `uint256`, the allowance is not updated on `transferFrom`. This is semantically equivalent to an infinite approval. Requirements: - `spender` cannot be the zero address."
      },
      "balanceOf(address)": {
        "details": "Returns the value of tokens owned by `account`."
      },
      "banAddresses(address[])": {
        "details": "Maximum batch size is 100 addresses to prevent gas limit issues",
        "params": {
          "addresses": "An array of addresses to be banned"
        }
      },
      "burn(address,uint256)": {
        "params": {
          "amount": "Amount to burn"
        }
      },
      "constructor": {
        "custom:oz-upgrades-unsafe-allow": "constructor"
      },
      "decimals()": {
        "details": "Returns the number of decimals used to get its user representation. For example, if `decimals` equals `2`, a balance of `505` tokens should be displayed to a user as `5.05` (`505 / 10 ** 2`). Tokens usually opt for a value of 18, imitating the relationship between Ether and Wei. This is the default value returned by this function, unless it's overridden. NOTE: This information is only used for _display_ purposes: it in no way affects any of the arithmetic of the contract, including {IERC20-balanceOf} and {IERC20-transfer}."
      },
      "decreaseAllowance(address,uint256)": {
        "params": {
          "spender": "The address which will spend the funds",
          "subtractedValue": "The amount to decrease the allowance by"
        },
        "returns": {
          "_0": "True if the operation succeeded"
        }
      },
      "getRoleAdmin(bytes32)": {
        "details": "Returns the admin role that controls `role`. See {grantRole} and {revokeRole}. To change a role's admin, use {_setRoleAdmin}."
      },
      "getRoleMember(bytes32,uint256)": {
        "details": "Returns one of the accounts that have `role`. `index` must be a value between 0 and {getRoleMemberCount}, non-inclusive. Role bearers are not sorted in any particular way, and their ordering may change at any point. WARNING: When using {getRoleMember} and {getRoleMemberCount}, make sure you perform all queries on the same block. See the following https://forum.openzeppelin.com/t/iterating-over-elements-on-enumerableset-in-openzeppelin-contracts/2296[forum post] for more information."
      },
      "getRoleMemberCount(bytes32)": {
        "details": "Returns the number of accounts that have `role`. Can be used together with {getRoleMember} to enumerate all bearers of a role."
      },
      "getRoleMembers(bytes32)": {
        "details": "Return all accounts that have `role` WARNING: This operation will copy the entire storage to memory, which can be quite expensive. This is designed to mostly be used by view accessors that are queried without any gas fees. Developers should keep in mind that this function has an unbounded cost, and using it as part of a state-changing function may render the function uncallable if the set grows to a point where copying to memory consumes too much gas to fit in a block."
      },
      "grantRole(bytes32,address)": {
        "details": "Grants `role` to `account`. If `account` had not been already granted `role`, emits a {RoleGranted} event. Requirements: - the caller must have ``role``'s admin role. May emit a {RoleGranted} event."
      },
      "hasRole(bytes32,address)": {
        "details": "Returns `true` if `account` has been granted `role`."
      },
      "increaseAllowance(address,uint256)": {
        "params": {
          "addedValue": "The amount to increase the allowance by",
          "spender": "The address which will spend the funds"
        },
        "returns": {
          "_0": "True if the operation succeeded"
        }
      },
      "initialize(string,string,address,uint256,address)": {
        "params": {
          "_admin": "Default admin address",
          "_issueCap": "Maximum supply limit (0 = unlimited)",
          "_kycManager": "KYC manager address (address(0) = permissionless mode)",
          "_name": "Token name",
          "_symbol": "Token symbol"
        }
      },
      "isBanned(address)": {
        "params": {
          "account": "The address to check"
        },
        "returns": {
          "_0": "True if the account is banned"
        }
      },
      "mint(address,uint256)": {
        "params": {
          "amount": "Amount to mint",
          "to": "Recipient address"
        }
      },
      "name()": {
        "details": "Returns the name of the token."
      },
      "paused()": {
        "details": "Returns true if the contract is paused, and false otherwise."
      },
      "proxiableUUID()": {
        "details": "Implementation of the ERC-1822 {proxiableUUID} function. This returns the storage slot used by the implementation. It is used to validate the implementation's compatibility when performing an upgrade. IMPORTANT: A proxy pointing at a proxiable contract should not be considered proxiable itself, because this risks bricking a proxy that upgrades to it, by delegating to itself until out of gas. Thus it is critical that this function revert if invoked through a proxy. This is guaranteed by the `notDelegated` modifier."
      },
      "renounceRole(bytes32,address)": {
        "details": "Revokes `role` from the calling account. Roles are often managed via {grantRole} and {revokeRole}: this function's purpose is to provide a mechanism for accounts to lose their privileges if they are compromised (such as when a trusted device is misplaced). If the calling account had been revoked `role`, emits a {RoleRevoked} event. Requirements: - the caller must be `callerConfirmation`. May emit a {RoleRevoked} event."
      },
      "revokeRole(bytes32,address)": {
        "details": "Revokes `role` from `account`. If `account` had been granted `role`, emits a {RoleRevoked} event. Requirements: - the caller must have ``role``'s admin role. May emit a {RoleRevoked} event."
      },
      "setIssueCap(uint256)": {
        "params": {
          "newCap": "New maximum supply (0 = unlimited)"
        }
      },
      "supportsInterface(bytes4)": {
        "details": "Returns true if this contract implements the interface defined by `interfaceId`. See the corresponding https://eips.ethereum.org/EIPS/eip-165#how-interfaces-are-identified[ERC section] to learn more about how these ids are created. This function call must use less than 30 000 gas."
      },
      "symbol()": {
        "details": "Returns the symbol of the token, usually a shorter version of the name."
      },
      "totalSupply()": {
        "details": "Returns the value of tokens in existence."
      },
      "transfer(address,uint256)": {
        "details": "See {IERC20-transfer}. Requirements: - `to` cannot be the zero address. - the caller must have a balance of at least `value`."
      },
      "transferFrom(address,address,uint256)": {
        "details": "See {IERC20-transferFrom}. Skips emitting an {Approval} event indicating an allowance update. This is not required by the ERC. See {xref-ERC20-_approve-address-address-uint256-bool-}[_approve]. NOTE: Does not update the allowance if the current allowance is the maximum `uint256`. Requirements: - `from` and `to` cannot be the zero address. - `from` must have a balance of at least `value`. - the caller must have allowance for ``from``'s tokens of at least `value`."
      },
      "unbanAddresses(address[])": {
        "details": "Maximum batch size is 100 addresses to prevent gas limit issues",
        "params": {
          "addresses": "An array of addresses to be unbanned"
        }
      },
      "upgradeToAndCall(address,bytes)": {
        "custom:oz-upgrades-unsafe-allow-reachable": "delegatecall",
        "details": "Upgrade the implementation of the proxy to `newImplementation`, and subsequently execute the function call encoded in `data`. Calls {_authorizeUpgrade}. Emits an {Upgraded} event."
      }
    },
    "stateVariables": {
      "__gap": {
        "details": "This empty reserved space is put in place to allow future versions to add new variables without shifting down storage in the inheritance chain. See https://docs.openzeppelin.com/contracts/4.x/upgradeable#storage_gaps"
      }
    },
    "title": "Token",
    "version": 1
  },
  "userdoc": {
    "kind": "user",
    "methods": {
      "banAddresses(address[])": {
        "notice": "Ban multiple accounts at once"
      },
      "burn(address,uint256)": {
        "notice": "Burn tokens"
      },
      "decreaseAllowance(address,uint256)": {
        "notice": "Decrease the allowance granted to spender"
      },
      "increaseAllowance(address,uint256)": {
        "notice": "Increase the allowance granted to spender"
      },
      "initialize(string,string,address,uint256,address)": {
        "notice": "Initialize the token"
      },
      "isBanned(address)": {
        "notice": "Check if an account is banned"
      },
      "mint(address,uint256)": {
        "notice": "Mint new tokens"
      },
      "pause()": {
        "notice": "Pause token transfers"
      },
      "setIssueCap(uint256)": {
        "notice": "Set issue cap"
      },
      "setKycManager(address)": {
        "notice": "Set or rotate the KycManager. Pass address(0) to flip to permissionless mode."
      },
      "unbanAddresses(address[])": {
        "notice": "Unban multiple accounts at once"
      },
      "unpause()": {
        "notice": "Unpause token transfers"
      }
    },
    "version": 1
  },
  "storageLayout": {
    "storage": [
      {
        "astId": 11203,
        "contract": "contracts/core/Token.sol:Token",
        "label": "issueCap",
        "offset": 0,
        "slot": "0",
        "type": "t_uint256"
      },
      {
        "astId": 11207,
        "contract": "contracts/core/Token.sol:Token",
        "label": "_bannedList",
        "offset": 0,
        "slot": "1",
        "type": "t_mapping(t_address,t_bool)"
      },
      {
        "astId": 11209,
        "contract": "contracts/core/Token.sol:Token",
        "label": "kycManager",
        "offset": 0,
        "slot": "2",
        "type": "t_address"
      },
      {
        "astId": 11825,
        "contract": "contracts/core/Token.sol:Token",
        "label": "__gap",
        "offset": 0,
        "slot": "3",
        "type": "t_array(t_uint256)44_storage"
      }
    ],
    "types": {
      "t_address": {
        "encoding": "inplace",
        "label": "address",
        "numberOfBytes": "20"
      },
      "t_array(t_uint256)44_storage": {
        "base": "t_uint256",
        "encoding": "inplace",
        "label": "uint256[44]",
        "numberOfBytes": "1408"
      },
      "t_bool": {
        "encoding": "inplace",
        "label": "bool",
        "numberOfBytes": "1"
      },
      "t_mapping(t_address,t_bool)": {
        "encoding": "mapping",
        "key": "t_address",
        "label": "mapping(address => bool)",
        "numberOfBytes": "32",
        "value": "t_bool"
      },
      "t_uint256": {
        "encoding": "inplace",
        "label": "uint256",
        "numberOfBytes": "32"
      }
    }
  }
}