{
  "address": "0x1DD97c36a9Af82701a5E7f87915A3654007D8fd9",
  "abi": [
    {
      "inputs": [
        {
          "internalType": "uint8",
          "name": "decimals_",
          "type": "uint8"
        }
      ],
      "stateMutability": "nonpayable",
      "type": "constructor"
    },
    {
      "inputs": [
        {
          "internalType": "uint256",
          "name": "deviation",
          "type": "uint256"
        },
        {
          "internalType": "uint256",
          "name": "maxDeviation",
          "type": "uint256"
        }
      ],
      "name": "AbsoluteDeviationTooLarge",
      "type": "error"
    },
    {
      "inputs": [],
      "name": "AccessControlBadConfirmation",
      "type": "error"
    },
    {
      "inputs": [
        {
          "internalType": "address",
          "name": "account",
          "type": "address"
        },
        {
          "internalType": "bytes32",
          "name": "neededRole",
          "type": "bytes32"
        }
      ],
      "name": "AccessControlUnauthorizedAccount",
      "type": "error"
    },
    {
      "inputs": [
        {
          "internalType": "address",
          "name": "target",
          "type": "address"
        }
      ],
      "name": "AddressEmptyCode",
      "type": "error"
    },
    {
      "inputs": [
        {
          "internalType": "address",
          "name": "implementation",
          "type": "address"
        }
      ],
      "name": "ERC1967InvalidImplementation",
      "type": "error"
    },
    {
      "inputs": [],
      "name": "ERC1967NonPayable",
      "type": "error"
    },
    {
      "inputs": [],
      "name": "FailedCall",
      "type": "error"
    },
    {
      "inputs": [],
      "name": "InvalidAddress",
      "type": "error"
    },
    {
      "inputs": [
        {
          "internalType": "uint256",
          "name": "deviation",
          "type": "uint256"
        }
      ],
      "name": "InvalidDeviation",
      "type": "error"
    },
    {
      "inputs": [],
      "name": "InvalidInitialization",
      "type": "error"
    },
    {
      "inputs": [],
      "name": "InvalidPrice",
      "type": "error"
    },
    {
      "inputs": [],
      "name": "InvalidRoundId",
      "type": "error"
    },
    {
      "inputs": [],
      "name": "InvalidTimestamp",
      "type": "error"
    },
    {
      "inputs": [],
      "name": "NotInitializing",
      "type": "error"
    },
    {
      "inputs": [],
      "name": "PendingPriceExists",
      "type": "error"
    },
    {
      "inputs": [
        {
          "internalType": "uint256",
          "name": "proposedAt",
          "type": "uint256"
        },
        {
          "internalType": "uint256",
          "name": "expiredAt",
          "type": "uint256"
        },
        {
          "internalType": "uint256",
          "name": "currentTimestamp",
          "type": "uint256"
        }
      ],
      "name": "PendingPriceExpired",
      "type": "error"
    },
    {
      "inputs": [],
      "name": "PendingPriceNotSet",
      "type": "error"
    },
    {
      "inputs": [
        {
          "internalType": "int256",
          "name": "expected",
          "type": "int256"
        },
        {
          "internalType": "int256",
          "name": "actual",
          "type": "int256"
        }
      ],
      "name": "PriceMismatch",
      "type": "error"
    },
    {
      "inputs": [
        {
          "internalType": "uint256",
          "name": "deviation",
          "type": "uint256"
        },
        {
          "internalType": "uint256",
          "name": "maxDeviation",
          "type": "uint256"
        }
      ],
      "name": "RelativeDeviationTooLarge",
      "type": "error"
    },
    {
      "inputs": [],
      "name": "UUPSUnauthorizedCallContext",
      "type": "error"
    },
    {
      "inputs": [
        {
          "internalType": "bytes32",
          "name": "slot",
          "type": "bytes32"
        }
      ],
      "name": "UUPSUnsupportedProxiableUUID",
      "type": "error"
    },
    {
      "anonymous": false,
      "inputs": [
        {
          "indexed": false,
          "internalType": "uint64",
          "name": "version",
          "type": "uint64"
        }
      ],
      "name": "Initialized",
      "type": "event"
    },
    {
      "anonymous": false,
      "inputs": [
        {
          "indexed": false,
          "internalType": "int256",
          "name": "pendingPrice",
          "type": "int256"
        },
        {
          "indexed": true,
          "internalType": "address",
          "name": "cancelledBy",
          "type": "address"
        }
      ],
      "name": "PendingPriceCancelled",
      "type": "event"
    },
    {
      "anonymous": false,
      "inputs": [
        {
          "indexed": false,
          "internalType": "int256",
          "name": "currentPrice",
          "type": "int256"
        },
        {
          "indexed": false,
          "internalType": "int256",
          "name": "proposedPrice",
          "type": "int256"
        },
        {
          "indexed": false,
          "internalType": "uint256",
          "name": "observedAt",
          "type": "uint256"
        },
        {
          "indexed": true,
          "internalType": "address",
          "name": "proposer",
          "type": "address"
        }
      ],
      "name": "PriceProposed",
      "type": "event"
    },
    {
      "anonymous": false,
      "inputs": [
        {
          "indexed": true,
          "internalType": "bytes32",
          "name": "role",
          "type": "bytes32"
        },
        {
          "indexed": true,
          "internalType": "bytes32",
          "name": "previousAdminRole",
          "type": "bytes32"
        },
        {
          "indexed": true,
          "internalType": "bytes32",
          "name": "newAdminRole",
          "type": "bytes32"
        }
      ],
      "name": "RoleAdminChanged",
      "type": "event"
    },
    {
      "anonymous": false,
      "inputs": [
        {
          "indexed": true,
          "internalType": "bytes32",
          "name": "role",
          "type": "bytes32"
        },
        {
          "indexed": true,
          "internalType": "address",
          "name": "account",
          "type": "address"
        },
        {
          "indexed": true,
          "internalType": "address",
          "name": "sender",
          "type": "address"
        }
      ],
      "name": "RoleGranted",
      "type": "event"
    },
    {
      "anonymous": false,
      "inputs": [
        {
          "indexed": true,
          "internalType": "bytes32",
          "name": "role",
          "type": "bytes32"
        },
        {
          "indexed": true,
          "internalType": "address",
          "name": "account",
          "type": "address"
        },
        {
          "indexed": true,
          "internalType": "address",
          "name": "sender",
          "type": "address"
        }
      ],
      "name": "RoleRevoked",
      "type": "event"
    },
    {
      "anonymous": false,
      "inputs": [
        {
          "indexed": true,
          "internalType": "uint80",
          "name": "roundId",
          "type": "uint80"
        }
      ],
      "name": "RoundUpdated",
      "type": "event"
    },
    {
      "anonymous": false,
      "inputs": [
        {
          "indexed": false,
          "internalType": "uint256",
          "name": "oldDeviation",
          "type": "uint256"
        },
        {
          "indexed": false,
          "internalType": "uint256",
          "name": "newDeviation",
          "type": "uint256"
        }
      ],
      "name": "UpdateAbsoluteMaxDeviation",
      "type": "event"
    },
    {
      "anonymous": false,
      "inputs": [
        {
          "indexed": false,
          "internalType": "int256",
          "name": "oldPrice",
          "type": "int256"
        },
        {
          "indexed": false,
          "internalType": "int256",
          "name": "newPrice",
          "type": "int256"
        }
      ],
      "name": "UpdatePrice",
      "type": "event"
    },
    {
      "anonymous": false,
      "inputs": [
        {
          "indexed": false,
          "internalType": "uint256",
          "name": "oldPrice",
          "type": "uint256"
        },
        {
          "indexed": false,
          "internalType": "uint256",
          "name": "newPrice",
          "type": "uint256"
        }
      ],
      "name": "UpdateReferencePrice",
      "type": "event"
    },
    {
      "anonymous": false,
      "inputs": [
        {
          "indexed": false,
          "internalType": "uint256",
          "name": "oldDeviation",
          "type": "uint256"
        },
        {
          "indexed": false,
          "internalType": "uint256",
          "name": "newDeviation",
          "type": "uint256"
        }
      ],
      "name": "UpdateRelativeMaxDeviation",
      "type": "event"
    },
    {
      "anonymous": false,
      "inputs": [
        {
          "indexed": true,
          "internalType": "address",
          "name": "implementation",
          "type": "address"
        }
      ],
      "name": "Upgraded",
      "type": "event"
    },
    {
      "inputs": [],
      "name": "CONFIRMER_ROLE",
      "outputs": [
        {
          "internalType": "bytes32",
          "name": "",
          "type": "bytes32"
        }
      ],
      "stateMutability": "view",
      "type": "function"
    },
    {
      "inputs": [],
      "name": "DEFAULT_ADMIN_ROLE",
      "outputs": [
        {
          "internalType": "bytes32",
          "name": "",
          "type": "bytes32"
        }
      ],
      "stateMutability": "view",
      "type": "function"
    },
    {
      "inputs": [],
      "name": "DEVIATION_FACTOR",
      "outputs": [
        {
          "internalType": "uint256",
          "name": "",
          "type": "uint256"
        }
      ],
      "stateMutability": "view",
      "type": "function"
    },
    {
      "inputs": [],
      "name": "OPERATOR_ROLE",
      "outputs": [
        {
          "internalType": "bytes32",
          "name": "",
          "type": "bytes32"
        }
      ],
      "stateMutability": "view",
      "type": "function"
    },
    {
      "inputs": [],
      "name": "PENDING_PRICE_TTL",
      "outputs": [
        {
          "internalType": "uint256",
          "name": "",
          "type": "uint256"
        }
      ],
      "stateMutability": "view",
      "type": "function"
    },
    {
      "inputs": [],
      "name": "UPGRADE_INTERFACE_VERSION",
      "outputs": [
        {
          "internalType": "string",
          "name": "",
          "type": "string"
        }
      ],
      "stateMutability": "view",
      "type": "function"
    },
    {
      "inputs": [],
      "name": "UPGRADE_ROLE",
      "outputs": [
        {
          "internalType": "bytes32",
          "name": "",
          "type": "bytes32"
        }
      ],
      "stateMutability": "view",
      "type": "function"
    },
    {
      "inputs": [],
      "name": "absoluteMaxDeviation",
      "outputs": [
        {
          "internalType": "uint256",
          "name": "",
          "type": "uint256"
        }
      ],
      "stateMutability": "view",
      "type": "function"
    },
    {
      "inputs": [],
      "name": "cancelPendingPrice",
      "outputs": [],
      "stateMutability": "nonpayable",
      "type": "function"
    },
    {
      "inputs": [
        {
          "internalType": "int256",
          "name": "_expectedPrice",
          "type": "int256"
        }
      ],
      "name": "confirmPrice",
      "outputs": [],
      "stateMutability": "nonpayable",
      "type": "function"
    },
    {
      "inputs": [],
      "name": "decimals",
      "outputs": [
        {
          "internalType": "uint8",
          "name": "",
          "type": "uint8"
        }
      ],
      "stateMutability": "view",
      "type": "function"
    },
    {
      "inputs": [
        {
          "internalType": "bytes32",
          "name": "role",
          "type": "bytes32"
        }
      ],
      "name": "getRoleAdmin",
      "outputs": [
        {
          "internalType": "bytes32",
          "name": "",
          "type": "bytes32"
        }
      ],
      "stateMutability": "view",
      "type": "function"
    },
    {
      "inputs": [
        {
          "internalType": "bytes32",
          "name": "role",
          "type": "bytes32"
        },
        {
          "internalType": "uint256",
          "name": "index",
          "type": "uint256"
        }
      ],
      "name": "getRoleMember",
      "outputs": [
        {
          "internalType": "address",
          "name": "",
          "type": "address"
        }
      ],
      "stateMutability": "view",
      "type": "function"
    },
    {
      "inputs": [
        {
          "internalType": "bytes32",
          "name": "role",
          "type": "bytes32"
        }
      ],
      "name": "getRoleMemberCount",
      "outputs": [
        {
          "internalType": "uint256",
          "name": "",
          "type": "uint256"
        }
      ],
      "stateMutability": "view",
      "type": "function"
    },
    {
      "inputs": [
        {
          "internalType": "bytes32",
          "name": "role",
          "type": "bytes32"
        }
      ],
      "name": "getRoleMembers",
      "outputs": [
        {
          "internalType": "address[]",
          "name": "",
          "type": "address[]"
        }
      ],
      "stateMutability": "view",
      "type": "function"
    },
    {
      "inputs": [
        {
          "internalType": "uint80",
          "name": "_roundId",
          "type": "uint80"
        }
      ],
      "name": "getRoundData",
      "outputs": [
        {
          "internalType": "uint80",
          "name": "roundId",
          "type": "uint80"
        },
        {
          "internalType": "int256",
          "name": "answer",
          "type": "int256"
        },
        {
          "internalType": "uint256",
          "name": "startedAt",
          "type": "uint256"
        },
        {
          "internalType": "uint256",
          "name": "updatedAt",
          "type": "uint256"
        },
        {
          "internalType": "uint80",
          "name": "answeredInRound",
          "type": "uint80"
        }
      ],
      "stateMutability": "view",
      "type": "function"
    },
    {
      "inputs": [
        {
          "internalType": "bytes32",
          "name": "role",
          "type": "bytes32"
        },
        {
          "internalType": "address",
          "name": "account",
          "type": "address"
        }
      ],
      "name": "grantRole",
      "outputs": [],
      "stateMutability": "nonpayable",
      "type": "function"
    },
    {
      "inputs": [
        {
          "internalType": "bytes32",
          "name": "role",
          "type": "bytes32"
        },
        {
          "internalType": "address",
          "name": "account",
          "type": "address"
        }
      ],
      "name": "hasRole",
      "outputs": [
        {
          "internalType": "bool",
          "name": "",
          "type": "bool"
        }
      ],
      "stateMutability": "view",
      "type": "function"
    },
    {
      "inputs": [
        {
          "internalType": "uint256",
          "name": "_relativeMaxDeviation",
          "type": "uint256"
        },
        {
          "internalType": "uint256",
          "name": "_absoluteMaxDeviation",
          "type": "uint256"
        },
        {
          "internalType": "int256",
          "name": "_initPrice",
          "type": "int256"
        },
        {
          "internalType": "uint256",
          "name": "_referencePrice",
          "type": "uint256"
        },
        {
          "internalType": "address",
          "name": "_admin",
          "type": "address"
        },
        {
          "internalType": "uint256",
          "name": "_priceTimestamp",
          "type": "uint256"
        }
      ],
      "name": "initialize",
      "outputs": [],
      "stateMutability": "nonpayable",
      "type": "function"
    },
    {
      "inputs": [
        {
          "internalType": "int256",
          "name": "_newPrice",
          "type": "int256"
        }
      ],
      "name": "isValidPriceUpdate",
      "outputs": [
        {
          "internalType": "bool",
          "name": "isValid",
          "type": "bool"
        }
      ],
      "stateMutability": "view",
      "type": "function"
    },
    {
      "inputs": [],
      "name": "latestAnswer",
      "outputs": [
        {
          "internalType": "int256",
          "name": "",
          "type": "int256"
        }
      ],
      "stateMutability": "view",
      "type": "function"
    },
    {
      "inputs": [],
      "name": "latestRound",
      "outputs": [
        {
          "internalType": "uint80",
          "name": "",
          "type": "uint80"
        }
      ],
      "stateMutability": "view",
      "type": "function"
    },
    {
      "inputs": [],
      "name": "latestRoundData",
      "outputs": [
        {
          "internalType": "uint80",
          "name": "roundId",
          "type": "uint80"
        },
        {
          "internalType": "int256",
          "name": "answer",
          "type": "int256"
        },
        {
          "internalType": "uint256",
          "name": "startedAt",
          "type": "uint256"
        },
        {
          "internalType": "uint256",
          "name": "updatedAt",
          "type": "uint256"
        },
        {
          "internalType": "uint80",
          "name": "answeredInRound",
          "type": "uint80"
        }
      ],
      "stateMutability": "view",
      "type": "function"
    },
    {
      "inputs": [],
      "name": "pendingPrice",
      "outputs": [
        {
          "internalType": "int256",
          "name": "",
          "type": "int256"
        },
        {
          "internalType": "uint256",
          "name": "",
          "type": "uint256"
        },
        {
          "internalType": "address",
          "name": "",
          "type": "address"
        },
        {
          "internalType": "bool",
          "name": "",
          "type": "bool"
        },
        {
          "internalType": "uint256",
          "name": "",
          "type": "uint256"
        }
      ],
      "stateMutability": "view",
      "type": "function"
    },
    {
      "inputs": [
        {
          "internalType": "int256",
          "name": "_price",
          "type": "int256"
        },
        {
          "internalType": "uint256",
          "name": "_priceTimestamp",
          "type": "uint256"
        }
      ],
      "name": "proposePrice",
      "outputs": [],
      "stateMutability": "nonpayable",
      "type": "function"
    },
    {
      "inputs": [],
      "name": "proxiableUUID",
      "outputs": [
        {
          "internalType": "bytes32",
          "name": "",
          "type": "bytes32"
        }
      ],
      "stateMutability": "view",
      "type": "function"
    },
    {
      "inputs": [],
      "name": "referencePrice",
      "outputs": [
        {
          "internalType": "uint256",
          "name": "",
          "type": "uint256"
        }
      ],
      "stateMutability": "view",
      "type": "function"
    },
    {
      "inputs": [],
      "name": "relativeMaxDeviation",
      "outputs": [
        {
          "internalType": "uint256",
          "name": "",
          "type": "uint256"
        }
      ],
      "stateMutability": "view",
      "type": "function"
    },
    {
      "inputs": [
        {
          "internalType": "bytes32",
          "name": "role",
          "type": "bytes32"
        },
        {
          "internalType": "address",
          "name": "callerConfirmation",
          "type": "address"
        }
      ],
      "name": "renounceRole",
      "outputs": [],
      "stateMutability": "nonpayable",
      "type": "function"
    },
    {
      "inputs": [
        {
          "internalType": "bytes32",
          "name": "role",
          "type": "bytes32"
        },
        {
          "internalType": "address",
          "name": "account",
          "type": "address"
        }
      ],
      "name": "revokeRole",
      "outputs": [],
      "stateMutability": "nonpayable",
      "type": "function"
    },
    {
      "inputs": [
        {
          "internalType": "bytes4",
          "name": "interfaceId",
          "type": "bytes4"
        }
      ],
      "name": "supportsInterface",
      "outputs": [
        {
          "internalType": "bool",
          "name": "",
          "type": "bool"
        }
      ],
      "stateMutability": "view",
      "type": "function"
    },
    {
      "inputs": [
        {
          "internalType": "uint256",
          "name": "_newDeviation",
          "type": "uint256"
        }
      ],
      "name": "updateAbsoluteMaxDeviation",
      "outputs": [],
      "stateMutability": "nonpayable",
      "type": "function"
    },
    {
      "inputs": [
        {
          "internalType": "uint256",
          "name": "_price",
          "type": "uint256"
        }
      ],
      "name": "updateReferencePrice",
      "outputs": [],
      "stateMutability": "nonpayable",
      "type": "function"
    },
    {
      "inputs": [
        {
          "internalType": "uint256",
          "name": "_newDeviation",
          "type": "uint256"
        }
      ],
      "name": "updateRelativeMaxDeviation",
      "outputs": [],
      "stateMutability": "nonpayable",
      "type": "function"
    },
    {
      "inputs": [
        {
          "internalType": "address",
          "name": "newImplementation",
          "type": "address"
        },
        {
          "internalType": "bytes",
          "name": "data",
          "type": "bytes"
        }
      ],
      "name": "upgradeToAndCall",
      "outputs": [],
      "stateMutability": "payable",
      "type": "function"
    },
    {
      "inputs": [],
      "name": "version",
      "outputs": [
        {
          "internalType": "uint256",
          "name": "",
          "type": "uint256"
        }
      ],
      "stateMutability": "pure",
      "type": "function"
    }
  ],
  "transactionHash": "0x6cb7cf1f760920223028c71f8ec2b1bc67ea06f734c7c319e73c869574a891b8",
  "args": [
    8
  ],
  "numDeployments": 1,
  "solcInputHash": "0f46acc7cbc9bd5485b5b6a11c4a6715",
  "bytecode": "0x60c03461010b576001600160401b0390601f611b4038819003918201601f19168301918483118484101761010f5780849260209460405283398101031261010b575160ff8116810361010b573060805260a0527ff0c57e16840df040f15088dc2f81fe391c3923bec73e23a9662efc9c229c6a009081549060ff8260401c166100f95780808316036100b4575b604051611a1c90816101248239608051818181610e0a0152610f10015260a051816111b10152f35b6001600160401b031990911681179091556040519081527fc7f505b2f371ae2175ee4913f4499e1f2633a7b5936321eed1cdaeb6115181d290602090a15f808061008c565b60405163f92ee8a960e01b8152600490fd5b5f80fd5b634e487b7160e01b5f52604160045260245ffdfe608060409080825260049081361015610016575f80fd5b5f3560e01c90816301ffc9a714611329575080631473d90414611301578063248a9ca3146112ca5780632d493ad41461124f5780632f2ff15d146111d5578063313ce5671461119857806336568abe14611153578063478223a4146111375780634f1ef28614610e8d57806350d25bcd14610e5b57806352d1902d14610df657806354fd4d5014610ddb57806359414bf214610dbd5780635eb41b8614610d48578063668a0f0214610d225780636afbd93614610cd157806384ec17e914610a595780639010d07c14610a0d57806391d14854146109bc578063954eddc8146108445780639a6fc8f5146107c25780639e55f716146105e9578063a217fddf146105cf578063a3246ad31461051e578063ad3cb1cc1461047f578063ae36926114610445578063ae4b8751146103da578063b908afa8146103a0578063c1cca6ba14610382578063ca15c8731461034e578063d547741f14610305578063dc0e9f40146102e7578063e8ff20ff146102ca578063f4dabac01461023c578063f5b541a6146102025763feaf968c146101ac575f80fd5b346101fe575f3660031901126101fe576101fa6001600160501b0392835f54165f5282602052805f2084815416936001820154956002830154916003840154930154169251958695866113fd565b0390f35b5f80fd5b82346101fe575f3660031901126101fe57602090517f97667070c54ef182b0f5858b034beac1b6f3089aa2d3188bb1e8929f4fa9b9298152f35b5090346101fe5760203660031901126101fe5781359161025a611568565b60ff60075460a01c166102bc5761271083116102a757507fdff50cab1fc63b9640e13d02937dad790e1ce1edc00f4625736d9a0923953ca9906003548151908152836020820152a1600355005b826024925191634645e76160e11b8352820152fd5b90516318908b0560e01b8152fd5b82346101fe575f3660031901126101fe5760209051620151808152f35b82346101fe575f3660031901126101fe576020906003549051908152f35b5090346101fe57806003193601126101fe5761034c91356103476001610329611395565b93835f525f805160206119c78339815191526020525f2001546115be565b6115ec565b005b5090346101fe5760203660031901126101fe57602091355f525f805160206119878339815191528252805f20549051908152f35b82346101fe575f3660031901126101fe576020906002549051908152f35b82346101fe575f3660031901126101fe57602090517f88aa719609f728b0c5e7fb8dd3608d5c25d497efbb3b9dd64e9251ebba1015088152f35b5090346101fe5760203660031901126101fe578135916103f8611568565b60ff60075460a01c166102bc5761271083116102a757507f8598aaf008d8d5063e72f647b4bc36b9fd852e9d1f883d27cf0fa19fb3bfa1d7906002548151908152836020820152a1600255005b82346101fe575f3660031901126101fe57602090517f2882d409365a50c684fae709d3db405f6fd025cd4d815228377ccc14efd8b57c8152f35b5090346101fe575f3660031901126101fe578051918183019083821067ffffffffffffffff83111761050b57508152600582526020640352e302e360dc1b60208401528151928391602083528151918260208501525f5b8381106104f55750505f83830185015250601f01601f19168101030190f35b81810183015187820187015286945082016104d6565b604190634e487b7160e01b5f525260245ffd5b50346101fe57602090816003193601126101fe578290355f525f805160206119878339815191528252805f208151928381835491828152019081935f52825f20905f5b8181106105bb57505050846105779103856113ab565b825181815293518185018190528493840192915f5b82811061059b57505050500390f35b83516001600160a01b03168552869550938101939281019260010161058c565b825484529284019260019283019201610561565b82346101fe575f3660031901126101fe57602090515f8152f35b50346101fe576020806003193601126101fe578135917f2882d409365a50c684fae709d3db405f6fd025cd4d815228377ccc14efd8b57c805f525f805160206119c78339815191528352845f20335f52835260ff855f205416156107a5575060ff60075460a01c1615610797576005549280840361077b575060065462015180810190818111610768578142116107475750505f54926001600160501b039482866001818816805f528388527f0df29f4e9bf8b9d653c1d62d1250b5ef11d98a3f6cad6779714576ff672f95388583815f2001548151908152888b820152a1011694856001600160501b0319809816175f55855f52525f20928484541617835560018301556008546002830155426003830155835f541691019182541617905561071e5f6005555f6006555f6007555f600855565b5f54167fd0142662135cfc22df4b0b9776d346f4d44f207051c748e9bf5db59a1ba4bc0c5f80a2005b8551636984f80360e11b815292830152602482015242604482015260649150fd5b601183634e487b7160e01b5f525260245ffd5b8451637dbd646760e11b81529182015260248101839052604490fd5b835163bd86c4fd60e01b8152fd5b6044925084519163e2517d3f60e01b835233908301526024820152fd5b50346101fe5760203660031901126101fe578035916001600160501b03928381168091036101fe5780158015610838575b61082a57906101fa915f5282602052805f2084815416936001820154956002830154916003840154930154169251958695866113fd565b505163bfbe031f60e01b8152fd5b50835f541681116107f3565b5090346101fe57806003193601126101fe576024359082356108646114ef565b5f8113156109ad57821580156109a3575b610993576001600160501b035f54165f52836020526001825f2001549361089c828661149a565b600254908181116109785750506108b58260015461149a565b6003549081811161095d57505082519060a082019082821067ffffffffffffffff83111761050b57508491608091855283815242602082015233858201526001606082015201528060055542600655600754600160a01b9060ff60a01b1933169060018060a81b031916171760075582600855815193845260208401528201527fc1e64daa5b2401779a828f38d48720348a057205c9c0a096902cc08c3451fc9160603392a2005b84516318193cb560e31b815292830152602482015260449150fd5b84516301274f9760e51b815292830152602482015260449150fd5b815163b7d0949760e01b81528490fd5b5042831015610875565b815162bfc92160e01b81528490fd5b5090346101fe57806003193601126101fe576020916109d9611395565b90355f525f805160206119c78339815191528352815f209060018060a01b03165f52825260ff815f20541690519015158152f35b5090346101fe57806003193601126101fe57602091355f525f805160206119878339815191528252610a43602435825f206117d2565b905491519160018060a01b039160031b1c168152f35b5090346101fe5760c03660031901126101fe578135916064356024356084356001600160a01b038116906044358282036101fe5760a435907ff0c57e16840df040f15088dc2f81fe391c3923bec73e23a9662efc9c229c6a009687549660ff888b1c16159667ffffffffffffffff891698891580610cca575b6001809b149081610cc0575b159081610cb7575b50610ca75767ffffffffffffffff1981168a178b5588610c88575b508615610c7857612710808d11610c61578111610c4b575f8413801590610c43575b610c345784158015610c2a575b610c1a5760ff8a548c1c1615610c0a57610b9e969798999a9b60025560035588556001600160501b03199288845f5416175f55885f52816020528a5f209289858554161784558984015580600284015560038301556001600160501b035f5416910191825416179055611632565b610be3575b50610baa57005b815460ff60401b191690915590519081527fc7f505b2f371ae2175ee4913f4499e1f2633a7b5936321eed1cdaeb6115181d290602090a1005b610c03905f80525f80516020611987833981519152602052855f206117fb565b505f610ba3565b8a51631afcd79f60e31b81528390fd5b8a5163b7d0949760e01b81528390fd5b5042851015610b30565b8a5162bfc92160e01b81528390fd5b508115610b23565b826024918c5191634645e76160e11b8352820152fd5b8b51634645e76160e11b81528085018e9052602490fd5b8a5163e6c4247b60e01b81528390fd5b68ffffffffffffffffff191668010000000000000001178a555f610b01565b8b5163f92ee8a960e01b81528490fd5b9050155f610ae6565b303b159150610ade565b5088610ad2565b82346101fe575f3660031901126101fe57600554600654600754600854845193845260208401929092526001600160a01b0381169383019390935260a092831c60ff16151560608301526080820152f35b82346101fe575f3660031901126101fe576020906001600160501b035f54169051908152f35b5090346101fe5760203660031901126101fe57813591610d66611568565b60ff60075460a01c166102bc578215610db057507f0cc24234278361e4964b691ec5f05706d68e66bcb6f838699f53e08f0937be63906001548151908152836020820152a1600155005b905162bfc92160e01b8152fd5b82346101fe575f3660031901126101fe576020906001549051908152f35b82346101fe575f3660031901126101fe576020905160028152f35b5090346101fe575f3660031901126101fe577f00000000000000000000000000000000000000000000000000000000000000006001600160a01b03163003610e4e57602090515f805160206119a78339815191528152f35b5163703e46dd60e11b8152fd5b5090346101fe575f3660031901126101fe576020916001600160501b035f54165f5282526001815f2001549051908152f35b50816003193601126101fe576001600160a01b0391813583811691908281036101fe5760249485359167ffffffffffffffff83116101fe57366023840112156101fe578286013591610ede836113e1565b90610eeb865192836113ab565b83825260209384830195368b83830101116101fe57815f928c889301893784010152807f00000000000000000000000000000000000000000000000000000000000000001680301491821561111c575b505061110c577f88aa719609f728b0c5e7fb8dd3608d5c25d497efbb3b9dd64e9251ebba101508805f525f805160206119c78339815191528452855f20335f52845260ff865f205416156110ef575085156110df5784516352d1902d60e01b8152838189818a5afa5f91816110b0575b50610fc65750505050505191634c9c8ce360e01b8352820152fd5b9087878794938b5f805160206119a78339815191529182810361109b5750853b15611087575080546001600160a01b031916821790558451907fbc7cd75a20ee27fd9adebab32041f755214dbc6bffa90cc0225b39da2e5c2d3b5f80a282511561106d5750505f61034c9581925190845af4913d15611063573d61105561104c826113e1565b925192836113ab565b81525f81943d92013e611923565b5060609250611923565b945094505050503461107b57005b63b398979f60e01b8152fd5b8651634c9c8ce360e01b8152808501849052fd5b8751632a87526960e21b815280860191909152fd5b9091508481813d83116110d8575b6110c881836113ab565b810103126101fe5751905f610fab565b503d6110be565b845163e6c4247b60e01b81528790fd5b855163e2517d3f60e01b815233818a0152808a0191909152604490fd5b845163703e46dd60e11b81528790fd5b5f805160206119a78339815191525416141590505f80610f3b565b82346101fe575f3660031901126101fe57602090516127108152f35b5090346101fe57806003193601126101fe5761116d611395565b90336001600160a01b03831603611189575061034c91356115ec565b5163334bd91960e11b81529050fd5b82346101fe575f3660031901126101fe576020905160ff7f0000000000000000000000000000000000000000000000000000000000000000168152f35b50346101fe57816003193601126101fe5735906111f0611395565b90825f525f805160206119c78339815191526020526112146001825f2001546115be565b61121e82846116c9565b61122457005b5f9283525f8051602061198783398151915260205290912061034c916001600160a01b0316906117fb565b50346101fe575f3660031901126101fe576112686114ef565b60ff60075460a01c16156112bc5750600554906112905f6005555f6006555f6007555f600855565b519081527fe02b1c4b60030727111b8f6ead9ffe560ee7ae47f47eea7482fa00fc1699cb6160203392a2005b905163bd86c4fd60e01b8152fd5b5090346101fe5760203660031901126101fe57602091355f525f805160206119c783398151915282526001815f2001549051908152f35b5090346101fe5760203660031901126101fe576113206020923561142d565b90519015158152f35b82346101fe5760203660031901126101fe57359063ffffffff60e01b82168092036101fe57602091635a05180f60e01b811490811561136a575b5015158152f35b637965db0b60e01b811491508115611384575b5083611363565b6301ffc9a760e01b1490508361137d565b602435906001600160a01b03821682036101fe57565b90601f8019910116810190811067ffffffffffffffff8211176113cd57604052565b634e487b7160e01b5f52604160045260245ffd5b67ffffffffffffffff81116113cd57601f01601f191660200190565b93608093969591929660a08601976001600160501b03809516875260208701526040860152606085015216910152565b5f811315611474576001600160501b035f54165f52600460205261145881600160405f20015461149a565b600254106114745761146c9060015461149a565b600354101590565b505f90565b9190820391821161148657565b634e487b7160e01b5f52601160045260245ffd5b818111156114df576114ac8282611479565b915b81018091116114865760011c9081156114d95761271090818102918183041490151715611486570490565b50505f90565b6114e98183611479565b916114ae565b335f9081527f448256db8f8fb95ee3eaaf89c1051414494e85cebb6057fcf996cc3d0ccfb45660205260409020547f97667070c54ef182b0f5858b034beac1b6f3089aa2d3188bb1e8929f4fa9b9299060ff161561154a5750565b6044906040519063e2517d3f60e01b82523360048301526024820152fd5b335f9081527fb7db2dd08fcb62d0c9e08c51941cae53c267786a0b75803fb7960902fc8ef97d602052604090205460ff16156115a057565b60405163e2517d3f60e01b81523360048201525f6024820152604490fd5b805f525f805160206119c783398151915260205260405f20335f5260205260ff60405f2054161561154a5750565b6115f68282611753565b918261160157505090565b5f9182525f80516020611987833981519152602052604090912061162e916001600160a01b03169061185e565b5090565b6001600160a01b03165f8181527fb7db2dd08fcb62d0c9e08c51941cae53c267786a0b75803fb7960902fc8ef97d60205260409020545f805160206119c78339815191529060ff166114d9575f805260205260405f20815f5260205260405f20600160ff1982541617905533905f7f2f8788117e7eff1d82e926ec794901d17c78024a50270940304540a733656f0d8180a4600190565b90815f525f805160206119c78339815191528060205260405f209160018060a01b031691825f5260205260ff60405f205416155f1461174c57825f5260205260405f20815f5260205260405f20600160ff1982541617905533917f2f8788117e7eff1d82e926ec794901d17c78024a50270940304540a733656f0d5f80a4600190565b5050505f90565b90815f525f805160206119c78339815191528060205260405f209160018060a01b031691825f5260205260ff60405f2054165f1461174c57825f5260205260405f20815f5260205260405f2060ff19815416905533917ff6391f5c32d9c69d2a47ea670b442974b53935d1edc7fd64eb21e047a839171b5f80a4600190565b80548210156117e7575f5260205f2001905f90565b634e487b7160e01b5f52603260045260245ffd5b6001810190825f528160205260405f2054155f1461174c578054600160401b8110156113cd5761184b6118358260018794018555846117d2565b819391549060031b91821b915f19901b19161790565b905554915f5260205260405f2055600190565b906001820191815f528260205260405f2054908115155f1461191b575f199180830181811161148657825490848201918211611486578181036118e6575b505050805480156118d2578201916118b483836117d2565b909182549160031b1b19169055555f526020525f6040812055600190565b634e487b7160e01b5f52603160045260245ffd5b6119066118f661183593866117d2565b90549060031b1c928392866117d2565b90555f528460205260405f20555f808061189c565b505050505f90565b9061194a575080511561193857602081519101fd5b60405163d6bda27560e01b8152600490fd5b8151158061197d575b61195b575090565b604051639996b31560e01b81526001600160a01b039091166004820152602490fd5b50803b1561195356fec1f6fe24621ce81ec5827caf0253cadb74709b061630e6b55e82371705932000360894a13ba1a3210667c828492db98dca3e2076cc3735a920a3ca505d382bbc02dd7bc7dec4dceedda775e58dd541e08a116c6c53815c0bd028192f7b626800a264697066735822122023a90d5cbbeb7ddfee5c8619d8ba6733fae369c0f00e5e597be799b16daf258c64736f6c63430008180033",
  "devdoc": {
    "details": "Uses UUPS upgradeable pattern for future improvements Key Features: - Two configurable price deviation limits for safety - Two-step price updates (proposal + confirmation) - Round-based price updates (Chainlink AggregatorV3Interface-compatible) - Role-based access control - Upgradeable via UUPS pattern",
    "errors": {
      "AccessControlBadConfirmation()": [
        {
          "details": "The caller of a function is not the expected one. NOTE: Don't confuse with {AccessControlUnauthorizedAccount}."
        }
      ],
      "AccessControlUnauthorizedAccount(address,bytes32)": [
        {
          "details": "The `account` is missing a role."
        }
      ],
      "AddressEmptyCode(address)": [
        {
          "details": "There's no code at `target` (it is not a contract)."
        }
      ],
      "ERC1967InvalidImplementation(address)": [
        {
          "details": "The `implementation` of the proxy is invalid."
        }
      ],
      "ERC1967NonPayable()": [
        {
          "details": "An upgrade function sees `msg.value > 0` that may be lost."
        }
      ],
      "FailedCall()": [
        {
          "details": "A call to an address target failed. The target may have reverted."
        }
      ],
      "InvalidInitialization()": [
        {
          "details": "The contract is already initialized."
        }
      ],
      "NotInitializing()": [
        {
          "details": "The contract is not initializing."
        }
      ],
      "UUPSUnauthorizedCallContext()": [
        {
          "details": "The call is from an unauthorized context."
        }
      ],
      "UUPSUnsupportedProxiableUUID(bytes32)": [
        {
          "details": "The storage `slot` is unsupported as a UUID."
        }
      ]
    },
    "events": {
      "Initialized(uint64)": {
        "details": "Triggered when the contract has been initialized or reinitialized."
      },
      "RoleAdminChanged(bytes32,bytes32,bytes32)": {
        "details": "Emitted when `newAdminRole` is set as ``role``'s admin role, replacing `previousAdminRole` `DEFAULT_ADMIN_ROLE` is the starting admin for all roles, despite {RoleAdminChanged} not being emitted to signal this."
      },
      "RoleGranted(bytes32,address,address)": {
        "details": "Emitted when `account` is granted `role`. `sender` is the account that originated the contract call. This account bears the admin role (for the granted role). Expected in cases where the role was granted using the internal {AccessControl-_grantRole}."
      },
      "RoleRevoked(bytes32,address,address)": {
        "details": "Emitted when `account` is revoked `role`. `sender` is the account that originated the contract call:   - if using `revokeRole`, it is the admin role bearer   - if using `renounceRole`, it is the role bearer (i.e. `account`)"
      },
      "Upgraded(address)": {
        "details": "Emitted when the implementation is upgraded."
      }
    },
    "kind": "dev",
    "methods": {
      "constructor": {
        "custom:oz-upgrades-unsafe-allow": "constructor"
      },
      "getRoleAdmin(bytes32)": {
        "details": "Returns the admin role that controls `role`. See {grantRole} and {revokeRole}. To change a role's admin, use {_setRoleAdmin}."
      },
      "getRoleMember(bytes32,uint256)": {
        "details": "Returns one of the accounts that have `role`. `index` must be a value between 0 and {getRoleMemberCount}, non-inclusive. Role bearers are not sorted in any particular way, and their ordering may change at any point. WARNING: When using {getRoleMember} and {getRoleMemberCount}, make sure you perform all queries on the same block. See the following https://forum.openzeppelin.com/t/iterating-over-elements-on-enumerableset-in-openzeppelin-contracts/2296[forum post] for more information."
      },
      "getRoleMemberCount(bytes32)": {
        "details": "Returns the number of accounts that have `role`. Can be used together with {getRoleMember} to enumerate all bearers of a role."
      },
      "getRoleMembers(bytes32)": {
        "details": "Return all accounts that have `role` WARNING: This operation will copy the entire storage to memory, which can be quite expensive. This is designed to mostly be used by view accessors that are queried without any gas fees. Developers should keep in mind that this function has an unbounded cost, and using it as part of a state-changing function may render the function uncallable if the set grows to a point where copying to memory consumes too much gas to fit in a block."
      },
      "grantRole(bytes32,address)": {
        "details": "Grants `role` to `account`. If `account` had not been already granted `role`, emits a {RoleGranted} event. Requirements: - the caller must have ``role``'s admin role. May emit a {RoleGranted} event."
      },
      "hasRole(bytes32,address)": {
        "details": "Returns `true` if `account` has been granted `role`."
      },
      "initialize(uint256,uint256,int256,uint256,address,uint256)": {
        "params": {
          "_absoluteMaxDeviation": "Maximum allowed deviation from the reference price (in basis points)",
          "_admin": "Address of the administrator who can manage roles",
          "_initPrice": "Initial price",
          "_referencePrice": "Initial reference price used for the second guardrail",
          "_relativeMaxDeviation": "Maximum allowed deviation from the latest answer (in basis points)"
        }
      },
      "proxiableUUID()": {
        "details": "Implementation of the ERC-1822 {proxiableUUID} function. This returns the storage slot used by the implementation. It is used to validate the implementation's compatibility when performing an upgrade. IMPORTANT: A proxy pointing at a proxiable contract should not be considered proxiable itself, because this risks bricking a proxy that upgrades to it, by delegating to itself until out of gas. Thus it is critical that this function revert if invoked through a proxy. This is guaranteed by the `notDelegated` modifier."
      },
      "renounceRole(bytes32,address)": {
        "details": "Revokes `role` from the calling account. Roles are often managed via {grantRole} and {revokeRole}: this function's purpose is to provide a mechanism for accounts to lose their privileges if they are compromised (such as when a trusted device is misplaced). If the calling account had been revoked `role`, emits a {RoleRevoked} event. Requirements: - the caller must be `callerConfirmation`. May emit a {RoleRevoked} event."
      },
      "revokeRole(bytes32,address)": {
        "details": "Revokes `role` from `account`. If `account` had been granted `role`, emits a {RoleRevoked} event. Requirements: - the caller must have ``role``'s admin role. May emit a {RoleRevoked} event."
      },
      "supportsInterface(bytes4)": {
        "details": "Returns true if this contract implements the interface defined by `interfaceId`. See the corresponding https://eips.ethereum.org/EIPS/eip-165#how-interfaces-are-identified[ERC section] to learn more about how these ids are created. This function call must use less than 30 000 gas."
      },
      "upgradeToAndCall(address,bytes)": {
        "custom:oz-upgrades-unsafe-allow-reachable": "delegatecall",
        "details": "Upgrade the implementation of the proxy to `newImplementation`, and subsequently execute the function call encoded in `data`. Calls {_authorizeUpgrade}. Emits an {Upgraded} event."
      }
    },
    "stateVariables": {
      "_decimals": {
        "custom:oz-upgrades-unsafe-allow": "state-variable-immutable"
      }
    },
    "title": "PriceOracle",
    "version": 1
  },
  "userdoc": {
    "kind": "user",
    "methods": {
      "initialize(uint256,uint256,int256,uint256,address,uint256)": {
        "notice": "Initializes the PriceOracle contract with essential configuration values"
      }
    },
    "notice": "Upgradeable oracle contract for managing staged price updates with deviation controls",
    "version": 1
  },
  "storageLayout": {
    "storage": [
      {
        "astId": 20843,
        "contract": "contracts/extension/PriceOracle.sol:PriceOracle",
        "label": "latestRoundValue",
        "offset": 0,
        "slot": "0",
        "type": "t_uint80"
      },
      {
        "astId": 20845,
        "contract": "contracts/extension/PriceOracle.sol:PriceOracle",
        "label": "referencePriceValue",
        "offset": 0,
        "slot": "1",
        "type": "t_uint256"
      },
      {
        "astId": 20850,
        "contract": "contracts/extension/PriceOracle.sol:PriceOracle",
        "label": "relativeMaxDeviationValue",
        "offset": 0,
        "slot": "2",
        "type": "t_uint256"
      },
      {
        "astId": 20852,
        "contract": "contracts/extension/PriceOracle.sol:PriceOracle",
        "label": "absoluteMaxDeviationValue",
        "offset": 0,
        "slot": "3",
        "type": "t_uint256"
      },
      {
        "astId": 20857,
        "contract": "contracts/extension/PriceOracle.sol:PriceOracle",
        "label": "roundData",
        "offset": 0,
        "slot": "4",
        "type": "t_mapping(t_uint80,t_struct(RoundData)20827_storage)"
      },
      {
        "astId": 20860,
        "contract": "contracts/extension/PriceOracle.sol:PriceOracle",
        "label": "pendingPriceValue",
        "offset": 0,
        "slot": "5",
        "type": "t_struct(PendingPrice)20838_storage"
      },
      {
        "astId": 21718,
        "contract": "contracts/extension/PriceOracle.sol:PriceOracle",
        "label": "__gap",
        "offset": 0,
        "slot": "9",
        "type": "t_array(t_uint256)39_storage"
      }
    ],
    "types": {
      "t_address": {
        "encoding": "inplace",
        "label": "address",
        "numberOfBytes": "20"
      },
      "t_array(t_uint256)39_storage": {
        "base": "t_uint256",
        "encoding": "inplace",
        "label": "uint256[39]",
        "numberOfBytes": "1248"
      },
      "t_bool": {
        "encoding": "inplace",
        "label": "bool",
        "numberOfBytes": "1"
      },
      "t_int256": {
        "encoding": "inplace",
        "label": "int256",
        "numberOfBytes": "32"
      },
      "t_mapping(t_uint80,t_struct(RoundData)20827_storage)": {
        "encoding": "mapping",
        "key": "t_uint80",
        "label": "mapping(uint80 => struct PriceOracle.RoundData)",
        "numberOfBytes": "32",
        "value": "t_struct(RoundData)20827_storage"
      },
      "t_struct(PendingPrice)20838_storage": {
        "encoding": "inplace",
        "label": "struct PriceOracle.PendingPrice",
        "members": [
          {
            "astId": 20829,
            "contract": "contracts/extension/PriceOracle.sol:PriceOracle",
            "label": "value",
            "offset": 0,
            "slot": "0",
            "type": "t_int256"
          },
          {
            "astId": 20831,
            "contract": "contracts/extension/PriceOracle.sol:PriceOracle",
            "label": "proposedAt",
            "offset": 0,
            "slot": "1",
            "type": "t_uint256"
          },
          {
            "astId": 20833,
            "contract": "contracts/extension/PriceOracle.sol:PriceOracle",
            "label": "proposer",
            "offset": 0,
            "slot": "2",
            "type": "t_address"
          },
          {
            "astId": 20835,
            "contract": "contracts/extension/PriceOracle.sol:PriceOracle",
            "label": "exists",
            "offset": 20,
            "slot": "2",
            "type": "t_bool"
          },
          {
            "astId": 20837,
            "contract": "contracts/extension/PriceOracle.sol:PriceOracle",
            "label": "observedAt",
            "offset": 0,
            "slot": "3",
            "type": "t_uint256"
          }
        ],
        "numberOfBytes": "128"
      },
      "t_struct(RoundData)20827_storage": {
        "encoding": "inplace",
        "label": "struct PriceOracle.RoundData",
        "members": [
          {
            "astId": 20818,
            "contract": "contracts/extension/PriceOracle.sol:PriceOracle",
            "label": "roundId",
            "offset": 0,
            "slot": "0",
            "type": "t_uint80"
          },
          {
            "astId": 20820,
            "contract": "contracts/extension/PriceOracle.sol:PriceOracle",
            "label": "answer",
            "offset": 0,
            "slot": "1",
            "type": "t_int256"
          },
          {
            "astId": 20822,
            "contract": "contracts/extension/PriceOracle.sol:PriceOracle",
            "label": "startedAt",
            "offset": 0,
            "slot": "2",
            "type": "t_uint256"
          },
          {
            "astId": 20824,
            "contract": "contracts/extension/PriceOracle.sol:PriceOracle",
            "label": "updatedAt",
            "offset": 0,
            "slot": "3",
            "type": "t_uint256"
          },
          {
            "astId": 20826,
            "contract": "contracts/extension/PriceOracle.sol:PriceOracle",
            "label": "answeredInRound",
            "offset": 0,
            "slot": "4",
            "type": "t_uint80"
          }
        ],
        "numberOfBytes": "160"
      },
      "t_uint256": {
        "encoding": "inplace",
        "label": "uint256",
        "numberOfBytes": "32"
      },
      "t_uint80": {
        "encoding": "inplace",
        "label": "uint80",
        "numberOfBytes": "10"
      }
    }
  }
}